{
  "_format": "hh-sol-artifact-1",
  "contractName": "MyVestingWallet",
  "sourceName": "contracts/MyVestingWallet.sol",
  "abi": [
    {
      "inputs": [
        {
          "internalType": "address",
          "name": "beneficiary",
          "type": "address"
        },
        {
          "internalType": "uint64",
          "name": "startTimestamp",
          "type": "uint64"
        },
        {
          "internalType": "uint64",
          "name": "durationSeconds",
          "type": "uint64"
        },
        {
          "internalType": "uint64",
          "name": "cliffSeconds",
          "type": "uint64"
        }
      ],
      "stateMutability": "nonpayable",
      "type": "constructor"
    },
    {
      "inputs": [
        {
          "internalType": "address",
          "name": "target",
          "type": "address"
        }
      ],
      "name": "AddressEmptyCode",
      "type": "error"
    },
    {
      "inputs": [
        {
          "internalType": "address",
          "name": "account",
          "type": "address"
        }
      ],
      "name": "AddressInsufficientBalance",
      "type": "error"
    },
    {
      "inputs": [],
      "name": "FailedInnerCall",
      "type": "error"
    },
    {
      "inputs": [
        {
          "internalType": "uint64",
          "name": "cliffSeconds",
          "type": "uint64"
        },
        {
          "internalType": "uint64",
          "name": "durationSeconds",
          "type": "uint64"
        }
      ],
      "name": "InvalidCliffDuration",
      "type": "error"
    },
    {
      "inputs": [
        {
          "internalType": "address",
          "name": "owner",
          "type": "address"
        }
      ],
      "name": "OwnableInvalidOwner",
      "type": "error"
    },
    {
      "inputs": [
        {
          "internalType": "address",
          "name": "account",
          "type": "address"
        }
      ],
      "name": "OwnableUnauthorizedAccount",
      "type": "error"
    },
    {
      "inputs": [
        {
          "internalType": "uint8",
          "name": "bits",
          "type": "uint8"
        },
        {
          "internalType": "uint256",
          "name": "value",
          "type": "uint256"
        }
      ],
      "name": "SafeCastOverflowedUintDowncast",
      "type": "error"
    },
    {
      "inputs": [
        {
          "internalType": "address",
          "name": "token",
          "type": "address"
        }
      ],
      "name": "SafeERC20FailedOperation",
      "type": "error"
    },
    {
      "anonymous": false,
      "inputs": [
        {
          "indexed": true,
          "internalType": "address",
          "name": "token",
          "type": "address"
        },
        {
          "indexed": false,
          "internalType": "uint256",
          "name": "amount",
          "type": "uint256"
        }
      ],
      "name": "ERC20Released",
      "type": "event"
    },
    {
      "anonymous": false,
      "inputs": [
        {
          "indexed": false,
          "internalType": "uint256",
          "name": "amount",
          "type": "uint256"
        }
      ],
      "name": "EtherReleased",
      "type": "event"
    },
    {
      "anonymous": false,
      "inputs": [
        {
          "indexed": true,
          "internalType": "address",
          "name": "previousOwner",
          "type": "address"
        },
        {
          "indexed": true,
          "internalType": "address",
          "name": "newOwner",
          "type": "address"
        }
      ],
      "name": "OwnershipTransferred",
      "type": "event"
    },
    {
      "inputs": [],
      "name": "cliff",
      "outputs": [
        {
          "internalType": "uint256",
          "name": "",
          "type": "uint256"
        }
      ],
      "stateMutability": "view",
      "type": "function"
    },
    {
      "inputs": [],
      "name": "duration",
      "outputs": [
        {
          "internalType": "uint256",
          "name": "",
          "type": "uint256"
        }
      ],
      "stateMutability": "view",
      "type": "function"
    },
    {
      "inputs": [],
      "name": "end",
      "outputs": [
        {
          "internalType": "uint256",
          "name": "",
          "type": "uint256"
        }
      ],
      "stateMutability": "view",
      "type": "function"
    },
    {
      "inputs": [],
      "name": "owner",
      "outputs": [
        {
          "internalType": "address",
          "name": "",
          "type": "address"
        }
      ],
      "stateMutability": "view",
      "type": "function"
    },
    {
      "inputs": [
        {
          "internalType": "address",
          "name": "token",
          "type": "address"
        }
      ],
      "name": "releasable",
      "outputs": [
        {
          "internalType": "uint256",
          "name": "",
          "type": "uint256"
        }
      ],
      "stateMutability": "view",
      "type": "function"
    },
    {
      "inputs": [],
      "name": "releasable",
      "outputs": [
        {
          "internalType": "uint256",
          "name": "",
          "type": "uint256"
        }
      ],
      "stateMutability": "view",
      "type": "function"
    },
    {
      "inputs": [
        {
          "internalType": "address",
          "name": "token",
          "type": "address"
        }
      ],
      "name": "release",
      "outputs": [],
      "stateMutability": "nonpayable",
      "type": "function"
    },
    {
      "inputs": [],
      "name": "release",
      "outputs": [],
      "stateMutability": "nonpayable",
      "type": "function"
    },
    {
      "inputs": [],
      "name": "released",
      "outputs": [
        {
          "internalType": "uint256",
          "name": "",
          "type": "uint256"
        }
      ],
      "stateMutability": "view",
      "type": "function"
    },
    {
      "inputs": [
        {
          "internalType": "address",
          "name": "token",
          "type": "address"
        }
      ],
      "name": "released",
      "outputs": [
        {
          "internalType": "uint256",
          "name": "",
          "type": "uint256"
        }
      ],
      "stateMutability": "view",
      "type": "function"
    },
    {
      "inputs": [],
      "name": "renounceOwnership",
      "outputs": [],
      "stateMutability": "nonpayable",
      "type": "function"
    },
    {
      "inputs": [],
      "name": "start",
      "outputs": [
        {
          "internalType": "uint256",
          "name": "",
          "type": "uint256"
        }
      ],
      "stateMutability": "view",
      "type": "function"
    },
    {
      "inputs": [
        {
          "internalType": "address",
          "name": "newOwner",
          "type": "address"
        }
      ],
      "name": "transferOwnership",
      "outputs": [],
      "stateMutability": "nonpayable",
      "type": "function"
    },
    {
      "inputs": [
        {
          "internalType": "uint64",
          "name": "timestamp",
          "type": "uint64"
        }
      ],
      "name": "vestedAmount",
      "outputs": [
        {
          "internalType": "uint256",
          "name": "",
          "type": "uint256"
        }
      ],
      "stateMutability": "view",
      "type": "function"
    },
    {
      "inputs": [
        {
          "internalType": "address",
          "name": "token",
          "type": "address"
        },
        {
          "internalType": "uint64",
          "name": "timestamp",
          "type": "uint64"
        }
      ],
      "name": "vestedAmount",
      "outputs": [
        {
          "internalType": "uint256",
          "name": "",
          "type": "uint256"
        }
      ],
      "stateMutability": "view",
      "type": "function"
    },
    {
      "stateMutability": "payable",
      "type": "receive"
    }
  ],
  "bytecode": "0x60e06040523480156200001157600080fd5b5060405162001815380380620018158339818101604052810190620000379190620003cd565b8084848482600073ffffffffffffffffffffffffffffffffffffffff168173ffffffffffffffffffffffffffffffffffffffff1603620000b15760006040517f1e4fbdf7000000000000000000000000000000000000000000000000000000008152600401620000a8919062000450565b60405180910390fd5b620000c281620001d360201b60201c565b508167ffffffffffffffff1660808167ffffffffffffffff16815250508067ffffffffffffffff1660a08167ffffffffffffffff16815250505050506200010e6200029760201b60201c565b8167ffffffffffffffff16111562000180578062000141620001356200029760201b60201c565b620002ab60201b60201c565b6040517f3be3ef50000000000000000000000000000000000000000000000000000000008152600401620001779291906200047e565b60405180910390fd5b80620001a1620001956200030a60201b60201c565b620002ab60201b60201c565b620001ad9190620004da565b67ffffffffffffffff1660c08167ffffffffffffffff16815250505050505050620005bf565b60008060009054906101000a900473ffffffffffffffffffffffffffffffffffffffff169050816000806101000a81548173ffffffffffffffffffffffffffffffffffffffff021916908373ffffffffffffffffffffffffffffffffffffffff1602179055508173ffffffffffffffffffffffffffffffffffffffff168173ffffffffffffffffffffffffffffffffffffffff167f8be0079c531659141344cd1fd0a4f28419497f9722a3daafe3b4186f6b6457e060405160405180910390a35050565b600060a05167ffffffffffffffff16905090565b600067ffffffffffffffff801682111562000302576040826040517f6dfcc650000000000000000000000000000000000000000000000000000000008152600401620002f992919062000592565b60405180910390fd5b819050919050565b600060805167ffffffffffffffff16905090565b600080fd5b600073ffffffffffffffffffffffffffffffffffffffff82169050919050565b6000620003508262000323565b9050919050565b620003628162000343565b81146200036e57600080fd5b50565b600081519050620003828162000357565b92915050565b600067ffffffffffffffff82169050919050565b620003a78162000388565b8114620003b357600080fd5b50565b600081519050620003c7816200039c565b92915050565b60008060008060808587031215620003ea57620003e96200031e565b5b6000620003fa8782880162000371565b94505060206200040d87828801620003b6565b93505060406200042087828801620003b6565b92505060606200043387828801620003b6565b91505092959194509250565b6200044a8162000343565b82525050565b60006020820190506200046760008301846200043f565b92915050565b620004788162000388565b82525050565b60006040820190506200049560008301856200046d565b620004a460208301846200046d565b9392505050565b7f4e487b7100000000000000000000000000000000000000000000000000000000600052601160045260246000fd5b6000620004e78262000388565b9150620004f48362000388565b9250828201905067ffffffffffffffff811115620005175762000516620004ab565b5b92915050565b6000819050919050565b600060ff82169050919050565b6000819050919050565b60006200055f6200055962000553846200051d565b62000534565b62000527565b9050919050565b62000571816200053e565b82525050565b6000819050919050565b6200058c8162000577565b82525050565b6000604082019050620005a9600083018562000566565b620005b8602083018462000581565b9392505050565b60805160a05160c051611226620005ef60003960006103f4015260006103c2015260006106b301526112266000f3fe6080604052600436106100ec5760003560e01c80638da5cb5b1161008a578063be9a655511610059578063be9a6555146102ef578063efbe1c1c1461031a578063f2fde38b14610345578063fbccedae1461036e576100f3565b80638da5cb5b1461021f578063961325211461024a5780639852595c14610275578063a3f8eace146102b2576100f3565b806319165587116100c6578063191655871461018b578063715018a6146101b4578063810ec23b146101cb57806386d1a69f14610208576100f3565b80630a17b06b146100f85780630fb5a6b41461013557806313d033c014610160576100f3565b366100f357005b600080fd5b34801561010457600080fd5b5061011f600480360381019061011a9190610db7565b610399565b60405161012c9190610dfd565b60405180910390f35b34801561014157600080fd5b5061014a6103be565b6040516101579190610dfd565b60405180910390f35b34801561016c57600080fd5b506101756103f0565b6040516101829190610dfd565b60405180910390f35b34801561019757600080fd5b506101b260048036038101906101ad9190610e76565b610422565b005b3480156101c057600080fd5b506101c96104e9565b005b3480156101d757600080fd5b506101f260048036038101906101ed9190610ea3565b6104fd565b6040516101ff9190610dfd565b60405180910390f35b34801561021457600080fd5b5061021d61059d565b005b34801561022b57600080fd5b5061023461060d565b6040516102419190610ef2565b60405180910390f35b34801561025657600080fd5b5061025f610636565b60405161026c9190610dfd565b60405180910390f35b34801561028157600080fd5b5061029c60048036038101906102979190610e76565b610640565b6040516102a99190610dfd565b60405180910390f35b3480156102be57600080fd5b506102d960048036038101906102d49190610e76565b610689565b6040516102e69190610dfd565b60405180910390f35b3480156102fb57600080fd5b506103046106af565b6040516103119190610dfd565b60405180910390f35b34801561032657600080fd5b5061032f6106e1565b60405161033c9190610dfd565b60405180910390f35b34801561035157600080fd5b5061036c60048036038101906103679190610e76565b610702565b005b34801561037a57600080fd5b50610383610788565b6040516103909190610dfd565b60405180910390f35b60006103b76103a6610636565b476103b19190610f3c565b836107aa565b9050919050565b60007f000000000000000000000000000000000000000000000000000000000000000067ffffffffffffffff16905090565b60007f000000000000000000000000000000000000000000000000000000000000000067ffffffffffffffff16905090565b600061042d82610689565b905080600260008473ffffffffffffffffffffffffffffffffffffffff1673ffffffffffffffffffffffffffffffffffffffff168152602001908152602001600020600082825461047e9190610f3c565b925050819055508173ffffffffffffffffffffffffffffffffffffffff167fc0e523490dd523c33b1878c9eb14ff46991e3f5b2cd33710918618f2a39cba1b826040516104cb9190610dfd565b60405180910390a26104e5826104df61060d565b836107de565b5050565b6104f161085d565b6104fb60006108e4565b565b600061059561050b84610640565b8473ffffffffffffffffffffffffffffffffffffffff166370a08231306040518263ffffffff1660e01b81526004016105449190610ef2565b602060405180830381865afa158015610561573d6000803e3d6000fd5b505050506040513d601f19601f820116820180604052508101906105859190610f9c565b61058f9190610f3c565b836107aa565b905092915050565b60006105a7610788565b905080600160008282546105bb9190610f3c565b925050819055507fda9d4e5f101b8b9b1c5b76d0c5a9f7923571acfc02376aa076b75a8c080c956b816040516105f19190610dfd565b60405180910390a161060a61060461060d565b826109a8565b50565b60008060009054906101000a900473ffffffffffffffffffffffffffffffffffffffff16905090565b6000600154905090565b6000600260008373ffffffffffffffffffffffffffffffffffffffff1673ffffffffffffffffffffffffffffffffffffffff168152602001908152602001600020549050919050565b600061069482610640565b61069e83426104fd565b6106a89190610fc9565b9050919050565b60007f000000000000000000000000000000000000000000000000000000000000000067ffffffffffffffff16905090565b60006106eb6103be565b6106f36106af565b6106fd9190610f3c565b905090565b61070a61085d565b600073ffffffffffffffffffffffffffffffffffffffff168173ffffffffffffffffffffffffffffffffffffffff160361077c5760006040517f1e4fbdf70000000000000000000000000000000000000000000000000000000081526004016107739190610ef2565b60405180910390fd5b610785816108e4565b50565b6000610792610636565b61079b42610399565b6107a59190610fc9565b905090565b60006107b46103f0565b8267ffffffffffffffff16106107d3576107ce8383610a95565b6107d6565b60005b905092915050565b610858838473ffffffffffffffffffffffffffffffffffffffff1663a9059cbb8585604051602401610811929190610ffd565b604051602081830303815290604052915060e01b6020820180517bffffffffffffffffffffffffffffffffffffffffffffffffffffffff8381831617835250505050610b1c565b505050565b610865610bb3565b73ffffffffffffffffffffffffffffffffffffffff1661088361060d565b73ffffffffffffffffffffffffffffffffffffffff16146108e2576108a6610bb3565b6040517f118cdaa70000000000000000000000000000000000000000000000000000000081526004016108d99190610ef2565b60405180910390fd5b565b60008060009054906101000a900473ffffffffffffffffffffffffffffffffffffffff169050816000806101000a81548173ffffffffffffffffffffffffffffffffffffffff021916908373ffffffffffffffffffffffffffffffffffffffff1602179055508173ffffffffffffffffffffffffffffffffffffffff168173ffffffffffffffffffffffffffffffffffffffff167f8be0079c531659141344cd1fd0a4f28419497f9722a3daafe3b4186f6b6457e060405160405180910390a35050565b804710156109ed57306040517fcd7860590000000000000000000000000000000000000000000000000000000081526004016109e49190610ef2565b60405180910390fd5b60008273ffffffffffffffffffffffffffffffffffffffff1682604051610a1390611057565b60006040518083038185875af1925050503d8060008114610a50576040519150601f19603f3d011682016040523d82523d6000602084013e610a55565b606091505b5050905080610a90576040517f1425ea4200000000000000000000000000000000000000000000000000000000815260040160405180910390fd5b505050565b6000610a9f6106af565b8267ffffffffffffffff161015610ab95760009050610b16565b610ac16106e1565b8267ffffffffffffffff1610610ad957829050610b16565b610ae16103be565b610ae96106af565b8367ffffffffffffffff16610afe9190610fc9565b84610b09919061106c565b610b1391906110dd565b90505b92915050565b6000610b47828473ffffffffffffffffffffffffffffffffffffffff16610bbb90919063ffffffff16565b90506000815114158015610b6c575080806020019051810190610b6a9190611146565b155b15610bae57826040517f5274afe7000000000000000000000000000000000000000000000000000000008152600401610ba59190610ef2565b60405180910390fd5b505050565b600033905090565b6060610bc983836000610bd1565b905092915050565b606081471015610c1857306040517fcd786059000000000000000000000000000000000000000000000000000000008152600401610c0f9190610ef2565b60405180910390fd5b6000808573ffffffffffffffffffffffffffffffffffffffff168486604051610c4191906111d9565b60006040518083038185875af1925050503d8060008114610c7e576040519150601f19603f3d011682016040523d82523d6000602084013e610c83565b606091505b5091509150610c93868383610c9e565b925050509392505050565b606082610cb357610cae82610d2d565b610d25565b60008251148015610cdb575060008473ffffffffffffffffffffffffffffffffffffffff163b145b15610d1d57836040517f9996b315000000000000000000000000000000000000000000000000000000008152600401610d149190610ef2565b60405180910390fd5b819050610d26565b5b9392505050565b600081511115610d405780518082602001fd5b6040517f1425ea4200000000000000000000000000000000000000000000000000000000815260040160405180910390fd5b600080fd5b600067ffffffffffffffff82169050919050565b610d9481610d77565b8114610d9f57600080fd5b50565b600081359050610db181610d8b565b92915050565b600060208284031215610dcd57610dcc610d72565b5b6000610ddb84828501610da2565b91505092915050565b6000819050919050565b610df781610de4565b82525050565b6000602082019050610e126000830184610dee565b92915050565b600073ffffffffffffffffffffffffffffffffffffffff82169050919050565b6000610e4382610e18565b9050919050565b610e5381610e38565b8114610e5e57600080fd5b50565b600081359050610e7081610e4a565b92915050565b600060208284031215610e8c57610e8b610d72565b5b6000610e9a84828501610e61565b91505092915050565b60008060408385031215610eba57610eb9610d72565b5b6000610ec885828601610e61565b9250506020610ed985828601610da2565b9150509250929050565b610eec81610e38565b82525050565b6000602082019050610f076000830184610ee3565b92915050565b7f4e487b7100000000000000000000000000000000000000000000000000000000600052601160045260246000fd5b6000610f4782610de4565b9150610f5283610de4565b9250828201905080821115610f6a57610f69610f0d565b5b92915050565b610f7981610de4565b8114610f8457600080fd5b50565b600081519050610f9681610f70565b92915050565b600060208284031215610fb257610fb1610d72565b5b6000610fc084828501610f87565b91505092915050565b6000610fd482610de4565b9150610fdf83610de4565b9250828203905081811115610ff757610ff6610f0d565b5b92915050565b60006040820190506110126000830185610ee3565b61101f6020830184610dee565b9392505050565b600081905092915050565b50565b6000611041600083611026565b915061104c82611031565b600082019050919050565b600061106282611034565b9150819050919050565b600061107782610de4565b915061108283610de4565b925082820261109081610de4565b915082820484148315176110a7576110a6610f0d565b5b5092915050565b7f4e487b7100000000000000000000000000000000000000000000000000000000600052601260045260246000fd5b60006110e882610de4565b91506110f383610de4565b925082611103576111026110ae565b5b828204905092915050565b60008115159050919050565b6111238161110e565b811461112e57600080fd5b50565b6000815190506111408161111a565b92915050565b60006020828403121561115c5761115b610d72565b5b600061116a84828501611131565b91505092915050565b600081519050919050565b60005b8381101561119c578082015181840152602081019050611181565b60008484015250505050565b60006111b382611173565b6111bd8185611026565b93506111cd81856020860161117e565b80840191505092915050565b60006111e582846111a8565b91508190509291505056fea2646970667358221220aa28310c10f774f380d3f254eb1d7a6a675e9f6727cc4981d234a026676206f564736f6c63430008180033",
  "linkReferences": {},
  "deployedLinkReferences": {}
}