{"contracts/tax/ZeroTaxHandler.sol":{"ZeroTaxHandler":{"abi":[{"inputs":[{"internalType":"address","name":"benefactor","type":"address"},{"internalType":"address","name":"beneficiary","type":"address"},{"internalType":"uint256","name":"amount","type":"uint256"}],"name":"getTax","outputs":[{"internalType":"uint256","name":"","type":"uint256"}],"stateMutability":"pure","type":"function"}],"evm":{"bytecode":{"linkReferences":{},"object":"608060405234801561001057600080fd5b506101b5806100206000396000f3fe608060405234801561001057600080fd5b506004361061002b5760003560e01c8063d7ad21ac14610030575b600080fd5b61004a60048036038101906100459190610102565b610060565b6040516100579190610164565b60405180910390f35b60009392505050565b600080fd5b600073ffffffffffffffffffffffffffffffffffffffff82169050919050565b60006100998261006e565b9050919050565b6100a98161008e565b81146100b457600080fd5b50565b6000813590506100c6816100a0565b92915050565b6000819050919050565b6100df816100cc565b81146100ea57600080fd5b50565b6000813590506100fc816100d6565b92915050565b60008060006060848603121561011b5761011a610069565b5b6000610129868287016100b7565b935050602061013a868287016100b7565b925050604061014b868287016100ed565b9150509250925092565b61015e816100cc565b82525050565b60006020820190506101796000830184610155565b9291505056fea264697066735822122081432332bcf05e96ad28b19a3f3b8a91654b4cca8f0ef48672ca48291cd4513464736f6c63430008180033","opcodes":"PUSH1 0x80 PUSH1 0x40 MSTORE CALLVALUE DUP1 ISZERO PUSH2 0x10 JUMPI PUSH1 0x0 DUP1 REVERT JUMPDEST POP PUSH2 0x1B5 DUP1 PUSH2 0x20 PUSH1 0x0 CODECOPY PUSH1 0x0 RETURN INVALID PUSH1 0x80 PUSH1 0x40 MSTORE CALLVALUE DUP1 ISZERO PUSH2 0x10 JUMPI PUSH1 0x0 DUP1 REVERT JUMPDEST POP PUSH1 0x4 CALLDATASIZE LT PUSH2 0x2B JUMPI PUSH1 0x0 CALLDATALOAD PUSH1 0xE0 SHR DUP1 PUSH4 0xD7AD21AC EQ PUSH2 0x30 JUMPI JUMPDEST PUSH1 0x0 DUP1 REVERT JUMPDEST PUSH2 0x4A PUSH1 0x4 DUP1 CALLDATASIZE SUB DUP2 ADD SWAP1 PUSH2 0x45 SWAP2 SWAP1 PUSH2 0x102 JUMP JUMPDEST PUSH2 0x60 JUMP JUMPDEST PUSH1 0x40 MLOAD PUSH2 0x57 SWAP2 SWAP1 PUSH2 0x164 JUMP JUMPDEST PUSH1 0x40 MLOAD DUP1 SWAP2 SUB SWAP1 RETURN JUMPDEST PUSH1 0x0 SWAP4 SWAP3 POP POP POP JUMP JUMPDEST PUSH1 0x0 DUP1 REVERT JUMPDEST PUSH1 0x0 PUSH20 0xFFFFFFFFFFFFFFFFFFFFFFFFFFFFFFFFFFFFFFFF DUP3 AND SWAP1 POP SWAP2 SWAP1 POP JUMP JUMPDEST PUSH1 0x0 PUSH2 0x99 DUP3 PUSH2 0x6E JUMP JUMPDEST SWAP1 POP SWAP2 SWAP1 POP JUMP JUMPDEST PUSH2 0xA9 DUP2 PUSH2 0x8E JUMP JUMPDEST DUP2 EQ PUSH2 0xB4 JUMPI PUSH1 0x0 DUP1 REVERT JUMPDEST POP JUMP JUMPDEST PUSH1 0x0 DUP2 CALLDATALOAD SWAP1 POP PUSH2 0xC6 DUP2 PUSH2 0xA0 JUMP JUMPDEST SWAP3 SWAP2 POP POP JUMP JUMPDEST PUSH1 0x0 DUP2 SWAP1 POP SWAP2 SWAP1 POP JUMP JUMPDEST PUSH2 0xDF DUP2 PUSH2 0xCC JUMP JUMPDEST DUP2 EQ PUSH2 0xEA JUMPI PUSH1 0x0 DUP1 REVERT JUMPDEST POP JUMP JUMPDEST PUSH1 0x0 DUP2 CALLDATALOAD SWAP1 POP PUSH2 0xFC DUP2 PUSH2 0xD6 JUMP JUMPDEST SWAP3 SWAP2 POP POP JUMP JUMPDEST PUSH1 0x0 DUP1 PUSH1 0x0 PUSH1 0x60 DUP5 DUP7 SUB SLT ISZERO PUSH2 0x11B JUMPI PUSH2 0x11A PUSH2 0x69 JUMP JUMPDEST JUMPDEST PUSH1 0x0 PUSH2 0x129 DUP7 DUP3 DUP8 ADD PUSH2 0xB7 JUMP JUMPDEST SWAP4 POP POP PUSH1 0x20 PUSH2 0x13A DUP7 DUP3 DUP8 ADD PUSH2 0xB7 JUMP JUMPDEST SWAP3 POP POP PUSH1 0x40 PUSH2 0x14B DUP7 DUP3 DUP8 ADD PUSH2 0xED JUMP JUMPDEST SWAP2 POP POP SWAP3 POP SWAP3 POP SWAP3 JUMP JUMPDEST PUSH2 0x15E DUP2 PUSH2 0xCC JUMP JUMPDEST DUP3 MSTORE POP POP JUMP JUMPDEST PUSH1 0x0 PUSH1 0x20 DUP3 ADD SWAP1 POP PUSH2 0x179 PUSH1 0x0 DUP4 ADD DUP5 PUSH2 0x155 JUMP JUMPDEST SWAP3 SWAP2 POP POP JUMP INVALID LOG2 PUSH5 0x6970667358 0x22 SLT KECCAK256 DUP2 NUMBER 0x23 ORIGIN 0xBC CREATE MCOPY SWAP7 0xAD 0x28 0xB1 SWAP11 EXTCODEHASH EXTCODESIZE DUP11 SWAP2 PUSH6 0x4B4CCA8F0EF4 DUP7 PUSH19 0xCA48291CD4513464736F6C6343000818003300 "},"methodIdentifiers":{"getTax(address,address,uint256)":"d7ad21ac"}}}}}