{
  "_format": "hh-sol-artifact-1",
  "contractName": "ZeroTaxHandler",
  "sourceName": "contracts/tax/ZeroTaxHandler.sol",
  "abi": [
    {
      "inputs": [
        {
          "internalType": "address",
          "name": "benefactor",
          "type": "address"
        },
        {
          "internalType": "address",
          "name": "beneficiary",
          "type": "address"
        },
        {
          "internalType": "uint256",
          "name": "amount",
          "type": "uint256"
        }
      ],
      "name": "getTax",
      "outputs": [
        {
          "internalType": "uint256",
          "name": "",
          "type": "uint256"
        }
      ],
      "stateMutability": "pure",
      "type": "function"
    }
  ],
  "bytecode": "0x608060405234801561001057600080fd5b506101b5806100206000396000f3fe608060405234801561001057600080fd5b506004361061002b5760003560e01c8063d7ad21ac14610030575b600080fd5b61004a60048036038101906100459190610102565b610060565b6040516100579190610164565b60405180910390f35b60009392505050565b600080fd5b600073ffffffffffffffffffffffffffffffffffffffff82169050919050565b60006100998261006e565b9050919050565b6100a98161008e565b81146100b457600080fd5b50565b6000813590506100c6816100a0565b92915050565b6000819050919050565b6100df816100cc565b81146100ea57600080fd5b50565b6000813590506100fc816100d6565b92915050565b60008060006060848603121561011b5761011a610069565b5b6000610129868287016100b7565b935050602061013a868287016100b7565b925050604061014b868287016100ed565b9150509250925092565b61015e816100cc565b82525050565b60006020820190506101796000830184610155565b9291505056fea264697066735822122081432332bcf05e96ad28b19a3f3b8a91654b4cca8f0ef48672ca48291cd4513464736f6c63430008180033",
  "linkReferences": {},
  "deployedLinkReferences": {}
}