{
  "_format": "hh-sol-artifact-1",
  "contractName": "StaticTaxHandler",
  "sourceName": "contracts/tax/StaticTaxHandler.sol",
  "abi": [
    {
      "inputs": [
        {
          "internalType": "address",
          "name": "initialOwner",
          "type": "address"
        },
        {
          "internalType": "uint256",
          "name": "initialTaxPercentage",
          "type": "uint256"
        }
      ],
      "stateMutability": "nonpayable",
      "type": "constructor"
    },
    {
      "inputs": [
        {
          "internalType": "address",
          "name": "owner",
          "type": "address"
        }
      ],
      "name": "OwnableInvalidOwner",
      "type": "error"
    },
    {
      "inputs": [
        {
          "internalType": "address",
          "name": "account",
          "type": "address"
        }
      ],
      "name": "OwnableUnauthorizedAccount",
      "type": "error"
    },
    {
      "anonymous": false,
      "inputs": [
        {
          "indexed": true,
          "internalType": "address",
          "name": "previousOwner",
          "type": "address"
        },
        {
          "indexed": true,
          "internalType": "address",
          "name": "newOwner",
          "type": "address"
        }
      ],
      "name": "OwnershipTransferred",
      "type": "event"
    },
    {
      "anonymous": false,
      "inputs": [
        {
          "indexed": true,
          "internalType": "address",
          "name": "wallet",
          "type": "address"
        },
        {
          "indexed": false,
          "internalType": "bool",
          "name": "exempted",
          "type": "bool"
        }
      ],
      "name": "TaxExemptionUpdated",
      "type": "event"
    },
    {
      "anonymous": false,
      "inputs": [
        {
          "indexed": false,
          "internalType": "uint256",
          "name": "oldTaxPercentage",
          "type": "uint256"
        },
        {
          "indexed": false,
          "internalType": "uint256",
          "name": "newTaxPercentage",
          "type": "uint256"
        }
      ],
      "name": "TaxPercentageUpdated",
      "type": "event"
    },
    {
      "inputs": [
        {
          "internalType": "address",
          "name": "exemption",
          "type": "address"
        }
      ],
      "name": "addExemption",
      "outputs": [],
      "stateMutability": "nonpayable",
      "type": "function"
    },
    {
      "inputs": [
        {
          "internalType": "address",
          "name": "benefactor",
          "type": "address"
        },
        {
          "internalType": "address",
          "name": "beneficiary",
          "type": "address"
        },
        {
          "internalType": "uint256",
          "name": "amount",
          "type": "uint256"
        }
      ],
      "name": "getTax",
      "outputs": [
        {
          "internalType": "uint256",
          "name": "",
          "type": "uint256"
        }
      ],
      "stateMutability": "view",
      "type": "function"
    },
    {
      "inputs": [],
      "name": "owner",
      "outputs": [
        {
          "internalType": "address",
          "name": "",
          "type": "address"
        }
      ],
      "stateMutability": "view",
      "type": "function"
    },
    {
      "inputs": [
        {
          "internalType": "address",
          "name": "exemption",
          "type": "address"
        }
      ],
      "name": "removeExemption",
      "outputs": [],
      "stateMutability": "nonpayable",
      "type": "function"
    },
    {
      "inputs": [],
      "name": "renounceOwnership",
      "outputs": [],
      "stateMutability": "nonpayable",
      "type": "function"
    },
    {
      "inputs": [
        {
          "internalType": "uint256",
          "name": "newTaxPercentage",
          "type": "uint256"
        }
      ],
      "name": "setTaxPercentage",
      "outputs": [],
      "stateMutability": "nonpayable",
      "type": "function"
    },
    {
      "inputs": [],
      "name": "taxPercentage",
      "outputs": [
        {
          "internalType": "uint256",
          "name": "",
          "type": "uint256"
        }
      ],
      "stateMutability": "view",
      "type": "function"
    },
    {
      "inputs": [
        {
          "internalType": "address",
          "name": "newOwner",
          "type": "address"
        }
      ],
      "name": "transferOwnership",
      "outputs": [],
      "stateMutability": "nonpayable",
      "type": "function"
    }
  ],
  "bytecode": "0x60806040523480156200001157600080fd5b5060405162000e7238038062000e72833981810160405281019062000037919062000237565b81600073ffffffffffffffffffffffffffffffffffffffff168173ffffffffffffffffffffffffffffffffffffffff1603620000ad5760006040517f1e4fbdf7000000000000000000000000000000000000000000000000000000008152600401620000a491906200028f565b60405180910390fd5b620000be81620000ce60201b60201c565b50806003819055505050620002ac565b60008060009054906101000a900473ffffffffffffffffffffffffffffffffffffffff169050816000806101000a81548173ffffffffffffffffffffffffffffffffffffffff021916908373ffffffffffffffffffffffffffffffffffffffff1602179055508173ffffffffffffffffffffffffffffffffffffffff168173ffffffffffffffffffffffffffffffffffffffff167f8be0079c531659141344cd1fd0a4f28419497f9722a3daafe3b4186f6b6457e060405160405180910390a35050565b600080fd5b600073ffffffffffffffffffffffffffffffffffffffff82169050919050565b6000620001c48262000197565b9050919050565b620001d681620001b7565b8114620001e257600080fd5b50565b600081519050620001f681620001cb565b92915050565b6000819050919050565b6200021181620001fc565b81146200021d57600080fd5b50565b600081519050620002318162000206565b92915050565b6000806040838503121562000251576200025062000192565b5b60006200026185828601620001e5565b9250506020620002748582860162000220565b9150509250929050565b6200028981620001b7565b82525050565b6000602082019050620002a660008301846200027e565b92915050565b610bb680620002bc6000396000f3fe608060405234801561001057600080fd5b50600436106100885760003560e01c80638da5cb5b1161005b5780638da5cb5b146100eb578063ae7b6d1614610109578063d7ad21ac14610127578063f2fde38b1461015757610088565b80630ed9cc4c1461008d578063699abb3c146100a9578063705931fa146100c5578063715018a6146100e1575b600080fd5b6100a760048036038101906100a2919061080a565b610173565b005b6100c360048036038101906100be919061086d565b6101e7565b005b6100df60048036038101906100da919061080a565b61027d565b005b6100e96102f1565b005b6100f3610305565b60405161010091906108a9565b60405180910390f35b61011161032e565b60405161011e91906108d3565b60405180910390f35b610141600480360381019061013c91906108ee565b610334565b60405161014e91906108d3565b60405180910390f35b610171600480360381019061016c919061080a565b610397565b005b61017b61041d565b61018f8160016104a490919063ffffffff16565b156101e4578073ffffffffffffffffffffffffffffffffffffffff167f36ee46fa09c2419f7bcf8135c2bdd56bc882be141cb075961717003bed74367d60006040516101db919061095c565b60405180910390a25b50565b6101ef61041d565b60008110610232576040517f08c379a0000000000000000000000000000000000000000000000000000000008152600401610229906109d4565b60405180910390fd5b60006003549050816003819055507f4953fbf85b1bef649a55e328880dc688093c62b90bc90dec0ffcb6a1c5cce0a581836040516102719291906109f4565b60405180910390a15050565b61028561041d565b6102998160016104d490919063ffffffff16565b156102ee578073ffffffffffffffffffffffffffffffffffffffff167f36ee46fa09c2419f7bcf8135c2bdd56bc882be141cb075961717003bed74367d60016040516102e5919061095c565b60405180910390a25b50565b6102f961041d565b6103036000610504565b565b60008060009054906101000a900473ffffffffffffffffffffffffffffffffffffffff16905090565b60035481565b600061034a8460016105c890919063ffffffff16565b8061036557506103648360016105c890919063ffffffff16565b5b156103735760009050610390565b6064600354836103839190610a4c565b61038d9190610abd565b90505b9392505050565b61039f61041d565b600073ffffffffffffffffffffffffffffffffffffffff168173ffffffffffffffffffffffffffffffffffffffff16036104115760006040517f1e4fbdf700000000000000000000000000000000000000000000000000000000815260040161040891906108a9565b60405180910390fd5b61041a81610504565b50565b6104256105f8565b73ffffffffffffffffffffffffffffffffffffffff16610443610305565b73ffffffffffffffffffffffffffffffffffffffff16146104a2576104666105f8565b6040517f118cdaa700000000000000000000000000000000000000000000000000000000815260040161049991906108a9565b60405180910390fd5b565b60006104cc836000018373ffffffffffffffffffffffffffffffffffffffff1660001b610600565b905092915050565b60006104fc836000018373ffffffffffffffffffffffffffffffffffffffff1660001b610714565b905092915050565b60008060009054906101000a900473ffffffffffffffffffffffffffffffffffffffff169050816000806101000a81548173ffffffffffffffffffffffffffffffffffffffff021916908373ffffffffffffffffffffffffffffffffffffffff1602179055508173ffffffffffffffffffffffffffffffffffffffff168173ffffffffffffffffffffffffffffffffffffffff167f8be0079c531659141344cd1fd0a4f28419497f9722a3daafe3b4186f6b6457e060405160405180910390a35050565b60006105f0836000018373ffffffffffffffffffffffffffffffffffffffff1660001b610784565b905092915050565b600033905090565b600080836001016000848152602001908152602001600020549050600081146107085760006001826106329190610aee565b905060006001866000018054905061064a9190610aee565b90508082146106b957600086600001828154811061066b5761066a610b22565b5b906000526020600020015490508087600001848154811061068f5761068e610b22565b5b90600052602060002001819055508387600101600083815260200190815260200160002081905550505b856000018054806106cd576106cc610b51565b5b60019003818190600052602060002001600090559055856001016000868152602001908152602001600020600090556001935050505061070e565b60009150505b92915050565b60006107208383610784565b61077957826000018290806001815401808255809150506001900390600052602060002001600090919091909150558260000180549050836001016000848152602001908152602001600020819055506001905061077e565b600090505b92915050565b600080836001016000848152602001908152602001600020541415905092915050565b600080fd5b600073ffffffffffffffffffffffffffffffffffffffff82169050919050565b60006107d7826107ac565b9050919050565b6107e7816107cc565b81146107f257600080fd5b50565b600081359050610804816107de565b92915050565b6000602082840312156108205761081f6107a7565b5b600061082e848285016107f5565b91505092915050565b6000819050919050565b61084a81610837565b811461085557600080fd5b50565b60008135905061086781610841565b92915050565b600060208284031215610883576108826107a7565b5b600061089184828501610858565b91505092915050565b6108a3816107cc565b82525050565b60006020820190506108be600083018461089a565b92915050565b6108cd81610837565b82525050565b60006020820190506108e860008301846108c4565b92915050565b600080600060608486031215610907576109066107a7565b5b6000610915868287016107f5565b9350506020610926868287016107f5565b925050604061093786828701610858565b9150509250925092565b60008115159050919050565b61095681610941565b82525050565b6000602082019050610971600083018461094d565b92915050565b600082825260208201905092915050565b7f496e76616c69642056616c75652e000000000000000000000000000000000000600082015250565b60006109be600e83610977565b91506109c982610988565b602082019050919050565b600060208201905081810360008301526109ed816109b1565b9050919050565b6000604082019050610a0960008301856108c4565b610a1660208301846108c4565b9392505050565b7f4e487b7100000000000000000000000000000000000000000000000000000000600052601160045260246000fd5b6000610a5782610837565b9150610a6283610837565b9250828202610a7081610837565b91508282048414831517610a8757610a86610a1d565b5b5092915050565b7f4e487b7100000000000000000000000000000000000000000000000000000000600052601260045260246000fd5b6000610ac882610837565b9150610ad383610837565b925082610ae357610ae2610a8e565b5b828204905092915050565b6000610af982610837565b9150610b0483610837565b9250828203905081811115610b1c57610b1b610a1d565b5b92915050565b7f4e487b7100000000000000000000000000000000000000000000000000000000600052603260045260246000fd5b7f4e487b7100000000000000000000000000000000000000000000000000000000600052603160045260246000fdfea2646970667358221220a1e8075ad8fc17d9ebe5335b8afde056e21c67771d16515e6e61752e3c046ec464736f6c63430008180033",
  "linkReferences": {},
  "deployedLinkReferences": {}
}