{
  "_format": "hh-sol-artifact-1",
  "contractName": "StaticTaxHandler",
  "sourceName": "contracts/tax/StaticTaxHandler.sol",
  "abi": [
    {
      "inputs": [
        {
          "internalType": "address",
          "name": "initialOwner",
          "type": "address"
        },
        {
          "internalType": "uint256",
          "name": "initialTaxPercentage",
          "type": "uint256"
        }
      ],
      "stateMutability": "nonpayable",
      "type": "constructor"
    },
    {
      "inputs": [
        {
          "internalType": "address",
          "name": "owner",
          "type": "address"
        }
      ],
      "name": "OwnableInvalidOwner",
      "type": "error"
    },
    {
      "inputs": [
        {
          "internalType": "address",
          "name": "account",
          "type": "address"
        }
      ],
      "name": "OwnableUnauthorizedAccount",
      "type": "error"
    },
    {
      "anonymous": false,
      "inputs": [
        {
          "indexed": true,
          "internalType": "address",
          "name": "previousOwner",
          "type": "address"
        },
        {
          "indexed": true,
          "internalType": "address",
          "name": "newOwner",
          "type": "address"
        }
      ],
      "name": "OwnershipTransferred",
      "type": "event"
    },
    {
      "anonymous": false,
      "inputs": [
        {
          "indexed": true,
          "internalType": "address",
          "name": "wallet",
          "type": "address"
        },
        {
          "indexed": false,
          "internalType": "bool",
          "name": "exempted",
          "type": "bool"
        }
      ],
      "name": "TaxExemptionUpdated",
      "type": "event"
    },
    {
      "anonymous": false,
      "inputs": [
        {
          "indexed": false,
          "internalType": "uint256",
          "name": "oldTaxPercentage",
          "type": "uint256"
        },
        {
          "indexed": false,
          "internalType": "uint256",
          "name": "newTaxPercentage",
          "type": "uint256"
        }
      ],
      "name": "TaxPercentageUpdated",
      "type": "event"
    },
    {
      "inputs": [
        {
          "internalType": "address",
          "name": "exemption",
          "type": "address"
        }
      ],
      "name": "addExemption",
      "outputs": [],
      "stateMutability": "nonpayable",
      "type": "function"
    },
    {
      "inputs": [
        {
          "internalType": "address",
          "name": "benefactor",
          "type": "address"
        },
        {
          "internalType": "address",
          "name": "beneficiary",
          "type": "address"
        },
        {
          "internalType": "uint256",
          "name": "amount",
          "type": "uint256"
        }
      ],
      "name": "getTax",
      "outputs": [
        {
          "internalType": "uint256",
          "name": "",
          "type": "uint256"
        }
      ],
      "stateMutability": "view",
      "type": "function"
    },
    {
      "inputs": [],
      "name": "owner",
      "outputs": [
        {
          "internalType": "address",
          "name": "",
          "type": "address"
        }
      ],
      "stateMutability": "view",
      "type": "function"
    },
    {
      "inputs": [
        {
          "internalType": "address",
          "name": "exemption",
          "type": "address"
        }
      ],
      "name": "removeExemption",
      "outputs": [],
      "stateMutability": "nonpayable",
      "type": "function"
    },
    {
      "inputs": [],
      "name": "renounceOwnership",
      "outputs": [],
      "stateMutability": "nonpayable",
      "type": "function"
    },
    {
      "inputs": [
        {
          "internalType": "uint256",
          "name": "newTaxPercentage",
          "type": "uint256"
        }
      ],
      "name": "setTaxPercentage",
      "outputs": [],
      "stateMutability": "nonpayable",
      "type": "function"
    },
    {
      "inputs": [],
      "name": "taxPercentage",
      "outputs": [
        {
          "internalType": "uint256",
          "name": "",
          "type": "uint256"
        }
      ],
      "stateMutability": "view",
      "type": "function"
    },
    {
      "inputs": [
        {
          "internalType": "address",
          "name": "newOwner",
          "type": "address"
        }
      ],
      "name": "transferOwnership",
      "outputs": [],
      "stateMutability": "nonpayable",
      "type": "function"
    }
  ],
  "bytecode": "0x60806040523480156200001157600080fd5b5060405162000e7638038062000e76833981810160405281019062000037919062000237565b81600073ffffffffffffffffffffffffffffffffffffffff168173ffffffffffffffffffffffffffffffffffffffff1603620000ad5760006040517f1e4fbdf7000000000000000000000000000000000000000000000000000000008152600401620000a491906200028f565b60405180910390fd5b620000be81620000ce60201b60201c565b50806003819055505050620002ac565b60008060009054906101000a900473ffffffffffffffffffffffffffffffffffffffff169050816000806101000a81548173ffffffffffffffffffffffffffffffffffffffff021916908373ffffffffffffffffffffffffffffffffffffffff1602179055508173ffffffffffffffffffffffffffffffffffffffff168173ffffffffffffffffffffffffffffffffffffffff167f8be0079c531659141344cd1fd0a4f28419497f9722a3daafe3b4186f6b6457e060405160405180910390a35050565b600080fd5b600073ffffffffffffffffffffffffffffffffffffffff82169050919050565b6000620001c48262000197565b9050919050565b620001d681620001b7565b8114620001e257600080fd5b50565b600081519050620001f681620001cb565b92915050565b6000819050919050565b6200021181620001fc565b81146200021d57600080fd5b50565b600081519050620002318162000206565b92915050565b6000806040838503121562000251576200025062000192565b5b60006200026185828601620001e5565b9250506020620002748582860162000220565b9150509250929050565b6200028981620001b7565b82525050565b6000602082019050620002a660008301846200027e565b92915050565b610bba80620002bc6000396000f3fe608060405234801561001057600080fd5b50600436106100885760003560e01c80638da5cb5b1161005b5780638da5cb5b146100eb578063ae7b6d1614610109578063d7ad21ac14610127578063f2fde38b1461015757610088565b80630ed9cc4c1461008d578063699abb3c146100a9578063705931fa146100c5578063715018a6146100e1575b600080fd5b6100a760048036038101906100a2919061080e565b610173565b005b6100c360048036038101906100be9190610871565b6101e7565b005b6100df60048036038101906100da919061080e565b61027e565b005b6100e96102f2565b005b6100f3610306565b60405161010091906108ad565b60405180910390f35b61011161032f565b60405161011e91906108d7565b60405180910390f35b610141600480360381019061013c91906108f2565b610335565b60405161014e91906108d7565b60405180910390f35b610171600480360381019061016c919061080e565b61039b565b005b61017b610421565b61018f8160016104a890919063ffffffff16565b156101e4578073ffffffffffffffffffffffffffffffffffffffff167f36ee46fa09c2419f7bcf8135c2bdd56bc882be141cb075961717003bed74367d60006040516101db9190610960565b60405180910390a25b50565b6101ef610421565b6000811015610233576040517f08c379a000000000000000000000000000000000000000000000000000000000815260040161022a906109d8565b60405180910390fd5b60006003549050816003819055507f4953fbf85b1bef649a55e328880dc688093c62b90bc90dec0ffcb6a1c5cce0a581836040516102729291906109f8565b60405180910390a15050565b610286610421565b61029a8160016104d890919063ffffffff16565b156102ef578073ffffffffffffffffffffffffffffffffffffffff167f36ee46fa09c2419f7bcf8135c2bdd56bc882be141cb075961717003bed74367d60016040516102e69190610960565b60405180910390a25b50565b6102fa610421565b6103046000610508565b565b60008060009054906101000a900473ffffffffffffffffffffffffffffffffffffffff16905090565b60035481565b600061034b8460016105cc90919063ffffffff16565b8061036657506103658360016105cc90919063ffffffff16565b5b156103745760009050610394565b6305f5e100600354836103879190610a50565b6103919190610ac1565b90505b9392505050565b6103a3610421565b600073ffffffffffffffffffffffffffffffffffffffff168173ffffffffffffffffffffffffffffffffffffffff16036104155760006040517f1e4fbdf700000000000000000000000000000000000000000000000000000000815260040161040c91906108ad565b60405180910390fd5b61041e81610508565b50565b6104296105fc565b73ffffffffffffffffffffffffffffffffffffffff16610447610306565b73ffffffffffffffffffffffffffffffffffffffff16146104a65761046a6105fc565b6040517f118cdaa700000000000000000000000000000000000000000000000000000000815260040161049d91906108ad565b60405180910390fd5b565b60006104d0836000018373ffffffffffffffffffffffffffffffffffffffff1660001b610604565b905092915050565b6000610500836000018373ffffffffffffffffffffffffffffffffffffffff1660001b610718565b905092915050565b60008060009054906101000a900473ffffffffffffffffffffffffffffffffffffffff169050816000806101000a81548173ffffffffffffffffffffffffffffffffffffffff021916908373ffffffffffffffffffffffffffffffffffffffff1602179055508173ffffffffffffffffffffffffffffffffffffffff168173ffffffffffffffffffffffffffffffffffffffff167f8be0079c531659141344cd1fd0a4f28419497f9722a3daafe3b4186f6b6457e060405160405180910390a35050565b60006105f4836000018373ffffffffffffffffffffffffffffffffffffffff1660001b610788565b905092915050565b600033905090565b6000808360010160008481526020019081526020016000205490506000811461070c5760006001826106369190610af2565b905060006001866000018054905061064e9190610af2565b90508082146106bd57600086600001828154811061066f5761066e610b26565b5b906000526020600020015490508087600001848154811061069357610692610b26565b5b90600052602060002001819055508387600101600083815260200190815260200160002081905550505b856000018054806106d1576106d0610b55565b5b600190038181906000526020600020016000905590558560010160008681526020019081526020016000206000905560019350505050610712565b60009150505b92915050565b60006107248383610788565b61077d578260000182908060018154018082558091505060019003906000526020600020016000909190919091505582600001805490508360010160008481526020019081526020016000208190555060019050610782565b600090505b92915050565b600080836001016000848152602001908152602001600020541415905092915050565b600080fd5b600073ffffffffffffffffffffffffffffffffffffffff82169050919050565b60006107db826107b0565b9050919050565b6107eb816107d0565b81146107f657600080fd5b50565b600081359050610808816107e2565b92915050565b600060208284031215610824576108236107ab565b5b6000610832848285016107f9565b91505092915050565b6000819050919050565b61084e8161083b565b811461085957600080fd5b50565b60008135905061086b81610845565b92915050565b600060208284031215610887576108866107ab565b5b60006108958482850161085c565b91505092915050565b6108a7816107d0565b82525050565b60006020820190506108c2600083018461089e565b92915050565b6108d18161083b565b82525050565b60006020820190506108ec60008301846108c8565b92915050565b60008060006060848603121561090b5761090a6107ab565b5b6000610919868287016107f9565b935050602061092a868287016107f9565b925050604061093b8682870161085c565b9150509250925092565b60008115159050919050565b61095a81610945565b82525050565b60006020820190506109756000830184610951565b92915050565b600082825260208201905092915050565b7f496e76616c69642056616c75652e000000000000000000000000000000000000600082015250565b60006109c2600e8361097b565b91506109cd8261098c565b602082019050919050565b600060208201905081810360008301526109f1816109b5565b9050919050565b6000604082019050610a0d60008301856108c8565b610a1a60208301846108c8565b9392505050565b7f4e487b7100000000000000000000000000000000000000000000000000000000600052601160045260246000fd5b6000610a5b8261083b565b9150610a668361083b565b9250828202610a748161083b565b91508282048414831517610a8b57610a8a610a21565b5b5092915050565b7f4e487b7100000000000000000000000000000000000000000000000000000000600052601260045260246000fd5b6000610acc8261083b565b9150610ad78361083b565b925082610ae757610ae6610a92565b5b828204905092915050565b6000610afd8261083b565b9150610b088361083b565b9250828203905081811115610b2057610b1f610a21565b5b92915050565b7f4e487b7100000000000000000000000000000000000000000000000000000000600052603260045260246000fd5b7f4e487b7100000000000000000000000000000000000000000000000000000000600052603160045260246000fdfea2646970667358221220b9f270ebed06f3162f42763d9cd64693c4c11af59dc4857acdd522f93087634164736f6c63430008180033",
  "linkReferences": {},
  "deployedLinkReferences": {}
}