{
  "_format": "hh-sol-artifact-1",
  "contractName": "AraraCoin",
  "sourceName": "contracts/AraraCoin.sol",
  "abi": [
    {
      "inputs": [
        {
          "internalType": "address",
          "name": "initialOwner",
          "type": "address"
        },
        {
          "internalType": "address",
          "name": "taxHandlerAddress",
          "type": "address"
        },
        {
          "internalType": "address",
          "name": "preservationProjectsVestingContract",
          "type": "address"
        }
      ],
      "stateMutability": "nonpayable",
      "type": "constructor"
    },
    {
      "inputs": [],
      "name": "ECDSAInvalidSignature",
      "type": "error"
    },
    {
      "inputs": [
        {
          "internalType": "uint256",
          "name": "length",
          "type": "uint256"
        }
      ],
      "name": "ECDSAInvalidSignatureLength",
      "type": "error"
    },
    {
      "inputs": [
        {
          "internalType": "bytes32",
          "name": "s",
          "type": "bytes32"
        }
      ],
      "name": "ECDSAInvalidSignatureS",
      "type": "error"
    },
    {
      "inputs": [
        {
          "internalType": "address",
          "name": "spender",
          "type": "address"
        },
        {
          "internalType": "uint256",
          "name": "allowance",
          "type": "uint256"
        },
        {
          "internalType": "uint256",
          "name": "needed",
          "type": "uint256"
        }
      ],
      "name": "ERC20InsufficientAllowance",
      "type": "error"
    },
    {
      "inputs": [
        {
          "internalType": "address",
          "name": "sender",
          "type": "address"
        },
        {
          "internalType": "uint256",
          "name": "balance",
          "type": "uint256"
        },
        {
          "internalType": "uint256",
          "name": "needed",
          "type": "uint256"
        }
      ],
      "name": "ERC20InsufficientBalance",
      "type": "error"
    },
    {
      "inputs": [
        {
          "internalType": "address",
          "name": "approver",
          "type": "address"
        }
      ],
      "name": "ERC20InvalidApprover",
      "type": "error"
    },
    {
      "inputs": [
        {
          "internalType": "address",
          "name": "receiver",
          "type": "address"
        }
      ],
      "name": "ERC20InvalidReceiver",
      "type": "error"
    },
    {
      "inputs": [
        {
          "internalType": "address",
          "name": "sender",
          "type": "address"
        }
      ],
      "name": "ERC20InvalidSender",
      "type": "error"
    },
    {
      "inputs": [
        {
          "internalType": "address",
          "name": "spender",
          "type": "address"
        }
      ],
      "name": "ERC20InvalidSpender",
      "type": "error"
    },
    {
      "inputs": [
        {
          "internalType": "uint256",
          "name": "deadline",
          "type": "uint256"
        }
      ],
      "name": "ERC2612ExpiredSignature",
      "type": "error"
    },
    {
      "inputs": [
        {
          "internalType": "address",
          "name": "signer",
          "type": "address"
        },
        {
          "internalType": "address",
          "name": "owner",
          "type": "address"
        }
      ],
      "name": "ERC2612InvalidSigner",
      "type": "error"
    },
    {
      "inputs": [
        {
          "internalType": "address",
          "name": "account",
          "type": "address"
        },
        {
          "internalType": "uint256",
          "name": "currentNonce",
          "type": "uint256"
        }
      ],
      "name": "InvalidAccountNonce",
      "type": "error"
    },
    {
      "inputs": [],
      "name": "InvalidShortString",
      "type": "error"
    },
    {
      "inputs": [
        {
          "internalType": "address",
          "name": "owner",
          "type": "address"
        }
      ],
      "name": "OwnableInvalidOwner",
      "type": "error"
    },
    {
      "inputs": [
        {
          "internalType": "address",
          "name": "account",
          "type": "address"
        }
      ],
      "name": "OwnableUnauthorizedAccount",
      "type": "error"
    },
    {
      "inputs": [
        {
          "internalType": "string",
          "name": "str",
          "type": "string"
        }
      ],
      "name": "StringTooLong",
      "type": "error"
    },
    {
      "anonymous": false,
      "inputs": [
        {
          "indexed": true,
          "internalType": "address",
          "name": "owner",
          "type": "address"
        },
        {
          "indexed": true,
          "internalType": "address",
          "name": "spender",
          "type": "address"
        },
        {
          "indexed": false,
          "internalType": "uint256",
          "name": "value",
          "type": "uint256"
        }
      ],
      "name": "Approval",
      "type": "event"
    },
    {
      "anonymous": false,
      "inputs": [],
      "name": "EIP712DomainChanged",
      "type": "event"
    },
    {
      "anonymous": false,
      "inputs": [
        {
          "indexed": true,
          "internalType": "address",
          "name": "previousOwner",
          "type": "address"
        },
        {
          "indexed": true,
          "internalType": "address",
          "name": "newOwner",
          "type": "address"
        }
      ],
      "name": "OwnershipTransferred",
      "type": "event"
    },
    {
      "anonymous": false,
      "inputs": [
        {
          "indexed": false,
          "internalType": "address",
          "name": "oldAddress",
          "type": "address"
        },
        {
          "indexed": false,
          "internalType": "address",
          "name": "newAddress",
          "type": "address"
        }
      ],
      "name": "TaxHandlerChanged",
      "type": "event"
    },
    {
      "anonymous": false,
      "inputs": [
        {
          "indexed": false,
          "internalType": "address",
          "name": "oldAddress",
          "type": "address"
        },
        {
          "indexed": false,
          "internalType": "address",
          "name": "newAddress",
          "type": "address"
        }
      ],
      "name": "TaxWalletChanged",
      "type": "event"
    },
    {
      "anonymous": false,
      "inputs": [],
      "name": "TradingEnabled",
      "type": "event"
    },
    {
      "anonymous": false,
      "inputs": [
        {
          "indexed": true,
          "internalType": "address",
          "name": "from",
          "type": "address"
        },
        {
          "indexed": true,
          "internalType": "address",
          "name": "to",
          "type": "address"
        },
        {
          "indexed": false,
          "internalType": "uint256",
          "name": "value",
          "type": "uint256"
        }
      ],
      "name": "Transfer",
      "type": "event"
    },
    {
      "inputs": [],
      "name": "DOMAIN_SEPARATOR",
      "outputs": [
        {
          "internalType": "bytes32",
          "name": "",
          "type": "bytes32"
        }
      ],
      "stateMutability": "view",
      "type": "function"
    },
    {
      "inputs": [
        {
          "internalType": "address[]",
          "name": "allowedAddresses",
          "type": "address[]"
        }
      ],
      "name": "addCanTrade",
      "outputs": [],
      "stateMutability": "nonpayable",
      "type": "function"
    },
    {
      "inputs": [
        {
          "internalType": "address",
          "name": "owner",
          "type": "address"
        },
        {
          "internalType": "address",
          "name": "spender",
          "type": "address"
        }
      ],
      "name": "allowance",
      "outputs": [
        {
          "internalType": "uint256",
          "name": "",
          "type": "uint256"
        }
      ],
      "stateMutability": "view",
      "type": "function"
    },
    {
      "inputs": [
        {
          "internalType": "address",
          "name": "spender",
          "type": "address"
        },
        {
          "internalType": "uint256",
          "name": "value",
          "type": "uint256"
        }
      ],
      "name": "approve",
      "outputs": [
        {
          "internalType": "bool",
          "name": "",
          "type": "bool"
        }
      ],
      "stateMutability": "nonpayable",
      "type": "function"
    },
    {
      "inputs": [],
      "name": "auditWallet",
      "outputs": [
        {
          "internalType": "address",
          "name": "",
          "type": "address"
        }
      ],
      "stateMutability": "view",
      "type": "function"
    },
    {
      "inputs": [
        {
          "internalType": "address",
          "name": "account",
          "type": "address"
        }
      ],
      "name": "balanceOf",
      "outputs": [
        {
          "internalType": "uint256",
          "name": "",
          "type": "uint256"
        }
      ],
      "stateMutability": "view",
      "type": "function"
    },
    {
      "inputs": [],
      "name": "companyVestingWallet",
      "outputs": [
        {
          "internalType": "address",
          "name": "",
          "type": "address"
        }
      ],
      "stateMutability": "view",
      "type": "function"
    },
    {
      "inputs": [],
      "name": "consultingWallet",
      "outputs": [
        {
          "internalType": "address",
          "name": "",
          "type": "address"
        }
      ],
      "stateMutability": "view",
      "type": "function"
    },
    {
      "inputs": [],
      "name": "decimals",
      "outputs": [
        {
          "internalType": "uint8",
          "name": "",
          "type": "uint8"
        }
      ],
      "stateMutability": "view",
      "type": "function"
    },
    {
      "inputs": [],
      "name": "eip712Domain",
      "outputs": [
        {
          "internalType": "bytes1",
          "name": "fields",
          "type": "bytes1"
        },
        {
          "internalType": "string",
          "name": "name",
          "type": "string"
        },
        {
          "internalType": "string",
          "name": "version",
          "type": "string"
        },
        {
          "internalType": "uint256",
          "name": "chainId",
          "type": "uint256"
        },
        {
          "internalType": "address",
          "name": "verifyingContract",
          "type": "address"
        },
        {
          "internalType": "bytes32",
          "name": "salt",
          "type": "bytes32"
        },
        {
          "internalType": "uint256[]",
          "name": "extensions",
          "type": "uint256[]"
        }
      ],
      "stateMutability": "view",
      "type": "function"
    },
    {
      "inputs": [],
      "name": "enableTrading",
      "outputs": [],
      "stateMutability": "nonpayable",
      "type": "function"
    },
    {
      "inputs": [],
      "name": "foundersVestingWallet",
      "outputs": [
        {
          "internalType": "address",
          "name": "",
          "type": "address"
        }
      ],
      "stateMutability": "view",
      "type": "function"
    },
    {
      "inputs": [],
      "name": "investorsWallet",
      "outputs": [
        {
          "internalType": "address",
          "name": "",
          "type": "address"
        }
      ],
      "stateMutability": "view",
      "type": "function"
    },
    {
      "inputs": [],
      "name": "investorsYearOneVestingWallet",
      "outputs": [
        {
          "internalType": "address",
          "name": "",
          "type": "address"
        }
      ],
      "stateMutability": "view",
      "type": "function"
    },
    {
      "inputs": [],
      "name": "investorsYearTwoVestingWallet",
      "outputs": [
        {
          "internalType": "address",
          "name": "",
          "type": "address"
        }
      ],
      "stateMutability": "view",
      "type": "function"
    },
    {
      "inputs": [],
      "name": "launchWallet",
      "outputs": [
        {
          "internalType": "address",
          "name": "",
          "type": "address"
        }
      ],
      "stateMutability": "view",
      "type": "function"
    },
    {
      "inputs": [],
      "name": "marketingWallet",
      "outputs": [
        {
          "internalType": "address",
          "name": "",
          "type": "address"
        }
      ],
      "stateMutability": "view",
      "type": "function"
    },
    {
      "inputs": [],
      "name": "name",
      "outputs": [
        {
          "internalType": "string",
          "name": "",
          "type": "string"
        }
      ],
      "stateMutability": "view",
      "type": "function"
    },
    {
      "inputs": [
        {
          "internalType": "address",
          "name": "owner",
          "type": "address"
        }
      ],
      "name": "nonces",
      "outputs": [
        {
          "internalType": "uint256",
          "name": "",
          "type": "uint256"
        }
      ],
      "stateMutability": "view",
      "type": "function"
    },
    {
      "inputs": [],
      "name": "owner",
      "outputs": [
        {
          "internalType": "address",
          "name": "",
          "type": "address"
        }
      ],
      "stateMutability": "view",
      "type": "function"
    },
    {
      "inputs": [
        {
          "internalType": "address",
          "name": "owner",
          "type": "address"
        },
        {
          "internalType": "address",
          "name": "spender",
          "type": "address"
        },
        {
          "internalType": "uint256",
          "name": "value",
          "type": "uint256"
        },
        {
          "internalType": "uint256",
          "name": "deadline",
          "type": "uint256"
        },
        {
          "internalType": "uint8",
          "name": "v",
          "type": "uint8"
        },
        {
          "internalType": "bytes32",
          "name": "r",
          "type": "bytes32"
        },
        {
          "internalType": "bytes32",
          "name": "s",
          "type": "bytes32"
        }
      ],
      "name": "permit",
      "outputs": [],
      "stateMutability": "nonpayable",
      "type": "function"
    },
    {
      "inputs": [],
      "name": "preSaleWallet",
      "outputs": [
        {
          "internalType": "address",
          "name": "",
          "type": "address"
        }
      ],
      "stateMutability": "view",
      "type": "function"
    },
    {
      "inputs": [],
      "name": "preservationProjectsVestingWallet",
      "outputs": [
        {
          "internalType": "address",
          "name": "",
          "type": "address"
        }
      ],
      "stateMutability": "view",
      "type": "function"
    },
    {
      "inputs": [],
      "name": "renounceOwnership",
      "outputs": [],
      "stateMutability": "nonpayable",
      "type": "function"
    },
    {
      "inputs": [
        {
          "internalType": "address",
          "name": "taxHandlerAddress",
          "type": "address"
        }
      ],
      "name": "setTaxHandler",
      "outputs": [],
      "stateMutability": "nonpayable",
      "type": "function"
    },
    {
      "inputs": [
        {
          "internalType": "address",
          "name": "taxWalletAddress",
          "type": "address"
        }
      ],
      "name": "setTaxWallet",
      "outputs": [],
      "stateMutability": "nonpayable",
      "type": "function"
    },
    {
      "inputs": [],
      "name": "symbol",
      "outputs": [
        {
          "internalType": "string",
          "name": "",
          "type": "string"
        }
      ],
      "stateMutability": "view",
      "type": "function"
    },
    {
      "inputs": [],
      "name": "taxHandler",
      "outputs": [
        {
          "internalType": "contract ITaxHandler",
          "name": "",
          "type": "address"
        }
      ],
      "stateMutability": "view",
      "type": "function"
    },
    {
      "inputs": [],
      "name": "taxWallet",
      "outputs": [
        {
          "internalType": "address",
          "name": "",
          "type": "address"
        }
      ],
      "stateMutability": "view",
      "type": "function"
    },
    {
      "inputs": [],
      "name": "teamVestingWallet",
      "outputs": [
        {
          "internalType": "address",
          "name": "",
          "type": "address"
        }
      ],
      "stateMutability": "view",
      "type": "function"
    },
    {
      "inputs": [],
      "name": "totalSupply",
      "outputs": [
        {
          "internalType": "uint256",
          "name": "",
          "type": "uint256"
        }
      ],
      "stateMutability": "view",
      "type": "function"
    },
    {
      "inputs": [],
      "name": "tradingEnabled",
      "outputs": [
        {
          "internalType": "bool",
          "name": "",
          "type": "bool"
        }
      ],
      "stateMutability": "view",
      "type": "function"
    },
    {
      "inputs": [
        {
          "internalType": "address",
          "name": "to",
          "type": "address"
        },
        {
          "internalType": "uint256",
          "name": "value",
          "type": "uint256"
        }
      ],
      "name": "transfer",
      "outputs": [
        {
          "internalType": "bool",
          "name": "",
          "type": "bool"
        }
      ],
      "stateMutability": "nonpayable",
      "type": "function"
    },
    {
      "inputs": [
        {
          "internalType": "address",
          "name": "from",
          "type": "address"
        },
        {
          "internalType": "address",
          "name": "to",
          "type": "address"
        },
        {
          "internalType": "uint256",
          "name": "value",
          "type": "uint256"
        }
      ],
      "name": "transferFrom",
      "outputs": [
        {
          "internalType": "bool",
          "name": "",
          "type": "bool"
        }
      ],
      "stateMutability": "nonpayable",
      "type": "function"
    },
    {
      "inputs": [
        {
          "internalType": "address",
          "name": "newOwner",
          "type": "address"
        }
      ],
      "name": "transferOwnership",
      "outputs": [],
      "stateMutability": "nonpayable",
      "type": "function"
    }
  ],
  "bytecode": "0x6101606040527323618e81e3f5cdf7f54c3d65f7fbc0abf5b21e8f600960006101000a81548173ffffffffffffffffffffffffffffffffffffffff021916908373ffffffffffffffffffffffffffffffffffffffff16021790555073a0ee7a142d267c1f36714e4a8f75612f20a79720600a60006101000a81548173ffffffffffffffffffffffffffffffffffffffff021916908373ffffffffffffffffffffffffffffffffffffffff1602179055507370997970c51812dc3a010c7d01b50e0d17dc79c8600b60006101000a81548173ffffffffffffffffffffffffffffffffffffffff021916908373ffffffffffffffffffffffffffffffffffffffff160217905550733c44cdddb6a900fa2b585dd299e03d12fa4293bc600c60006101000a81548173ffffffffffffffffffffffffffffffffffffffff021916908373ffffffffffffffffffffffffffffffffffffffff1602179055507390f79bf6eb2c4f870365e785982e1f101e93b906600d60006101000a81548173ffffffffffffffffffffffffffffffffffffffff021916908373ffffffffffffffffffffffffffffffffffffffff1602179055507315d34aaf54267db7d7c367839aaf71a00a2c6a65600e60006101000a81548173ffffffffffffffffffffffffffffffffffffffff021916908373ffffffffffffffffffffffffffffffffffffffff1602179055507371be63f3384f5fb98995898a86b02fb2426c5788600f60006101000a81548173ffffffffffffffffffffffffffffffffffffffff021916908373ffffffffffffffffffffffffffffffffffffffff16021790555073fabb0ac9d68b0b445fb7357272ff202c5651694a601060006101000a81548173ffffffffffffffffffffffffffffffffffffffff021916908373ffffffffffffffffffffffffffffffffffffffff160217905550739965507d1a55bcc2695c58ba16fb37d819b0a4dc601160006101000a81548173ffffffffffffffffffffffffffffffffffffffff021916908373ffffffffffffffffffffffffffffffffffffffff160217905550731cbd3b2770909d4e10f157cabc84c7264073c9ec601260006101000a81548173ffffffffffffffffffffffffffffffffffffffff021916908373ffffffffffffffffffffffffffffffffffffffff16021790555073df3e18d64bc6a983f673ab319ccae4f1a57c7097601360006101000a81548173ffffffffffffffffffffffffffffffffffffffff021916908373ffffffffffffffffffffffffffffffffffffffff16021790555073976ea74026e726554db657fa54763abd0c3a0aa9601460006101000a81548173ffffffffffffffffffffffffffffffffffffffff021916908373ffffffffffffffffffffffffffffffffffffffff16021790555073bda5747bfd65f08deb54cb465eb87d40e51b197e601560006101000a81548173ffffffffffffffffffffffffffffffffffffffff021916908373ffffffffffffffffffffffffffffffffffffffff1602179055503480156200046357600080fd5b506040516200490638038062004906833981810160405281019062000489919062001345565b826040518060400160405280600981526020017f4172617261636f696e0000000000000000000000000000000000000000000000815250806040518060400160405280600181526020017f31000000000000000000000000000000000000000000000000000000000000008152506040518060400160405280600981526020017f4172617261636f696e00000000000000000000000000000000000000000000008152506040518060400160405280600581526020017f415241524100000000000000000000000000000000000000000000000000000081525081600390816200057491906200161b565b5080600490816200058691906200161b565b5050506200059f60058362000a9a60201b90919060201c565b6101208181525050620005bd60068262000a9a60201b90919060201c565b6101408181525050818051906020012060e08181525050808051906020012061010081815250504660a08181525050620005fc62000af260201b60201c565b608081815250503073ffffffffffffffffffffffffffffffffffffffff1660c08173ffffffffffffffffffffffffffffffffffffffff1681525050505050600073ffffffffffffffffffffffffffffffffffffffff168173ffffffffffffffffffffffffffffffffffffffff1603620006af5760006040517f1e4fbdf7000000000000000000000000000000000000000000000000000000008152600401620006a6919062001713565b60405180910390fd5b620006c08162000b4f60201b60201c565b5081601660006101000a81548173ffffffffffffffffffffffffffffffffffffffff021916908373ffffffffffffffffffffffffffffffffffffffff160217905550620007196000601762000c1560201b90919060201c565b506200073083601762000c1560201b90919060201c565b5062000750336c01431e0fae6d7217caa000000062000c4d60201b60201c565b6200079133600960009054906101000a900473ffffffffffffffffffffffffffffffffffffffff166b09b18ab5df7180b6b800000062000cda60201b60201c565b620007d233600a60009054906101000a900473ffffffffffffffffffffffffffffffffffffffff166b0409f9cbc7c4a04c2200000062000cda60201b60201c565b6200081333600b60009054906101000a900473ffffffffffffffffffffffffffffffffffffffff166b026c62ad77dc602dae00000062000cda60201b60201c565b6200087133600c60009054906101000a900473ffffffffffffffffffffffffffffffffffffffff166064600a6c01431e0fae6d7217caa00000006200085991906200175f565b620008659190620017d9565b62000cda60201b60201c565b620008cf33600d60009054906101000a900473ffffffffffffffffffffffffffffffffffffffff16606460146c01431e0fae6d7217caa0000000620008b791906200175f565b620008c39190620017d9565b62000cda60201b60201c565b6200091033600e60009054906101000a900473ffffffffffffffffffffffffffffffffffffffff166b1431e0fae6d7217caa00000062000cda60201b60201c565b6200095133600f60009054906101000a900473ffffffffffffffffffffffffffffffffffffffff166b1431e0fae6d7217caa00000062000cda60201b60201c565b6200099233601060009054906101000a900473ffffffffffffffffffffffffffffffffffffffff166b2863c1f5cdae42f95400000062000cda60201b60201c565b620009d333601360009054906101000a900473ffffffffffffffffffffffffffffffffffffffff166b1f04ef12cb04cf158000000062000cda60201b60201c565b62000a1433601260009054906101000a900473ffffffffffffffffffffffffffffffffffffffff166b121836204bc2ce21e000000062000cda60201b60201c565b62000a5533601160009054906101000a900473ffffffffffffffffffffffffffffffffffffffff166b0f8277896582678ac000000062000cda60201b60201c565b62000a913382606460146c01431e0fae6d7217caa000000062000a7991906200175f565b62000a859190620017d9565b62000cda60201b60201c565b50505062001bd1565b600060208351101562000ac05762000ab88362000ddc60201b60201c565b905062000aec565b8262000ad28362000e4960201b60201c565b600001908162000ae391906200161b565b5060ff60001b90505b92915050565b60007f8b73c3c69bb8fe3d512ecc4cf759cc79239f7b179b0ffacaa9a75d522b39400f60e05161010051463060405160200162000b349594939291906200183d565b60405160208183030381529060405280519060200120905090565b6000600860009054906101000a900473ffffffffffffffffffffffffffffffffffffffff16905081600860006101000a81548173ffffffffffffffffffffffffffffffffffffffff021916908373ffffffffffffffffffffffffffffffffffffffff1602179055508173ffffffffffffffffffffffffffffffffffffffff168173ffffffffffffffffffffffffffffffffffffffff167f8be0079c531659141344cd1fd0a4f28419497f9722a3daafe3b4186f6b6457e060405160405180910390a35050565b600062000c45836000018373ffffffffffffffffffffffffffffffffffffffff1660001b62000e5360201b60201c565b905092915050565b600073ffffffffffffffffffffffffffffffffffffffff168273ffffffffffffffffffffffffffffffffffffffff160362000cc25760006040517fec442f0500000000000000000000000000000000000000000000000000000000815260040162000cb9919062001713565b60405180910390fd5b62000cd66000838362000ecd60201b60201c565b5050565b600073ffffffffffffffffffffffffffffffffffffffff168373ffffffffffffffffffffffffffffffffffffffff160362000d4f5760006040517f96c6fd1e00000000000000000000000000000000000000000000000000000000815260040162000d46919062001713565b60405180910390fd5b600073ffffffffffffffffffffffffffffffffffffffff168273ffffffffffffffffffffffffffffffffffffffff160362000dc45760006040517fec442f0500000000000000000000000000000000000000000000000000000000815260040162000dbb919062001713565b60405180910390fd5b62000dd783838362000ecd60201b60201c565b505050565b600080829050601f8151111562000e2c57826040517f305a27a900000000000000000000000000000000000000000000000000000000815260040162000e23919062001929565b60405180910390fd5b80518162000e3a906200197f565b60001c1760001b915050919050565b6000819050919050565b600062000e6783836200105060201b60201c565b62000ec257826000018290806001815401808255809150506001900390600052602060002001600090919091909150558260000180549050836001016000848152602001908152602001600020819055506001905062000ec7565b600090505b92915050565b601660149054906101000a900460ff1662000f3b5762000ef88360176200107360201b90919060201c565b62000f3a576040517f08c379a000000000000000000000000000000000000000000000000000000000815260040162000f319062001a3f565b60405180910390fd5b5b6000601660009054906101000a900473ffffffffffffffffffffffffffffffffffffffff1673ffffffffffffffffffffffffffffffffffffffff1663d7ad21ac8585856040518463ffffffff1660e01b815260040162000f9e9392919062001a61565b602060405180830381865afa15801562000fbc573d6000803e3d6000fd5b505050506040513d601f19601f8201168201806040525081019062000fe2919062001acf565b90506000818362000ff4919062001b01565b9050600082111562001036576200103585601560009054906101000a900473ffffffffffffffffffffffffffffffffffffffff1684620010ab60201b60201c565b5b62001049858583620010ab60201b60201c565b5050505050565b600080836001016000848152602001908152602001600020541415905092915050565b6000620010a3836000018373ffffffffffffffffffffffffffffffffffffffff1660001b6200105060201b60201c565b905092915050565b600073ffffffffffffffffffffffffffffffffffffffff168373ffffffffffffffffffffffffffffffffffffffff160362001101578060026000828254620010f4919062001b3c565b92505081905550620011d7565b60008060008573ffffffffffffffffffffffffffffffffffffffff1673ffffffffffffffffffffffffffffffffffffffff1681526020019081526020016000205490508181101562001190578381836040517fe450d38c000000000000000000000000000000000000000000000000000000008152600401620011879392919062001b77565b60405180910390fd5b8181036000808673ffffffffffffffffffffffffffffffffffffffff1673ffffffffffffffffffffffffffffffffffffffff16815260200190815260200160002081905550505b600073ffffffffffffffffffffffffffffffffffffffff168273ffffffffffffffffffffffffffffffffffffffff16036200122257806002600082825403925050819055506200126f565b806000808473ffffffffffffffffffffffffffffffffffffffff1673ffffffffffffffffffffffffffffffffffffffff168152602001908152602001600020600082825401925050819055505b8173ffffffffffffffffffffffffffffffffffffffff168373ffffffffffffffffffffffffffffffffffffffff167fddf252ad1be2c89b69c2b068fc378daa952ba7f163c4a11628f55a4df523b3ef83604051620012ce919062001bb4565b60405180910390a3505050565b600080fd5b600073ffffffffffffffffffffffffffffffffffffffff82169050919050565b60006200130d82620012e0565b9050919050565b6200131f8162001300565b81146200132b57600080fd5b50565b6000815190506200133f8162001314565b92915050565b600080600060608486031215620013615762001360620012db565b5b600062001371868287016200132e565b935050602062001384868287016200132e565b925050604062001397868287016200132e565b9150509250925092565b600081519050919050565b7f4e487b7100000000000000000000000000000000000000000000000000000000600052604160045260246000fd5b7f4e487b7100000000000000000000000000000000000000000000000000000000600052602260045260246000fd5b600060028204905060018216806200142357607f821691505b602082108103620014395762001438620013db565b5b50919050565b60008190508160005260206000209050919050565b60006020601f8301049050919050565b600082821b905092915050565b600060088302620014a37fffffffffffffffffffffffffffffffffffffffffffffffffffffffffffffffff8262001464565b620014af868362001464565b95508019841693508086168417925050509392505050565b6000819050919050565b6000819050919050565b6000620014fc620014f6620014f084620014c7565b620014d1565b620014c7565b9050919050565b6000819050919050565b6200151883620014db565b62001530620015278262001503565b84845462001471565b825550505050565b600090565b6200154762001538565b620015548184846200150d565b505050565b5b818110156200157c57620015706000826200153d565b6001810190506200155a565b5050565b601f821115620015cb5762001595816200143f565b620015a08462001454565b81016020851015620015b0578190505b620015c8620015bf8562001454565b83018262001559565b50505b505050565b600082821c905092915050565b6000620015f060001984600802620015d0565b1980831691505092915050565b60006200160b8383620015dd565b9150826002028217905092915050565b6200162682620013a1565b67ffffffffffffffff811115620016425762001641620013ac565b5b6200164e82546200140a565b6200165b82828562001580565b600060209050601f8311600181146200169357600084156200167e578287015190505b6200168a8582620015fd565b865550620016fa565b601f198416620016a3866200143f565b60005b82811015620016cd57848901518255600182019150602085019450602081019050620016a6565b86831015620016ed5784890151620016e9601f891682620015dd565b8355505b6001600288020188555050505b505050505050565b6200170d8162001300565b82525050565b60006020820190506200172a600083018462001702565b92915050565b7f4e487b7100000000000000000000000000000000000000000000000000000000600052601160045260246000fd5b60006200176c82620014c7565b91506200177983620014c7565b92508282026200178981620014c7565b91508282048414831517620017a357620017a262001730565b5b5092915050565b7f4e487b7100000000000000000000000000000000000000000000000000000000600052601260045260246000fd5b6000620017e682620014c7565b9150620017f383620014c7565b925082620018065762001805620017aa565b5b828204905092915050565b6000819050919050565b620018268162001811565b82525050565b6200183781620014c7565b82525050565b600060a0820190506200185460008301886200181b565b6200186360208301876200181b565b6200187260408301866200181b565b6200188160608301856200182c565b62001890608083018462001702565b9695505050505050565b600082825260208201905092915050565b60005b83811015620018cb578082015181840152602081019050620018ae565b60008484015250505050565b6000601f19601f8301169050919050565b6000620018f582620013a1565b6200190181856200189a565b935062001913818560208601620018ab565b6200191e81620018d7565b840191505092915050565b60006020820190508181036000830152620019458184620018e8565b905092915050565b600081519050919050565b6000819050602082019050919050565b600062001976825162001811565b80915050919050565b60006200198c826200194d565b82620019988462001958565b9050620019a58162001968565b92506020821015620019e857620019e37fffffffffffffffffffffffffffffffffffffffffffffffffffffffffffffffff8360200360080262001464565b831692505b5050919050565b7f4172617261436f696e2074726164652069732064697361626c65640000000000600082015250565b600062001a27601b836200189a565b915062001a3482620019ef565b602082019050919050565b6000602082019050818103600083015262001a5a8162001a18565b9050919050565b600060608201905062001a78600083018662001702565b62001a87602083018562001702565b62001a9660408301846200182c565b949350505050565b62001aa981620014c7565b811462001ab557600080fd5b50565b60008151905062001ac98162001a9e565b92915050565b60006020828403121562001ae85762001ae7620012db565b5b600062001af88482850162001ab8565b91505092915050565b600062001b0e82620014c7565b915062001b1b83620014c7565b925082820390508181111562001b365762001b3562001730565b5b92915050565b600062001b4982620014c7565b915062001b5683620014c7565b925082820190508082111562001b715762001b7062001730565b5b92915050565b600060608201905062001b8e600083018662001702565b62001b9d60208301856200182c565b62001bac60408301846200182c565b949350505050565b600060208201905062001bcb60008301846200182c565b92915050565b60805160a05160c05160e051610100516101205161014051612cda62001c2c6000396000611532015260006114f7015260006119b701526000611996015260006112a5015260006112fb015260006113240152612cda6000f3fe608060405234801561001057600080fd5b50600436106102115760003560e01c806370a0823111610125578063a4771ea4116100ad578063d505accf1161007c578063d505accf146105ce578063dd62ed3e146105ea578063ea414b281461061a578063f2fde38b14610636578063fb3d924a1461065257610211565b8063a4771ea414610546578063a781c95414610564578063a9059cbb14610582578063ca40f1c4146105b257610211565b80637ecebe00116100f45780637ecebe00146104ac57806384b0196e146104dc5780638a8c523c146105005780638da5cb5b1461050a57806395d89b411461052857610211565b806370a0823114610436578063715018a61461046657806375f0a8741461047057806377ba82801461048e57610211565b80631fc75e41116101a85780633644e515116101775780633644e515146103a2578063488d4a51146103c05780634a3084eb146103dc5780634ada218b146103fa5780636409f5341461041857610211565b80631fc75e411461031857806323b872dd146103365780632dc0562d14610366578063313ce5671461038457610211565b806316942450116101e457806316942450146102a05780631798fb80146102be57806318160ddd146102dc5780631f640ed8146102fa57610211565b806301089b921461021657806306fdde0314610234578063095ea7b31461025257806312280ba814610282575b600080fd5b61021e610670565b60405161022b919061213d565b60405180910390f35b61023c610696565b60405161024991906121e8565b60405180910390f35b61026c60048036038101906102679190612276565b610728565b60405161027991906122d1565b60405180910390f35b61028a61074b565b604051610297919061234b565b60405180910390f35b6102a8610771565b6040516102b5919061213d565b60405180910390f35b6102c6610797565b6040516102d3919061213d565b60405180910390f35b6102e46107bd565b6040516102f19190612375565b60405180910390f35b6103026107c7565b60405161030f919061213d565b60405180910390f35b6103206107ed565b60405161032d919061213d565b60405180910390f35b610350600480360381019061034b9190612390565b610813565b60405161035d91906122d1565b60405180910390f35b61036e610842565b60405161037b919061213d565b60405180910390f35b61038c610868565b60405161039991906123ff565b60405180910390f35b6103aa610871565b6040516103b79190612433565b60405180910390f35b6103da60048036038101906103d5919061244e565b610880565b005b6103e461092c565b6040516103f1919061213d565b60405180910390f35b610402610952565b60405161040f91906122d1565b60405180910390f35b610420610965565b60405161042d919061213d565b60405180910390f35b610450600480360381019061044b919061244e565b61098b565b60405161045d9190612375565b60405180910390f35b61046e6109d3565b005b6104786109e7565b604051610485919061213d565b60405180910390f35b610496610a0d565b6040516104a3919061213d565b60405180910390f35b6104c660048036038101906104c1919061244e565b610a33565b6040516104d39190612375565b60405180910390f35b6104e4610a45565b6040516104f79796959493929190612574565b60405180910390f35b610508610aef565b005b610512610b90565b60405161051f919061213d565b60405180910390f35b610530610bba565b60405161053d91906121e8565b60405180910390f35b61054e610c4c565b60405161055b919061213d565b60405180910390f35b61056c610c72565b604051610579919061213d565b60405180910390f35b61059c60048036038101906105979190612276565b610c98565b6040516105a991906122d1565b60405180910390f35b6105cc60048036038101906105c7919061265d565b610cbb565b005b6105e860048036038101906105e39190612702565b610db5565b005b61060460048036038101906105ff91906127a4565b610efd565b6040516106119190612375565b60405180910390f35b610634600480360381019061062f919061244e565b610f84565b005b610650600480360381019061064b919061244e565b611053565b005b61065a6110d9565b604051610667919061213d565b60405180910390f35b600e60009054906101000a900473ffffffffffffffffffffffffffffffffffffffff1681565b6060600380546106a590612813565b80601f01602080910402602001604051908101604052809291908181526020018280546106d190612813565b801561071e5780601f106106f35761010080835404028352916020019161071e565b820191906000526020600020905b81548152906001019060200180831161070157829003601f168201915b5050505050905090565b6000806107336110ff565b9050610740818585611107565b600191505092915050565b601660009054906101000a900473ffffffffffffffffffffffffffffffffffffffff1681565b601060009054906101000a900473ffffffffffffffffffffffffffffffffffffffff1681565b600b60009054906101000a900473ffffffffffffffffffffffffffffffffffffffff1681565b6000600254905090565b601260009054906101000a900473ffffffffffffffffffffffffffffffffffffffff1681565b600c60009054906101000a900473ffffffffffffffffffffffffffffffffffffffff1681565b60008061081e6110ff565b905061082b858285611119565b6108368585856111ad565b60019150509392505050565b601560009054906101000a900473ffffffffffffffffffffffffffffffffffffffff1681565b60006012905090565b600061087b6112a1565b905090565b610888611358565b6000601660009054906101000a900473ffffffffffffffffffffffffffffffffffffffff16905081601660006101000a81548173ffffffffffffffffffffffffffffffffffffffff021916908373ffffffffffffffffffffffffffffffffffffffff1602179055507ed910c9481701ba32afe0c247572aaece27072f230c8ec769bf245fc0b38de68183604051610920929190612844565b60405180910390a15050565b601460009054906101000a900473ffffffffffffffffffffffffffffffffffffffff1681565b601660149054906101000a900460ff1681565b600a60009054906101000a900473ffffffffffffffffffffffffffffffffffffffff1681565b60008060008373ffffffffffffffffffffffffffffffffffffffff1673ffffffffffffffffffffffffffffffffffffffff168152602001908152602001600020549050919050565b6109db611358565b6109e560006113df565b565b600960009054906101000a900473ffffffffffffffffffffffffffffffffffffffff1681565b600d60009054906101000a900473ffffffffffffffffffffffffffffffffffffffff1681565b6000610a3e826114a5565b9050919050565b600060608060008060006060610a596114ee565b610a61611529565b46306000801b600067ffffffffffffffff811115610a8257610a8161286d565b5b604051908082528060200260200182016040528015610ab05781602001602082028036833780820191505090505b507f0f00000000000000000000000000000000000000000000000000000000000000959493929190965096509650965096509650965090919293949596565b610af7611358565b601660149054906101000a900460ff1615610b47576040517f08c379a0000000000000000000000000000000000000000000000000000000008152600401610b3e9061290e565b60405180910390fd5b6001601660146101000a81548160ff0219169083151502179055507f799663458a5ef2936f7fa0c99b3336c69c25890f82974f04e811e5bb359186c760405160405180910390a1565b6000600860009054906101000a900473ffffffffffffffffffffffffffffffffffffffff16905090565b606060048054610bc990612813565b80601f0160208091040260200160405190810160405280929190818152602001828054610bf590612813565b8015610c425780601f10610c1757610100808354040283529160200191610c42565b820191906000526020600020905b815481529060010190602001808311610c2557829003601f168201915b5050505050905090565b601360009054906101000a900473ffffffffffffffffffffffffffffffffffffffff1681565b600f60009054906101000a900473ffffffffffffffffffffffffffffffffffffffff1681565b600080610ca36110ff565b9050610cb08185856111ad565b600191505092915050565b610cc3611358565b601660149054906101000a900460ff1615610d13576040517f08c379a0000000000000000000000000000000000000000000000000000000008152600401610d0a9061290e565b60405180910390fd5b60008282905003610d59576040517f08c379a0000000000000000000000000000000000000000000000000000000008152600401610d509061297a565b60405180910390fd5b60005b82829050811015610db057610da2838383818110610d7d57610d7c61299a565b5b9050602002016020810190610d92919061244e565b601761156490919063ffffffff16565b508080600101915050610d5c565b505050565b83421115610dfa57836040517f62791302000000000000000000000000000000000000000000000000000000008152600401610df19190612375565b60405180910390fd5b60007f6e71edae12b1b97f4d1f60370fef10105fa2faae0126114a169c64845d6126c9888888610e298c611594565b89604051602001610e3f969594939291906129c9565b6040516020818303038152906040528051906020012090506000610e62826115eb565b90506000610e7282878787611605565b90508973ffffffffffffffffffffffffffffffffffffffff168173ffffffffffffffffffffffffffffffffffffffff1614610ee657808a6040517f4b800e46000000000000000000000000000000000000000000000000000000008152600401610edd929190612844565b60405180910390fd5b610ef18a8a8a611107565b50505050505050505050565b6000600160008473ffffffffffffffffffffffffffffffffffffffff1673ffffffffffffffffffffffffffffffffffffffff16815260200190815260200160002060008373ffffffffffffffffffffffffffffffffffffffff1673ffffffffffffffffffffffffffffffffffffffff16815260200190815260200160002054905092915050565b610f8c611358565b6000601560009054906101000a900473ffffffffffffffffffffffffffffffffffffffff16905081601560006101000a81548173ffffffffffffffffffffffffffffffffffffffff021916908373ffffffffffffffffffffffffffffffffffffffff1602179055507f0a3568000da48cc6e5e2c8e7a94d1bfa3607d1734c7dbd7b04ac9d77316b471a81601560009054906101000a900473ffffffffffffffffffffffffffffffffffffffff16604051611047929190612844565b60405180910390a15050565b61105b611358565b600073ffffffffffffffffffffffffffffffffffffffff168173ffffffffffffffffffffffffffffffffffffffff16036110cd5760006040517f1e4fbdf70000000000000000000000000000000000000000000000000000000081526004016110c4919061213d565b60405180910390fd5b6110d6816113df565b50565b601160009054906101000a900473ffffffffffffffffffffffffffffffffffffffff1681565b600033905090565b6111148383836001611635565b505050565b60006111258484610efd565b90507fffffffffffffffffffffffffffffffffffffffffffffffffffffffffffffffff81146111a75781811015611197578281836040517ffb8f41b200000000000000000000000000000000000000000000000000000000815260040161118e93929190612a2a565b60405180910390fd5b6111a684848484036000611635565b5b50505050565b600073ffffffffffffffffffffffffffffffffffffffff168373ffffffffffffffffffffffffffffffffffffffff160361121f5760006040517f96c6fd1e000000000000000000000000000000000000000000000000000000008152600401611216919061213d565b60405180910390fd5b600073ffffffffffffffffffffffffffffffffffffffff168273ffffffffffffffffffffffffffffffffffffffff16036112915760006040517fec442f05000000000000000000000000000000000000000000000000000000008152600401611288919061213d565b60405180910390fd5b61129c83838361180c565b505050565b60007f000000000000000000000000000000000000000000000000000000000000000073ffffffffffffffffffffffffffffffffffffffff163073ffffffffffffffffffffffffffffffffffffffff1614801561131d57507f000000000000000000000000000000000000000000000000000000000000000046145b1561134a577f00000000000000000000000000000000000000000000000000000000000000009050611355565b611352611971565b90505b90565b6113606110ff565b73ffffffffffffffffffffffffffffffffffffffff1661137e610b90565b73ffffffffffffffffffffffffffffffffffffffff16146113dd576113a16110ff565b6040517f118cdaa70000000000000000000000000000000000000000000000000000000081526004016113d4919061213d565b60405180910390fd5b565b6000600860009054906101000a900473ffffffffffffffffffffffffffffffffffffffff16905081600860006101000a81548173ffffffffffffffffffffffffffffffffffffffff021916908373ffffffffffffffffffffffffffffffffffffffff1602179055508173ffffffffffffffffffffffffffffffffffffffff168173ffffffffffffffffffffffffffffffffffffffff167f8be0079c531659141344cd1fd0a4f28419497f9722a3daafe3b4186f6b6457e060405160405180910390a35050565b6000600760008373ffffffffffffffffffffffffffffffffffffffff1673ffffffffffffffffffffffffffffffffffffffff168152602001908152602001600020549050919050565b606061152460057f0000000000000000000000000000000000000000000000000000000000000000611a0790919063ffffffff16565b905090565b606061155f60067f0000000000000000000000000000000000000000000000000000000000000000611a0790919063ffffffff16565b905090565b600061158c836000018373ffffffffffffffffffffffffffffffffffffffff1660001b611ab7565b905092915050565b6000600760008373ffffffffffffffffffffffffffffffffffffffff1673ffffffffffffffffffffffffffffffffffffffff1681526020019081526020016000206000815480929190600101919050559050919050565b60006115fe6115f86112a1565b83611b27565b9050919050565b60008060008061161788888888611b68565b9250925092506116278282611c5c565b829350505050949350505050565b600073ffffffffffffffffffffffffffffffffffffffff168473ffffffffffffffffffffffffffffffffffffffff16036116a75760006040517fe602df0500000000000000000000000000000000000000000000000000000000815260040161169e919061213d565b60405180910390fd5b600073ffffffffffffffffffffffffffffffffffffffff168373ffffffffffffffffffffffffffffffffffffffff16036117195760006040517f94280d62000000000000000000000000000000000000000000000000000000008152600401611710919061213d565b60405180910390fd5b81600160008673ffffffffffffffffffffffffffffffffffffffff1673ffffffffffffffffffffffffffffffffffffffff16815260200190815260200160002060008573ffffffffffffffffffffffffffffffffffffffff1673ffffffffffffffffffffffffffffffffffffffff168152602001908152602001600020819055508015611806578273ffffffffffffffffffffffffffffffffffffffff168473ffffffffffffffffffffffffffffffffffffffff167f8c5be1e5ebec7d5bd14f71427d1e84f3dd0314c0f7b2291e5b200ac8c7c3b925846040516117fd9190612375565b60405180910390a35b50505050565b601660149054906101000a900460ff1661187457611834836017611dc090919063ffffffff16565b611873576040517f08c379a000000000000000000000000000000000000000000000000000000000815260040161186a90612aad565b60405180910390fd5b5b6000601660009054906101000a900473ffffffffffffffffffffffffffffffffffffffff1673ffffffffffffffffffffffffffffffffffffffff1663d7ad21ac8585856040518463ffffffff1660e01b81526004016118d593929190612acd565b602060405180830381865afa1580156118f2573d6000803e3d6000fd5b505050506040513d601f19601f820116820180604052508101906119169190612b19565b9050600081836119269190612b75565b9050600082111561195f5761195e85601560009054906101000a900473ffffffffffffffffffffffffffffffffffffffff1684611df0565b5b61196a858583611df0565b5050505050565b60007f8b73c3c69bb8fe3d512ecc4cf759cc79239f7b179b0ffacaa9a75d522b39400f7f00000000000000000000000000000000000000000000000000000000000000007f000000000000000000000000000000000000000000000000000000000000000046306040516020016119ec959493929190612ba9565b60405160208183030381529060405280519060200120905090565b606060ff60001b8314611a2457611a1d83612015565b9050611ab1565b818054611a3090612813565b80601f0160208091040260200160405190810160405280929190818152602001828054611a5c90612813565b8015611aa95780601f10611a7e57610100808354040283529160200191611aa9565b820191906000526020600020905b815481529060010190602001808311611a8c57829003601f168201915b505050505090505b92915050565b6000611ac38383612089565b611b1c578260000182908060018154018082558091505060019003906000526020600020016000909190919091505582600001805490508360010160008481526020019081526020016000208190555060019050611b21565b600090505b92915050565b60006040517f190100000000000000000000000000000000000000000000000000000000000081528360028201528260228201526042812091505092915050565b60008060007f7fffffffffffffffffffffffffffffff5d576e7357a4501ddfe92f46681b20a08460001c1115611ba8576000600385925092509250611c52565b600060018888888860405160008152602001604052604051611bcd9493929190612bfc565b6020604051602081039080840390855afa158015611bef573d6000803e3d6000fd5b505050602060405103519050600073ffffffffffffffffffffffffffffffffffffffff168173ffffffffffffffffffffffffffffffffffffffff1603611c4357600060016000801b93509350935050611c52565b8060008060001b935093509350505b9450945094915050565b60006003811115611c7057611c6f612c41565b5b826003811115611c8357611c82612c41565b5b0315611dbc5760016003811115611c9d57611c9c612c41565b5b826003811115611cb057611caf612c41565b5b03611ce7576040517ff645eedf00000000000000000000000000000000000000000000000000000000815260040160405180910390fd5b60026003811115611cfb57611cfa612c41565b5b826003811115611d0e57611d0d612c41565b5b03611d53578060001c6040517ffce698f7000000000000000000000000000000000000000000000000000000008152600401611d4a9190612375565b60405180910390fd5b600380811115611d6657611d65612c41565b5b826003811115611d7957611d78612c41565b5b03611dbb57806040517fd78bce0c000000000000000000000000000000000000000000000000000000008152600401611db29190612433565b60405180910390fd5b5b5050565b6000611de8836000018373ffffffffffffffffffffffffffffffffffffffff1660001b612089565b905092915050565b600073ffffffffffffffffffffffffffffffffffffffff168373ffffffffffffffffffffffffffffffffffffffff1603611e42578060026000828254611e369190612c70565b92505081905550611f15565b60008060008573ffffffffffffffffffffffffffffffffffffffff1673ffffffffffffffffffffffffffffffffffffffff16815260200190815260200160002054905081811015611ece578381836040517fe450d38c000000000000000000000000000000000000000000000000000000008152600401611ec593929190612a2a565b60405180910390fd5b8181036000808673ffffffffffffffffffffffffffffffffffffffff1673ffffffffffffffffffffffffffffffffffffffff16815260200190815260200160002081905550505b600073ffffffffffffffffffffffffffffffffffffffff168273ffffffffffffffffffffffffffffffffffffffff1603611f5e5780600260008282540392505081905550611fab565b806000808473ffffffffffffffffffffffffffffffffffffffff1673ffffffffffffffffffffffffffffffffffffffff168152602001908152602001600020600082825401925050819055505b8173ffffffffffffffffffffffffffffffffffffffff168373ffffffffffffffffffffffffffffffffffffffff167fddf252ad1be2c89b69c2b068fc378daa952ba7f163c4a11628f55a4df523b3ef836040516120089190612375565b60405180910390a3505050565b60606000612022836120ac565b90506000602067ffffffffffffffff8111156120415761204061286d565b5b6040519080825280601f01601f1916602001820160405280156120735781602001600182028036833780820191505090505b5090508181528360208201528092505050919050565b600080836001016000848152602001908152602001600020541415905092915050565b60008060ff8360001c169050601f8111156120f3576040517fb3512b0c00000000000000000000000000000000000000000000000000000000815260040160405180910390fd5b80915050919050565b600073ffffffffffffffffffffffffffffffffffffffff82169050919050565b6000612127826120fc565b9050919050565b6121378161211c565b82525050565b6000602082019050612152600083018461212e565b92915050565b600081519050919050565b600082825260208201905092915050565b60005b83811015612192578082015181840152602081019050612177565b60008484015250505050565b6000601f19601f8301169050919050565b60006121ba82612158565b6121c48185612163565b93506121d4818560208601612174565b6121dd8161219e565b840191505092915050565b6000602082019050818103600083015261220281846121af565b905092915050565b600080fd5b600080fd5b61221d8161211c565b811461222857600080fd5b50565b60008135905061223a81612214565b92915050565b6000819050919050565b61225381612240565b811461225e57600080fd5b50565b6000813590506122708161224a565b92915050565b6000806040838503121561228d5761228c61220a565b5b600061229b8582860161222b565b92505060206122ac85828601612261565b9150509250929050565b60008115159050919050565b6122cb816122b6565b82525050565b60006020820190506122e660008301846122c2565b92915050565b6000819050919050565b600061231161230c612307846120fc565b6122ec565b6120fc565b9050919050565b6000612323826122f6565b9050919050565b600061233582612318565b9050919050565b6123458161232a565b82525050565b6000602082019050612360600083018461233c565b92915050565b61236f81612240565b82525050565b600060208201905061238a6000830184612366565b92915050565b6000806000606084860312156123a9576123a861220a565b5b60006123b78682870161222b565b93505060206123c88682870161222b565b92505060406123d986828701612261565b9150509250925092565b600060ff82169050919050565b6123f9816123e3565b82525050565b600060208201905061241460008301846123f0565b92915050565b6000819050919050565b61242d8161241a565b82525050565b60006020820190506124486000830184612424565b92915050565b6000602082840312156124645761246361220a565b5b60006124728482850161222b565b91505092915050565b60007fff0000000000000000000000000000000000000000000000000000000000000082169050919050565b6124b08161247b565b82525050565b600081519050919050565b600082825260208201905092915050565b6000819050602082019050919050565b6124eb81612240565b82525050565b60006124fd83836124e2565b60208301905092915050565b6000602082019050919050565b6000612521826124b6565b61252b81856124c1565b9350612536836124d2565b8060005b8381101561256757815161254e88826124f1565b975061255983612509565b92505060018101905061253a565b5085935050505092915050565b600060e082019050612589600083018a6124a7565b818103602083015261259b81896121af565b905081810360408301526125af81886121af565b90506125be6060830187612366565b6125cb608083018661212e565b6125d860a0830185612424565b81810360c08301526125ea8184612516565b905098975050505050505050565b600080fd5b600080fd5b600080fd5b60008083601f84011261261d5761261c6125f8565b5b8235905067ffffffffffffffff81111561263a576126396125fd565b5b60208301915083602082028301111561265657612655612602565b5b9250929050565b600080602083850312156126745761267361220a565b5b600083013567ffffffffffffffff8111156126925761269161220f565b5b61269e85828601612607565b92509250509250929050565b6126b3816123e3565b81146126be57600080fd5b50565b6000813590506126d0816126aa565b92915050565b6126df8161241a565b81146126ea57600080fd5b50565b6000813590506126fc816126d6565b92915050565b600080600080600080600060e0888a0312156127215761272061220a565b5b600061272f8a828b0161222b565b97505060206127408a828b0161222b565b96505060406127518a828b01612261565b95505060606127628a828b01612261565b94505060806127738a828b016126c1565b93505060a06127848a828b016126ed565b92505060c06127958a828b016126ed565b91505092959891949750929550565b600080604083850312156127bb576127ba61220a565b5b60006127c98582860161222b565b92505060206127da8582860161222b565b9150509250929050565b7f4e487b7100000000000000000000000000000000000000000000000000000000600052602260045260246000fd5b6000600282049050600182168061282b57607f821691505b60208210810361283e5761283d6127e4565b5b50919050565b6000604082019050612859600083018561212e565b612866602083018461212e565b9392505050565b7f4e487b7100000000000000000000000000000000000000000000000000000000600052604160045260246000fd5b7f4172617261436f696e2074726164696e6720616c726561647920656e61626c6560008201527f6400000000000000000000000000000000000000000000000000000000000000602082015250565b60006128f8602183612163565b91506129038261289c565b604082019050919050565b60006020820190508181036000830152612927816128eb565b9050919050565b7f4172617261436f696e20696e76616c696420706172616d657465727300000000600082015250565b6000612964601c83612163565b915061296f8261292e565b602082019050919050565b6000602082019050818103600083015261299381612957565b9050919050565b7f4e487b7100000000000000000000000000000000000000000000000000000000600052603260045260246000fd5b600060c0820190506129de6000830189612424565b6129eb602083018861212e565b6129f8604083018761212e565b612a056060830186612366565b612a126080830185612366565b612a1f60a0830184612366565b979650505050505050565b6000606082019050612a3f600083018661212e565b612a4c6020830185612366565b612a596040830184612366565b949350505050565b7f4172617261436f696e2074726164652069732064697361626c65640000000000600082015250565b6000612a97601b83612163565b9150612aa282612a61565b602082019050919050565b60006020820190508181036000830152612ac681612a8a565b9050919050565b6000606082019050612ae2600083018661212e565b612aef602083018561212e565b612afc6040830184612366565b949350505050565b600081519050612b138161224a565b92915050565b600060208284031215612b2f57612b2e61220a565b5b6000612b3d84828501612b04565b91505092915050565b7f4e487b7100000000000000000000000000000000000000000000000000000000600052601160045260246000fd5b6000612b8082612240565b9150612b8b83612240565b9250828203905081811115612ba357612ba2612b46565b5b92915050565b600060a082019050612bbe6000830188612424565b612bcb6020830187612424565b612bd86040830186612424565b612be56060830185612366565b612bf2608083018461212e565b9695505050505050565b6000608082019050612c116000830187612424565b612c1e60208301866123f0565b612c2b6040830185612424565b612c386060830184612424565b95945050505050565b7f4e487b7100000000000000000000000000000000000000000000000000000000600052602160045260246000fd5b6000612c7b82612240565b9150612c8683612240565b9250828201905080821115612c9e57612c9d612b46565b5b9291505056fea2646970667358221220c71d70f4a2736b86862cc7998d68fb4e15af7cccbacb6f9761950e23c17848e364736f6c63430008180033",
  "linkReferences": {},
  "deployedLinkReferences": {}
}