{
  "_format": "hh-sol-artifact-1",
  "contractName": "AraraCoin",
  "sourceName": "contracts/AraraCoin.sol",
  "abi": [
    {
      "inputs": [
        {
          "internalType": "address",
          "name": "defaultAdmin",
          "type": "address"
        },
        {
          "internalType": "address",
          "name": "preservationProjectsVestingContract",
          "type": "address"
        }
      ],
      "stateMutability": "nonpayable",
      "type": "constructor"
    },
    {
      "inputs": [],
      "name": "AccessControlBadConfirmation",
      "type": "error"
    },
    {
      "inputs": [
        {
          "internalType": "address",
          "name": "account",
          "type": "address"
        },
        {
          "internalType": "bytes32",
          "name": "neededRole",
          "type": "bytes32"
        }
      ],
      "name": "AccessControlUnauthorizedAccount",
      "type": "error"
    },
    {
      "inputs": [],
      "name": "ECDSAInvalidSignature",
      "type": "error"
    },
    {
      "inputs": [
        {
          "internalType": "uint256",
          "name": "length",
          "type": "uint256"
        }
      ],
      "name": "ECDSAInvalidSignatureLength",
      "type": "error"
    },
    {
      "inputs": [
        {
          "internalType": "bytes32",
          "name": "s",
          "type": "bytes32"
        }
      ],
      "name": "ECDSAInvalidSignatureS",
      "type": "error"
    },
    {
      "inputs": [
        {
          "internalType": "address",
          "name": "spender",
          "type": "address"
        },
        {
          "internalType": "uint256",
          "name": "allowance",
          "type": "uint256"
        },
        {
          "internalType": "uint256",
          "name": "needed",
          "type": "uint256"
        }
      ],
      "name": "ERC20InsufficientAllowance",
      "type": "error"
    },
    {
      "inputs": [
        {
          "internalType": "address",
          "name": "sender",
          "type": "address"
        },
        {
          "internalType": "uint256",
          "name": "balance",
          "type": "uint256"
        },
        {
          "internalType": "uint256",
          "name": "needed",
          "type": "uint256"
        }
      ],
      "name": "ERC20InsufficientBalance",
      "type": "error"
    },
    {
      "inputs": [
        {
          "internalType": "address",
          "name": "approver",
          "type": "address"
        }
      ],
      "name": "ERC20InvalidApprover",
      "type": "error"
    },
    {
      "inputs": [
        {
          "internalType": "address",
          "name": "receiver",
          "type": "address"
        }
      ],
      "name": "ERC20InvalidReceiver",
      "type": "error"
    },
    {
      "inputs": [
        {
          "internalType": "address",
          "name": "sender",
          "type": "address"
        }
      ],
      "name": "ERC20InvalidSender",
      "type": "error"
    },
    {
      "inputs": [
        {
          "internalType": "address",
          "name": "spender",
          "type": "address"
        }
      ],
      "name": "ERC20InvalidSpender",
      "type": "error"
    },
    {
      "inputs": [
        {
          "internalType": "uint256",
          "name": "deadline",
          "type": "uint256"
        }
      ],
      "name": "ERC2612ExpiredSignature",
      "type": "error"
    },
    {
      "inputs": [
        {
          "internalType": "address",
          "name": "signer",
          "type": "address"
        },
        {
          "internalType": "address",
          "name": "owner",
          "type": "address"
        }
      ],
      "name": "ERC2612InvalidSigner",
      "type": "error"
    },
    {
      "inputs": [
        {
          "internalType": "address",
          "name": "account",
          "type": "address"
        },
        {
          "internalType": "uint256",
          "name": "currentNonce",
          "type": "uint256"
        }
      ],
      "name": "InvalidAccountNonce",
      "type": "error"
    },
    {
      "inputs": [],
      "name": "InvalidShortString",
      "type": "error"
    },
    {
      "inputs": [
        {
          "internalType": "string",
          "name": "str",
          "type": "string"
        }
      ],
      "name": "StringTooLong",
      "type": "error"
    },
    {
      "anonymous": false,
      "inputs": [
        {
          "indexed": true,
          "internalType": "address",
          "name": "owner",
          "type": "address"
        },
        {
          "indexed": true,
          "internalType": "address",
          "name": "spender",
          "type": "address"
        },
        {
          "indexed": false,
          "internalType": "uint256",
          "name": "value",
          "type": "uint256"
        }
      ],
      "name": "Approval",
      "type": "event"
    },
    {
      "anonymous": false,
      "inputs": [],
      "name": "EIP712DomainChanged",
      "type": "event"
    },
    {
      "anonymous": false,
      "inputs": [
        {
          "indexed": true,
          "internalType": "bytes32",
          "name": "role",
          "type": "bytes32"
        },
        {
          "indexed": true,
          "internalType": "bytes32",
          "name": "previousAdminRole",
          "type": "bytes32"
        },
        {
          "indexed": true,
          "internalType": "bytes32",
          "name": "newAdminRole",
          "type": "bytes32"
        }
      ],
      "name": "RoleAdminChanged",
      "type": "event"
    },
    {
      "anonymous": false,
      "inputs": [
        {
          "indexed": true,
          "internalType": "bytes32",
          "name": "role",
          "type": "bytes32"
        },
        {
          "indexed": true,
          "internalType": "address",
          "name": "account",
          "type": "address"
        },
        {
          "indexed": true,
          "internalType": "address",
          "name": "sender",
          "type": "address"
        }
      ],
      "name": "RoleGranted",
      "type": "event"
    },
    {
      "anonymous": false,
      "inputs": [
        {
          "indexed": true,
          "internalType": "bytes32",
          "name": "role",
          "type": "bytes32"
        },
        {
          "indexed": true,
          "internalType": "address",
          "name": "account",
          "type": "address"
        },
        {
          "indexed": true,
          "internalType": "address",
          "name": "sender",
          "type": "address"
        }
      ],
      "name": "RoleRevoked",
      "type": "event"
    },
    {
      "anonymous": false,
      "inputs": [
        {
          "indexed": true,
          "internalType": "address",
          "name": "wallet",
          "type": "address"
        },
        {
          "indexed": false,
          "internalType": "bool",
          "name": "exempted",
          "type": "bool"
        }
      ],
      "name": "TaxExemptionUpdated",
      "type": "event"
    },
    {
      "anonymous": false,
      "inputs": [
        {
          "indexed": false,
          "internalType": "uint256",
          "name": "oldTaxPercentage",
          "type": "uint256"
        },
        {
          "indexed": false,
          "internalType": "uint256",
          "name": "newTaxPercentage",
          "type": "uint256"
        }
      ],
      "name": "TaxPercentageUpdated",
      "type": "event"
    },
    {
      "anonymous": false,
      "inputs": [
        {
          "indexed": false,
          "internalType": "address",
          "name": "oldAddress",
          "type": "address"
        },
        {
          "indexed": false,
          "internalType": "address",
          "name": "newAddress",
          "type": "address"
        }
      ],
      "name": "TaxWalletChanged",
      "type": "event"
    },
    {
      "anonymous": false,
      "inputs": [],
      "name": "TradingEnabled",
      "type": "event"
    },
    {
      "anonymous": false,
      "inputs": [
        {
          "indexed": true,
          "internalType": "address",
          "name": "from",
          "type": "address"
        },
        {
          "indexed": true,
          "internalType": "address",
          "name": "to",
          "type": "address"
        },
        {
          "indexed": false,
          "internalType": "uint256",
          "name": "value",
          "type": "uint256"
        }
      ],
      "name": "Transfer",
      "type": "event"
    },
    {
      "inputs": [],
      "name": "DEFAULT_ADMIN_ROLE",
      "outputs": [
        {
          "internalType": "bytes32",
          "name": "",
          "type": "bytes32"
        }
      ],
      "stateMutability": "view",
      "type": "function"
    },
    {
      "inputs": [],
      "name": "DOMAIN_SEPARATOR",
      "outputs": [
        {
          "internalType": "bytes32",
          "name": "",
          "type": "bytes32"
        }
      ],
      "stateMutability": "view",
      "type": "function"
    },
    {
      "inputs": [],
      "name": "MANAGER_ROLE",
      "outputs": [
        {
          "internalType": "bytes32",
          "name": "",
          "type": "bytes32"
        }
      ],
      "stateMutability": "view",
      "type": "function"
    },
    {
      "inputs": [
        {
          "internalType": "address[]",
          "name": "allowedAddresses",
          "type": "address[]"
        }
      ],
      "name": "addCanTrade",
      "outputs": [],
      "stateMutability": "nonpayable",
      "type": "function"
    },
    {
      "inputs": [
        {
          "internalType": "address",
          "name": "exemption",
          "type": "address"
        }
      ],
      "name": "addExemption",
      "outputs": [],
      "stateMutability": "nonpayable",
      "type": "function"
    },
    {
      "inputs": [
        {
          "internalType": "address",
          "name": "owner",
          "type": "address"
        },
        {
          "internalType": "address",
          "name": "spender",
          "type": "address"
        }
      ],
      "name": "allowance",
      "outputs": [
        {
          "internalType": "uint256",
          "name": "",
          "type": "uint256"
        }
      ],
      "stateMutability": "view",
      "type": "function"
    },
    {
      "inputs": [
        {
          "internalType": "address",
          "name": "spender",
          "type": "address"
        },
        {
          "internalType": "uint256",
          "name": "value",
          "type": "uint256"
        }
      ],
      "name": "approve",
      "outputs": [
        {
          "internalType": "bool",
          "name": "",
          "type": "bool"
        }
      ],
      "stateMutability": "nonpayable",
      "type": "function"
    },
    {
      "inputs": [
        {
          "internalType": "address",
          "name": "account",
          "type": "address"
        }
      ],
      "name": "balanceOf",
      "outputs": [
        {
          "internalType": "uint256",
          "name": "",
          "type": "uint256"
        }
      ],
      "stateMutability": "view",
      "type": "function"
    },
    {
      "inputs": [],
      "name": "decimals",
      "outputs": [
        {
          "internalType": "uint8",
          "name": "",
          "type": "uint8"
        }
      ],
      "stateMutability": "view",
      "type": "function"
    },
    {
      "inputs": [],
      "name": "eip712Domain",
      "outputs": [
        {
          "internalType": "bytes1",
          "name": "fields",
          "type": "bytes1"
        },
        {
          "internalType": "string",
          "name": "name",
          "type": "string"
        },
        {
          "internalType": "string",
          "name": "version",
          "type": "string"
        },
        {
          "internalType": "uint256",
          "name": "chainId",
          "type": "uint256"
        },
        {
          "internalType": "address",
          "name": "verifyingContract",
          "type": "address"
        },
        {
          "internalType": "bytes32",
          "name": "salt",
          "type": "bytes32"
        },
        {
          "internalType": "uint256[]",
          "name": "extensions",
          "type": "uint256[]"
        }
      ],
      "stateMutability": "view",
      "type": "function"
    },
    {
      "inputs": [],
      "name": "enableTrading",
      "outputs": [],
      "stateMutability": "nonpayable",
      "type": "function"
    },
    {
      "inputs": [
        {
          "internalType": "bytes32",
          "name": "role",
          "type": "bytes32"
        }
      ],
      "name": "getRoleAdmin",
      "outputs": [
        {
          "internalType": "bytes32",
          "name": "",
          "type": "bytes32"
        }
      ],
      "stateMutability": "view",
      "type": "function"
    },
    {
      "inputs": [
        {
          "internalType": "bytes32",
          "name": "role",
          "type": "bytes32"
        },
        {
          "internalType": "address",
          "name": "account",
          "type": "address"
        }
      ],
      "name": "grantRole",
      "outputs": [],
      "stateMutability": "nonpayable",
      "type": "function"
    },
    {
      "inputs": [
        {
          "internalType": "bytes32",
          "name": "role",
          "type": "bytes32"
        },
        {
          "internalType": "address",
          "name": "account",
          "type": "address"
        }
      ],
      "name": "hasRole",
      "outputs": [
        {
          "internalType": "bool",
          "name": "",
          "type": "bool"
        }
      ],
      "stateMutability": "view",
      "type": "function"
    },
    {
      "inputs": [],
      "name": "name",
      "outputs": [
        {
          "internalType": "string",
          "name": "",
          "type": "string"
        }
      ],
      "stateMutability": "view",
      "type": "function"
    },
    {
      "inputs": [
        {
          "internalType": "address",
          "name": "owner",
          "type": "address"
        }
      ],
      "name": "nonces",
      "outputs": [
        {
          "internalType": "uint256",
          "name": "",
          "type": "uint256"
        }
      ],
      "stateMutability": "view",
      "type": "function"
    },
    {
      "inputs": [
        {
          "internalType": "address",
          "name": "owner",
          "type": "address"
        },
        {
          "internalType": "address",
          "name": "spender",
          "type": "address"
        },
        {
          "internalType": "uint256",
          "name": "value",
          "type": "uint256"
        },
        {
          "internalType": "uint256",
          "name": "deadline",
          "type": "uint256"
        },
        {
          "internalType": "uint8",
          "name": "v",
          "type": "uint8"
        },
        {
          "internalType": "bytes32",
          "name": "r",
          "type": "bytes32"
        },
        {
          "internalType": "bytes32",
          "name": "s",
          "type": "bytes32"
        }
      ],
      "name": "permit",
      "outputs": [],
      "stateMutability": "nonpayable",
      "type": "function"
    },
    {
      "inputs": [
        {
          "internalType": "address[]",
          "name": "allowedAddresses",
          "type": "address[]"
        }
      ],
      "name": "removeCanTrade",
      "outputs": [],
      "stateMutability": "nonpayable",
      "type": "function"
    },
    {
      "inputs": [
        {
          "internalType": "address",
          "name": "exemption",
          "type": "address"
        }
      ],
      "name": "removeExemption",
      "outputs": [],
      "stateMutability": "nonpayable",
      "type": "function"
    },
    {
      "inputs": [
        {
          "internalType": "bytes32",
          "name": "role",
          "type": "bytes32"
        },
        {
          "internalType": "address",
          "name": "callerConfirmation",
          "type": "address"
        }
      ],
      "name": "renounceRole",
      "outputs": [],
      "stateMutability": "nonpayable",
      "type": "function"
    },
    {
      "inputs": [
        {
          "internalType": "bytes32",
          "name": "role",
          "type": "bytes32"
        },
        {
          "internalType": "address",
          "name": "account",
          "type": "address"
        }
      ],
      "name": "revokeRole",
      "outputs": [],
      "stateMutability": "nonpayable",
      "type": "function"
    },
    {
      "inputs": [
        {
          "internalType": "uint256",
          "name": "newTaxPercentage",
          "type": "uint256"
        }
      ],
      "name": "setTaxPercentage",
      "outputs": [],
      "stateMutability": "nonpayable",
      "type": "function"
    },
    {
      "inputs": [
        {
          "internalType": "address",
          "name": "taxWalletAddress",
          "type": "address"
        }
      ],
      "name": "setTaxWallet",
      "outputs": [],
      "stateMutability": "nonpayable",
      "type": "function"
    },
    {
      "inputs": [
        {
          "internalType": "bytes4",
          "name": "interfaceId",
          "type": "bytes4"
        }
      ],
      "name": "supportsInterface",
      "outputs": [
        {
          "internalType": "bool",
          "name": "",
          "type": "bool"
        }
      ],
      "stateMutability": "view",
      "type": "function"
    },
    {
      "inputs": [],
      "name": "symbol",
      "outputs": [
        {
          "internalType": "string",
          "name": "",
          "type": "string"
        }
      ],
      "stateMutability": "view",
      "type": "function"
    },
    {
      "inputs": [],
      "name": "taxPercentage",
      "outputs": [
        {
          "internalType": "uint256",
          "name": "",
          "type": "uint256"
        }
      ],
      "stateMutability": "view",
      "type": "function"
    },
    {
      "inputs": [],
      "name": "taxWallet",
      "outputs": [
        {
          "internalType": "address",
          "name": "",
          "type": "address"
        }
      ],
      "stateMutability": "view",
      "type": "function"
    },
    {
      "inputs": [],
      "name": "totalSupply",
      "outputs": [
        {
          "internalType": "uint256",
          "name": "",
          "type": "uint256"
        }
      ],
      "stateMutability": "view",
      "type": "function"
    },
    {
      "inputs": [],
      "name": "tradingEnabled",
      "outputs": [
        {
          "internalType": "bool",
          "name": "",
          "type": "bool"
        }
      ],
      "stateMutability": "view",
      "type": "function"
    },
    {
      "inputs": [
        {
          "internalType": "address",
          "name": "to",
          "type": "address"
        },
        {
          "internalType": "uint256",
          "name": "value",
          "type": "uint256"
        }
      ],
      "name": "transfer",
      "outputs": [
        {
          "internalType": "bool",
          "name": "",
          "type": "bool"
        }
      ],
      "stateMutability": "nonpayable",
      "type": "function"
    },
    {
      "inputs": [
        {
          "internalType": "address",
          "name": "from",
          "type": "address"
        },
        {
          "internalType": "address",
          "name": "to",
          "type": "address"
        },
        {
          "internalType": "uint256",
          "name": "value",
          "type": "uint256"
        }
      ],
      "name": "transferFrom",
      "outputs": [
        {
          "internalType": "bool",
          "name": "",
          "type": "bool"
        }
      ],
      "stateMutability": "nonpayable",
      "type": "function"
    }
  ],
  "bytecode": "0x61016060405273bda5747bfd65f08deb54cb465eb87d40e51b197e600a60006101000a81548173ffffffffffffffffffffffffffffffffffffffff021916908373ffffffffffffffffffffffffffffffffffffffff1602179055503480156200006757600080fd5b50604051620054433803806200544383398181016040528101906200008d919062000f9f565b6040518060400160405280600981526020017f4172617261636f696e0000000000000000000000000000000000000000000000815250806040518060400160405280600181526020017f31000000000000000000000000000000000000000000000000000000000000008152506040518060400160405280600981526020017f4172617261636f696e00000000000000000000000000000000000000000000008152506040518060400160405280600581526020017f4152415241000000000000000000000000000000000000000000000000000000815250816003908162000177919062001260565b50806004908162000189919062001260565b505050620001a26005836200066660201b90919060201c565b6101208181525050620001c06006826200066660201b90919060201c565b6101408181525050818051906020012060e08181525050808051906020012061010081815250504660a08181525050620001ff620006be60201b60201c565b608081815250503073ffffffffffffffffffffffffffffffffffffffff1660c08173ffffffffffffffffffffffffffffffffffffffff168152505050505081600960006101000a81548173ffffffffffffffffffffffffffffffffffffffff021916908373ffffffffffffffffffffffffffffffffffffffff160217905550620002d27f241ecf16d79d0f8dbfb92cbc07fe17840425976cf0667f022fe9877caa831b08600960009054906101000a900473ffffffffffffffffffffffffffffffffffffffff166200071b60201b60201c565b50620003197f241ecf16d79d0f8dbfb92cbc07fe17840425976cf0667f022fe9877caa831b0873bcd4042de499d14e55001ccbb24a551f3b9540966200071b60201b60201c565b50620003607f241ecf16d79d0f8dbfb92cbc07fe17840425976cf0667f022fe9877caa831b087314dc79964da2c08b23698b3d3cc7ca32193d99556200071b60201b60201c565b506000600f81905550620003806000600b6200081f60201b90919060201c565b506200039782600b6200081f60201b90919060201c565b50620003b7336c01431e0fae6d7217caa00000006200085760201b60201c565b620003ea337323618e81e3f5cdf7f54c3d65f7fbc0abf5b21e8f6b09b18ab5df7180b6b8000000620008e460201b60201c565b6200041d3373a0ee7a142d267c1f36714e4a8f75612f20a797206b0409f9cbc7c4a04c22000000620008e460201b60201c565b62000450337370997970c51812dc3a010c7d01b50e0d17dc79c86b026c62ad77dc602dae000000620008e460201b60201c565b620004a033733c44cdddb6a900fa2b585dd299e03d12fa4293bc6064600a6c01431e0fae6d7217caa000000062000488919062001376565b620004949190620013f0565b620008e460201b60201c565b620004f0337390f79bf6eb2c4f870365e785982e1f101e93b906606460146c01431e0fae6d7217caa0000000620004d8919062001376565b620004e49190620013f0565b620008e460201b60201c565b62000523337315d34aaf54267db7d7c367839aaf71a00a2c6a656b1431e0fae6d7217caa000000620008e460201b60201c565b62000556337371be63f3384f5fb98995898a86b02fb2426c57886b1431e0fae6d7217caa000000620008e460201b60201c565b620005893373fabb0ac9d68b0b445fb7357272ff202c5651694a6b2863c1f5cdae42f954000000620008e460201b60201c565b620005bc3373df3e18d64bc6a983f673ab319ccae4f1a57c70976b1f04ef12cb04cf1580000000620008e460201b60201c565b620005ef33731cbd3b2770909d4e10f157cabc84c7264073c9ec6b121836204bc2ce21e0000000620008e460201b60201c565b6200062233739965507d1a55bcc2695c58ba16fb37d819b0a4dc6b0f8277896582678ac0000000620008e460201b60201c565b6200065e3382606460146c01431e0fae6d7217caa000000062000646919062001376565b620006529190620013f0565b620008e460201b60201c565b505062001776565b60006020835110156200068c576200068483620009e660201b60201c565b9050620006b8565b826200069e8362000a5360201b60201c565b6000019081620006af919062001260565b5060ff60001b90505b92915050565b60007f8b73c3c69bb8fe3d512ecc4cf759cc79239f7b179b0ffacaa9a75d522b39400f60e0516101005146306040516020016200070095949392919062001465565b60405160208183030381529060405280519060200120905090565b60006200072f838362000a5d60201b60201c565b620008145760016008600085815260200190815260200160002060000160008473ffffffffffffffffffffffffffffffffffffffff1673ffffffffffffffffffffffffffffffffffffffff16815260200190815260200160002060006101000a81548160ff021916908315150217905550620007b062000ac860201b60201c565b73ffffffffffffffffffffffffffffffffffffffff168273ffffffffffffffffffffffffffffffffffffffff16847f2f8788117e7eff1d82e926ec794901d17c78024a50270940304540a733656f0d60405160405180910390a46001905062000819565b600090505b92915050565b60006200084f836000018373ffffffffffffffffffffffffffffffffffffffff1660001b62000ad060201b60201c565b905092915050565b600073ffffffffffffffffffffffffffffffffffffffff168273ffffffffffffffffffffffffffffffffffffffff1603620008cc5760006040517fec442f05000000000000000000000000000000000000000000000000000000008152600401620008c39190620014c2565b60405180910390fd5b620008e06000838362000b4a60201b60201c565b5050565b600073ffffffffffffffffffffffffffffffffffffffff168373ffffffffffffffffffffffffffffffffffffffff1603620009595760006040517f96c6fd1e000000000000000000000000000000000000000000000000000000008152600401620009509190620014c2565b60405180910390fd5b600073ffffffffffffffffffffffffffffffffffffffff168273ffffffffffffffffffffffffffffffffffffffff1603620009ce5760006040517fec442f05000000000000000000000000000000000000000000000000000000008152600401620009c59190620014c2565b60405180910390fd5b620009e183838362000b4a60201b60201c565b505050565b600080829050601f8151111562000a3657826040517f305a27a900000000000000000000000000000000000000000000000000000000815260040162000a2d91906200156e565b60405180910390fd5b80518162000a4490620015c4565b60001c1760001b915050919050565b6000819050919050565b60006008600084815260200190815260200160002060000160008373ffffffffffffffffffffffffffffffffffffffff1673ffffffffffffffffffffffffffffffffffffffff16815260200190815260200160002060009054906101000a900460ff16905092915050565b600033905090565b600062000ae4838362000c3b60201b60201c565b62000b3f57826000018290806001815401808255809150506001900390600052602060002001600090919091909150558260000180549050836001016000848152602001908152602001600020819055506001905062000b44565b600090505b92915050565b600a60149054906101000a900460ff1662000bb85762000b7583600b62000c5e60201b90919060201c565b62000bb7576040517f08c379a000000000000000000000000000000000000000000000000000000000815260040162000bae9062001684565b60405180910390fd5b5b600062000bcd84848462000c9660201b60201c565b90506000818362000bdf9190620016a6565b9050600082111562000c215762000c2085600a60009054906101000a900473ffffffffffffffffffffffffffffffffffffffff168462000d0560201b60201c565b5b62000c3485858362000d0560201b60201c565b5050505050565b600080836001016000848152602001908152602001600020541415905092915050565b600062000c8e836000018373ffffffffffffffffffffffffffffffffffffffff1660001b62000c3b60201b60201c565b905092915050565b600062000cae84600d62000c5e60201b90919060201c565b8062000ccc575062000ccb83600d62000c5e60201b90919060201c565b5b1562000cdc576000905062000cfe565b612710600f548362000cef919062001376565b62000cfb9190620013f0565b90505b9392505050565b600073ffffffffffffffffffffffffffffffffffffffff168373ffffffffffffffffffffffffffffffffffffffff160362000d5b57806002600082825462000d4e9190620016e1565b9250508190555062000e31565b60008060008573ffffffffffffffffffffffffffffffffffffffff1673ffffffffffffffffffffffffffffffffffffffff1681526020019081526020016000205490508181101562000dea578381836040517fe450d38c00000000000000000000000000000000000000000000000000000000815260040162000de1939291906200171c565b60405180910390fd5b8181036000808673ffffffffffffffffffffffffffffffffffffffff1673ffffffffffffffffffffffffffffffffffffffff16815260200190815260200160002081905550505b600073ffffffffffffffffffffffffffffffffffffffff168273ffffffffffffffffffffffffffffffffffffffff160362000e7c578060026000828254039250508190555062000ec9565b806000808473ffffffffffffffffffffffffffffffffffffffff1673ffffffffffffffffffffffffffffffffffffffff168152602001908152602001600020600082825401925050819055505b8173ffffffffffffffffffffffffffffffffffffffff168373ffffffffffffffffffffffffffffffffffffffff167fddf252ad1be2c89b69c2b068fc378daa952ba7f163c4a11628f55a4df523b3ef8360405162000f28919062001759565b60405180910390a3505050565b600080fd5b600073ffffffffffffffffffffffffffffffffffffffff82169050919050565b600062000f678262000f3a565b9050919050565b62000f798162000f5a565b811462000f8557600080fd5b50565b60008151905062000f998162000f6e565b92915050565b6000806040838503121562000fb95762000fb862000f35565b5b600062000fc98582860162000f88565b925050602062000fdc8582860162000f88565b9150509250929050565b600081519050919050565b7f4e487b7100000000000000000000000000000000000000000000000000000000600052604160045260246000fd5b7f4e487b7100000000000000000000000000000000000000000000000000000000600052602260045260246000fd5b600060028204905060018216806200106857607f821691505b6020821081036200107e576200107d62001020565b5b50919050565b60008190508160005260206000209050919050565b60006020601f8301049050919050565b600082821b905092915050565b600060088302620010e87fffffffffffffffffffffffffffffffffffffffffffffffffffffffffffffffff82620010a9565b620010f48683620010a9565b95508019841693508086168417925050509392505050565b6000819050919050565b6000819050919050565b6000620011416200113b62001135846200110c565b62001116565b6200110c565b9050919050565b6000819050919050565b6200115d8362001120565b620011756200116c8262001148565b848454620010b6565b825550505050565b600090565b6200118c6200117d565b6200119981848462001152565b505050565b5b81811015620011c157620011b560008262001182565b6001810190506200119f565b5050565b601f8211156200121057620011da8162001084565b620011e58462001099565b81016020851015620011f5578190505b6200120d620012048562001099565b8301826200119e565b50505b505050565b600082821c905092915050565b6000620012356000198460080262001215565b1980831691505092915050565b600062001250838362001222565b9150826002028217905092915050565b6200126b8262000fe6565b67ffffffffffffffff81111562001287576200128662000ff1565b5b6200129382546200104f565b620012a0828285620011c5565b600060209050601f831160018114620012d85760008415620012c3578287015190505b620012cf858262001242565b8655506200133f565b601f198416620012e88662001084565b60005b828110156200131257848901518255600182019150602085019450602081019050620012eb565b868310156200133257848901516200132e601f89168262001222565b8355505b6001600288020188555050505b505050505050565b7f4e487b7100000000000000000000000000000000000000000000000000000000600052601160045260246000fd5b600062001383826200110c565b915062001390836200110c565b9250828202620013a0816200110c565b91508282048414831517620013ba57620013b962001347565b5b5092915050565b7f4e487b7100000000000000000000000000000000000000000000000000000000600052601260045260246000fd5b6000620013fd826200110c565b91506200140a836200110c565b9250826200141d576200141c620013c1565b5b828204905092915050565b6000819050919050565b6200143d8162001428565b82525050565b6200144e816200110c565b82525050565b6200145f8162000f5a565b82525050565b600060a0820190506200147c600083018862001432565b6200148b602083018762001432565b6200149a604083018662001432565b620014a9606083018562001443565b620014b8608083018462001454565b9695505050505050565b6000602082019050620014d9600083018462001454565b92915050565b600082825260208201905092915050565b60005b8381101562001510578082015181840152602081019050620014f3565b60008484015250505050565b6000601f19601f8301169050919050565b60006200153a8262000fe6565b620015468185620014df565b935062001558818560208601620014f0565b62001563816200151c565b840191505092915050565b600060208201905081810360008301526200158a81846200152d565b905092915050565b600081519050919050565b6000819050602082019050919050565b6000620015bb825162001428565b80915050919050565b6000620015d18262001592565b82620015dd846200159d565b9050620015ea81620015ad565b925060208210156200162d57620016287fffffffffffffffffffffffffffffffffffffffffffffffffffffffffffffffff83602003600802620010a9565b831692505b5050919050565b7f4172617261436f696e3a2054726164652069732064697361626c656400000000600082015250565b60006200166c601c83620014df565b9150620016798262001634565b602082019050919050565b600060208201905081810360008301526200169f816200165d565b9050919050565b6000620016b3826200110c565b9150620016c0836200110c565b9250828203905081811115620016db57620016da62001347565b5b92915050565b6000620016ee826200110c565b9150620016fb836200110c565b925082820190508082111562001716576200171562001347565b5b92915050565b600060608201905062001733600083018662001454565b62001742602083018562001443565b62001751604083018462001443565b949350505050565b600060208201905062001770600083018462001443565b92915050565b60805160a05160c05160e051610100516101205161014051613c72620017d16000396000611b5701526000611b1c0152600061207c0152600061205b015260006117a3015260006117f9015260006118220152613c726000f3fe608060405234801561001057600080fd5b50600436106101e55760003560e01c806370a082311161010f578063a9059cbb116100a2578063d547741f11610071578063d547741f14610586578063dd62ed3e146105a2578063ea414b28146105d2578063ec87621c146105ee576101e5565b8063a9059cbb14610500578063ae7b6d1614610530578063ca40f1c41461054e578063d505accf1461056a576101e5565b80638a8c523c116100de5780638a8c523c1461048a57806391d148541461049457806395d89b41146104c4578063a217fddf146104e2576101e5565b806370a08231146103ea5780637ac931191461041a5780637ecebe001461043657806384b0196e14610466576101e5565b80632dc0562d1161018757806336568abe1161015657806336568abe146103785780634ada218b14610394578063699abb3c146103b2578063705931fa146103ce576101e5565b80632dc0562d146103025780632f2ff15d14610320578063313ce5671461033c5780633644e5151461035a576101e5565b80630ed9cc4c116101c35780630ed9cc4c1461026857806318160ddd1461028457806323b872dd146102a2578063248a9ca3146102d2576101e5565b806301ffc9a7146101ea57806306fdde031461021a578063095ea7b314610238575b600080fd5b61020460048036038101906101ff9190612a10565b61060c565b6040516102119190612a58565b60405180910390f35b610222610686565b60405161022f9190612b03565b60405180910390f35b610252600480360381019061024d9190612bb9565b610718565b60405161025f9190612a58565b60405180910390f35b610282600480360381019061027d9190612bf9565b61073b565b005b61028c61080b565b6040516102999190612c35565b60405180910390f35b6102bc60048036038101906102b79190612c50565b610815565b6040516102c99190612a58565b60405180910390f35b6102ec60048036038101906102e79190612cd9565b610844565b6040516102f99190612d15565b60405180910390f35b61030a610864565b6040516103179190612d3f565b60405180910390f35b61033a60048036038101906103359190612d5a565b61088a565b005b6103446108ac565b6040516103519190612db6565b60405180910390f35b6103626108b5565b60405161036f9190612d15565b60405180910390f35b610392600480360381019061038d9190612d5a565b6108c4565b005b61039c61093f565b6040516103a99190612a58565b60405180910390f35b6103cc60048036038101906103c79190612dd1565b610952565b005b6103e860048036038101906103e39190612bf9565b610ab1565b005b61040460048036038101906103ff9190612bf9565b610b81565b6040516104119190612c35565b60405180910390f35b610434600480360381019061042f9190612e63565b610bc9565b005b610450600480360381019061044b9190612bf9565b610ce6565b60405161045d9190612c35565b60405180910390f35b61046e610cf8565b6040516104819796959493929190612fa9565b60405180910390f35b610492610da2565b005b6104ae60048036038101906104a99190612d5a565b610eb8565b6040516104bb9190612a58565b60405180910390f35b6104cc610f23565b6040516104d99190612b03565b60405180910390f35b6104ea610fb5565b6040516104f79190612d15565b60405180910390f35b61051a60048036038101906105159190612bb9565b610fbc565b6040516105279190612a58565b60405180910390f35b610538610fdf565b6040516105459190612c35565b60405180910390f35b61056860048036038101906105639190612e63565b610fe5565b005b610584600480360381019061057f9190613059565b611102565b005b6105a0600480360381019061059b9190612d5a565b61124a565b005b6105bc60048036038101906105b791906130fb565b61126c565b6040516105c99190612c35565b60405180910390f35b6105ec60048036038101906105e79190612bf9565b6112f3565b005b6105f6611439565b6040516106039190612d15565b60405180910390f35b60007f7965db0b000000000000000000000000000000000000000000000000000000007bffffffffffffffffffffffffffffffffffffffffffffffffffffffff1916827bffffffffffffffffffffffffffffffffffffffffffffffffffffffff1916148061067f575061067e8261145d565b5b9050919050565b6060600380546106959061316a565b80601f01602080910402602001604051908101604052809291908181526020018280546106c19061316a565b801561070e5780601f106106e35761010080835404028352916020019161070e565b820191906000526020600020905b8154815290600101906020018083116106f157829003601f168201915b5050505050905090565b6000806107236114c7565b90506107308185856114cf565b600191505092915050565b7f241ecf16d79d0f8dbfb92cbc07fe17840425976cf0667f022fe9877caa831b08610765816114e1565b61077982600d6114f590919063ffffffff16565b6107b8576040517f08c379a00000000000000000000000000000000000000000000000000000000081526004016107af9061320d565b60405180910390fd5b8173ffffffffffffffffffffffffffffffffffffffff167f36ee46fa09c2419f7bcf8135c2bdd56bc882be141cb075961717003bed74367d60006040516107ff9190612a58565b60405180910390a25050565b6000600254905090565b6000806108206114c7565b905061082d858285611525565b6108388585856115b9565b60019150509392505050565b600060086000838152602001908152602001600020600101549050919050565b600a60009054906101000a900473ffffffffffffffffffffffffffffffffffffffff1681565b61089382610844565b61089c816114e1565b6108a683836116ad565b50505050565b60006012905090565b60006108bf61179f565b905090565b6108cc6114c7565b73ffffffffffffffffffffffffffffffffffffffff168173ffffffffffffffffffffffffffffffffffffffff1614610930576040517f6697b23200000000000000000000000000000000000000000000000000000000815260040160405180910390fd5b61093a8282611856565b505050565b600a60149054906101000a900460ff1681565b7f241ecf16d79d0f8dbfb92cbc07fe17840425976cf0667f022fe9877caa831b0861097c816114e1565b6000821015801561098e575060648211155b6109cd576040517f08c379a00000000000000000000000000000000000000000000000000000000081526004016109c4906132c5565b60405180910390fd5b81600f5403610a11576040517f08c379a0000000000000000000000000000000000000000000000000000000008152600401610a089061337d565b60405180910390fd5b600082604051602001610a249190613415565b604051602081830303815290604052805190602001209050610a4581611949565b6003601060008381526020019081526020016000206000015410610aac576000600f54905083600f819055507f4953fbf85b1bef649a55e328880dc688093c62b90bc90dec0ffcb6a1c5cce0a58185604051610aa292919061343b565b60405180910390a1505b505050565b7f241ecf16d79d0f8dbfb92cbc07fe17840425976cf0667f022fe9877caa831b08610adb816114e1565b610aef82600d611a9a90919063ffffffff16565b610b2e576040517f08c379a0000000000000000000000000000000000000000000000000000000008152600401610b25906134d6565b60405180910390fd5b8173ffffffffffffffffffffffffffffffffffffffff167f36ee46fa09c2419f7bcf8135c2bdd56bc882be141cb075961717003bed74367d6001604051610b759190612a58565b60405180910390a25050565b60008060008373ffffffffffffffffffffffffffffffffffffffff1673ffffffffffffffffffffffffffffffffffffffff168152602001908152602001600020549050919050565b7f241ecf16d79d0f8dbfb92cbc07fe17840425976cf0667f022fe9877caa831b08610bf3816114e1565b600a60149054906101000a900460ff1615610c43576040517f08c379a0000000000000000000000000000000000000000000000000000000008152600401610c3a90613568565b60405180910390fd5b60008383905003610c89576040517f08c379a0000000000000000000000000000000000000000000000000000000008152600401610c80906135fa565b60405180910390fd5b60005b83839050811015610ce057610cd2848483818110610cad57610cac61361a565b5b9050602002016020810190610cc29190612bf9565b600b6114f590919063ffffffff16565b508080600101915050610c8c565b50505050565b6000610cf182611aca565b9050919050565b600060608060008060006060610d0c611b13565b610d14611b4e565b46306000801b600067ffffffffffffffff811115610d3557610d34613649565b5b604051908082528060200260200182016040528015610d635781602001602082028036833780820191505090505b507f0f00000000000000000000000000000000000000000000000000000000000000959493929190965096509650965096509650965090919293949596565b7f241ecf16d79d0f8dbfb92cbc07fe17840425976cf0667f022fe9877caa831b08610dcc816114e1565b600a60149054906101000a900460ff1615610e1c576040517f08c379a0000000000000000000000000000000000000000000000000000000008152600401610e13906136ea565b60405180910390fd5b6000604051602001610e2d90613756565b604051602081830303815290604052805190602001209050610e4e81611949565b6003601060008381526020019081526020016000206000015410610eb4576001600a60146101000a81548160ff0219169083151502179055507f799663458a5ef2936f7fa0c99b3336c69c25890f82974f04e811e5bb359186c760405160405180910390a15b5050565b60006008600084815260200190815260200160002060000160008373ffffffffffffffffffffffffffffffffffffffff1673ffffffffffffffffffffffffffffffffffffffff16815260200190815260200160002060009054906101000a900460ff16905092915050565b606060048054610f329061316a565b80601f0160208091040260200160405190810160405280929190818152602001828054610f5e9061316a565b8015610fab5780601f10610f8057610100808354040283529160200191610fab565b820191906000526020600020905b815481529060010190602001808311610f8e57829003601f168201915b5050505050905090565b6000801b81565b600080610fc76114c7565b9050610fd48185856115b9565b600191505092915050565b600f5481565b7f241ecf16d79d0f8dbfb92cbc07fe17840425976cf0667f022fe9877caa831b0861100f816114e1565b600a60149054906101000a900460ff161561105f576040517f08c379a000000000000000000000000000000000000000000000000000000000815260040161105690613568565b60405180910390fd5b600083839050036110a5576040517f08c379a000000000000000000000000000000000000000000000000000000000815260040161109c906135fa565b60405180910390fd5b60005b838390508110156110fc576110ee8484838181106110c9576110c861361a565b5b90506020020160208101906110de9190612bf9565b600b611a9a90919063ffffffff16565b5080806001019150506110a8565b50505050565b8342111561114757836040517f6279130200000000000000000000000000000000000000000000000000000000815260040161113e9190612c35565b60405180910390fd5b60007f6e71edae12b1b97f4d1f60370fef10105fa2faae0126114a169c64845d6126c98888886111768c611b89565b8960405160200161118c9695949392919061376b565b60405160208183030381529060405280519060200120905060006111af82611be0565b905060006111bf82878787611bfa565b90508973ffffffffffffffffffffffffffffffffffffffff168173ffffffffffffffffffffffffffffffffffffffff161461123357808a6040517f4b800e4600000000000000000000000000000000000000000000000000000000815260040161122a9291906137cc565b60405180910390fd5b61123e8a8a8a6114cf565b50505050505050505050565b61125382610844565b61125c816114e1565b6112668383611856565b50505050565b6000600160008473ffffffffffffffffffffffffffffffffffffffff1673ffffffffffffffffffffffffffffffffffffffff16815260200190815260200160002060008373ffffffffffffffffffffffffffffffffffffffff1673ffffffffffffffffffffffffffffffffffffffff16815260200190815260200160002054905092915050565b7f241ecf16d79d0f8dbfb92cbc07fe17840425976cf0667f022fe9877caa831b0861131d816114e1565b6000826040516020016113309190613889565b60405160208183030381529060405280519060200120905061135181611949565b6003601060008381526020019081526020016000206000015410611434576000600a60009054906101000a900473ffffffffffffffffffffffffffffffffffffffff16905083600a60006101000a81548173ffffffffffffffffffffffffffffffffffffffff021916908373ffffffffffffffffffffffffffffffffffffffff1602179055507f0a3568000da48cc6e5e2c8e7a94d1bfa3607d1734c7dbd7b04ac9d77316b471a81600a60009054906101000a900473ffffffffffffffffffffffffffffffffffffffff1660405161142a9291906137cc565b60405180910390a1505b505050565b7f241ecf16d79d0f8dbfb92cbc07fe17840425976cf0667f022fe9877caa831b0881565b60007f01ffc9a7000000000000000000000000000000000000000000000000000000007bffffffffffffffffffffffffffffffffffffffffffffffffffffffff1916827bffffffffffffffffffffffffffffffffffffffffffffffffffffffff1916149050919050565b600033905090565b6114dc8383836001611c2a565b505050565b6114f2816114ed6114c7565b611e01565b50565b600061151d836000018373ffffffffffffffffffffffffffffffffffffffff1660001b611e52565b905092915050565b6000611531848461126c565b90507fffffffffffffffffffffffffffffffffffffffffffffffffffffffffffffffff81146115b357818110156115a3578281836040517ffb8f41b200000000000000000000000000000000000000000000000000000000815260040161159a939291906138af565b60405180910390fd5b6115b284848484036000611c2a565b5b50505050565b600073ffffffffffffffffffffffffffffffffffffffff168373ffffffffffffffffffffffffffffffffffffffff160361162b5760006040517f96c6fd1e0000000000000000000000000000000000000000000000000000000081526004016116229190612d3f565b60405180910390fd5b600073ffffffffffffffffffffffffffffffffffffffff168273ffffffffffffffffffffffffffffffffffffffff160361169d5760006040517fec442f050000000000000000000000000000000000000000000000000000000081526004016116949190612d3f565b60405180910390fd5b6116a8838383611f66565b505050565b60006116b98383610eb8565b6117945760016008600085815260200190815260200160002060000160008473ffffffffffffffffffffffffffffffffffffffff1673ffffffffffffffffffffffffffffffffffffffff16815260200190815260200160002060006101000a81548160ff0219169083151502179055506117316114c7565b73ffffffffffffffffffffffffffffffffffffffff168273ffffffffffffffffffffffffffffffffffffffff16847f2f8788117e7eff1d82e926ec794901d17c78024a50270940304540a733656f0d60405160405180910390a460019050611799565b600090505b92915050565b60007f000000000000000000000000000000000000000000000000000000000000000073ffffffffffffffffffffffffffffffffffffffff163073ffffffffffffffffffffffffffffffffffffffff1614801561181b57507f000000000000000000000000000000000000000000000000000000000000000046145b15611848577f00000000000000000000000000000000000000000000000000000000000000009050611853565b611850612036565b90505b90565b60006118628383610eb8565b1561193e5760006008600085815260200190815260200160002060000160008473ffffffffffffffffffffffffffffffffffffffff1673ffffffffffffffffffffffffffffffffffffffff16815260200190815260200160002060006101000a81548160ff0219169083151502179055506118db6114c7565b73ffffffffffffffffffffffffffffffffffffffff168273ffffffffffffffffffffffffffffffffffffffff16847ff6391f5c32d9c69d2a47ea670b442974b53935d1edc7fd64eb21e047a839171b60405160405180910390a460019050611943565b600090505b92915050565b611952816120cc565b6010600082815260200190815260200160002060020160003373ffffffffffffffffffffffffffffffffffffffff1673ffffffffffffffffffffffffffffffffffffffff16815260200190815260200160002060009054906101000a900460ff16156119f3576040517f08c379a00000000000000000000000000000000000000000000000000000000081526004016119ea90613958565b60405180910390fd5b600060106000838152602001908152602001600020905060018160020160003373ffffffffffffffffffffffffffffffffffffffff1673ffffffffffffffffffffffffffffffffffffffff16815260200190815260200160002060006101000a81548160ff0219169083151502179055506001816000016000828254611a7991906139a7565b92505081905550610e1042611a8e91906139a7565b81600101819055505050565b6000611ac2836000018373ffffffffffffffffffffffffffffffffffffffff1660001b612255565b905092915050565b6000600760008373ffffffffffffffffffffffffffffffffffffffff1673ffffffffffffffffffffffffffffffffffffffff168152602001908152602001600020549050919050565b6060611b4960057f00000000000000000000000000000000000000000000000000000000000000006122c590919063ffffffff16565b905090565b6060611b8460067f00000000000000000000000000000000000000000000000000000000000000006122c590919063ffffffff16565b905090565b6000600760008373ffffffffffffffffffffffffffffffffffffffff1673ffffffffffffffffffffffffffffffffffffffff1681526020019081526020016000206000815480929190600101919050559050919050565b6000611bf3611bed61179f565b83612375565b9050919050565b600080600080611c0c888888886123b6565b925092509250611c1c82826124aa565b829350505050949350505050565b600073ffffffffffffffffffffffffffffffffffffffff168473ffffffffffffffffffffffffffffffffffffffff1603611c9c5760006040517fe602df05000000000000000000000000000000000000000000000000000000008152600401611c939190612d3f565b60405180910390fd5b600073ffffffffffffffffffffffffffffffffffffffff168373ffffffffffffffffffffffffffffffffffffffff1603611d0e5760006040517f94280d62000000000000000000000000000000000000000000000000000000008152600401611d059190612d3f565b60405180910390fd5b81600160008673ffffffffffffffffffffffffffffffffffffffff1673ffffffffffffffffffffffffffffffffffffffff16815260200190815260200160002060008573ffffffffffffffffffffffffffffffffffffffff1673ffffffffffffffffffffffffffffffffffffffff168152602001908152602001600020819055508015611dfb578273ffffffffffffffffffffffffffffffffffffffff168473ffffffffffffffffffffffffffffffffffffffff167f8c5be1e5ebec7d5bd14f71427d1e84f3dd0314c0f7b2291e5b200ac8c7c3b92584604051611df29190612c35565b60405180910390a35b50505050565b611e0b8282610eb8565b611e4e5780826040517fe2517d3f000000000000000000000000000000000000000000000000000000008152600401611e459291906139db565b60405180910390fd5b5050565b60008083600101600084815260200190815260200160002054905060008114611f5a576000600182611e849190613a04565b9050600060018660000180549050611e9c9190613a04565b9050808214611f0b576000866000018281548110611ebd57611ebc61361a565b5b9060005260206000200154905080876000018481548110611ee157611ee061361a565b5b90600052602060002001819055508387600101600083815260200190815260200160002081905550505b85600001805480611f1f57611f1e613a38565b5b600190038181906000526020600020016000905590558560010160008681526020019081526020016000206000905560019350505050611f60565b60009150505b92915050565b600a60149054906101000a900460ff16611fce57611f8e83600b61260e90919063ffffffff16565b611fcd576040517f08c379a0000000000000000000000000000000000000000000000000000000008152600401611fc490613ab3565b60405180910390fd5b5b6000611fdb84848461263e565b905060008183611feb9190613a04565b905060008211156120245761202385600a60009054906101000a900473ffffffffffffffffffffffffffffffffffffffff16846126a2565b5b61202f8585836126a2565b5050505050565b60007f8b73c3c69bb8fe3d512ecc4cf759cc79239f7b179b0ffacaa9a75d522b39400f7f00000000000000000000000000000000000000000000000000000000000000007f000000000000000000000000000000000000000000000000000000000000000046306040516020016120b1959493929190613ad3565b60405160208183030381529060405280519060200120905090565b6000601060008381526020019081526020016000209050600081600101541180156120fa5750806001015442115b15612251576000816000018190555060008160010181905550806002016000600960009054906101000a900473ffffffffffffffffffffffffffffffffffffffff1673ffffffffffffffffffffffffffffffffffffffff1673ffffffffffffffffffffffffffffffffffffffff16815260200190815260200160002060006101000a81549060ff021916905580600201600073bcd4042de499d14e55001ccbb24a551f3b95409673ffffffffffffffffffffffffffffffffffffffff1673ffffffffffffffffffffffffffffffffffffffff16815260200190815260200160002060006101000a81549060ff02191690558060020160007314dc79964da2c08b23698b3d3cc7ca32193d995573ffffffffffffffffffffffffffffffffffffffff1673ffffffffffffffffffffffffffffffffffffffff16815260200190815260200160002060006101000a81549060ff02191690555b5050565b600061226183836128c7565b6122ba5782600001829080600181540180825580915050600190039060005260206000200160009091909190915055826000018054905083600101600084815260200190815260200160002081905550600190506122bf565b600090505b92915050565b606060ff60001b83146122e2576122db836128ea565b905061236f565b8180546122ee9061316a565b80601f016020809104026020016040519081016040528092919081815260200182805461231a9061316a565b80156123675780601f1061233c57610100808354040283529160200191612367565b820191906000526020600020905b81548152906001019060200180831161234a57829003601f168201915b505050505090505b92915050565b60006040517f190100000000000000000000000000000000000000000000000000000000000081528360028201528260228201526042812091505092915050565b60008060007f7fffffffffffffffffffffffffffffff5d576e7357a4501ddfe92f46681b20a08460001c11156123f65760006003859250925092506124a0565b60006001888888886040516000815260200160405260405161241b9493929190613b26565b6020604051602081039080840390855afa15801561243d573d6000803e3d6000fd5b505050602060405103519050600073ffffffffffffffffffffffffffffffffffffffff168173ffffffffffffffffffffffffffffffffffffffff160361249157600060016000801b935093509350506124a0565b8060008060001b935093509350505b9450945094915050565b600060038111156124be576124bd613b6b565b5b8260038111156124d1576124d0613b6b565b5b031561260a57600160038111156124eb576124ea613b6b565b5b8260038111156124fe576124fd613b6b565b5b03612535576040517ff645eedf00000000000000000000000000000000000000000000000000000000815260040160405180910390fd5b6002600381111561254957612548613b6b565b5b82600381111561255c5761255b613b6b565b5b036125a1578060001c6040517ffce698f70000000000000000000000000000000000000000000000000000000081526004016125989190612c35565b60405180910390fd5b6003808111156125b4576125b3613b6b565b5b8260038111156125c7576125c6613b6b565b5b0361260957806040517fd78bce0c0000000000000000000000000000000000000000000000000000000081526004016126009190612d15565b60405180910390fd5b5b5050565b6000612636836000018373ffffffffffffffffffffffffffffffffffffffff1660001b6128c7565b905092915050565b600061265484600d61260e90919063ffffffff16565b8061266f575061266e83600d61260e90919063ffffffff16565b5b1561267d576000905061269b565b612710600f548361268e9190613b9a565b6126989190613c0b565b90505b9392505050565b600073ffffffffffffffffffffffffffffffffffffffff168373ffffffffffffffffffffffffffffffffffffffff16036126f45780600260008282546126e891906139a7565b925050819055506127c7565b60008060008573ffffffffffffffffffffffffffffffffffffffff1673ffffffffffffffffffffffffffffffffffffffff16815260200190815260200160002054905081811015612780578381836040517fe450d38c000000000000000000000000000000000000000000000000000000008152600401612777939291906138af565b60405180910390fd5b8181036000808673ffffffffffffffffffffffffffffffffffffffff1673ffffffffffffffffffffffffffffffffffffffff16815260200190815260200160002081905550505b600073ffffffffffffffffffffffffffffffffffffffff168273ffffffffffffffffffffffffffffffffffffffff1603612810578060026000828254039250508190555061285d565b806000808473ffffffffffffffffffffffffffffffffffffffff1673ffffffffffffffffffffffffffffffffffffffff168152602001908152602001600020600082825401925050819055505b8173ffffffffffffffffffffffffffffffffffffffff168373ffffffffffffffffffffffffffffffffffffffff167fddf252ad1be2c89b69c2b068fc378daa952ba7f163c4a11628f55a4df523b3ef836040516128ba9190612c35565b60405180910390a3505050565b600080836001016000848152602001908152602001600020541415905092915050565b606060006128f78361295e565b90506000602067ffffffffffffffff81111561291657612915613649565b5b6040519080825280601f01601f1916602001820160405280156129485781602001600182028036833780820191505090505b5090508181528360208201528092505050919050565b60008060ff8360001c169050601f8111156129a5576040517fb3512b0c00000000000000000000000000000000000000000000000000000000815260040160405180910390fd5b80915050919050565b600080fd5b600080fd5b60007fffffffff0000000000000000000000000000000000000000000000000000000082169050919050565b6129ed816129b8565b81146129f857600080fd5b50565b600081359050612a0a816129e4565b92915050565b600060208284031215612a2657612a256129ae565b5b6000612a34848285016129fb565b91505092915050565b60008115159050919050565b612a5281612a3d565b82525050565b6000602082019050612a6d6000830184612a49565b92915050565b600081519050919050565b600082825260208201905092915050565b60005b83811015612aad578082015181840152602081019050612a92565b60008484015250505050565b6000601f19601f8301169050919050565b6000612ad582612a73565b612adf8185612a7e565b9350612aef818560208601612a8f565b612af881612ab9565b840191505092915050565b60006020820190508181036000830152612b1d8184612aca565b905092915050565b600073ffffffffffffffffffffffffffffffffffffffff82169050919050565b6000612b5082612b25565b9050919050565b612b6081612b45565b8114612b6b57600080fd5b50565b600081359050612b7d81612b57565b92915050565b6000819050919050565b612b9681612b83565b8114612ba157600080fd5b50565b600081359050612bb381612b8d565b92915050565b60008060408385031215612bd057612bcf6129ae565b5b6000612bde85828601612b6e565b9250506020612bef85828601612ba4565b9150509250929050565b600060208284031215612c0f57612c0e6129ae565b5b6000612c1d84828501612b6e565b91505092915050565b612c2f81612b83565b82525050565b6000602082019050612c4a6000830184612c26565b92915050565b600080600060608486031215612c6957612c686129ae565b5b6000612c7786828701612b6e565b9350506020612c8886828701612b6e565b9250506040612c9986828701612ba4565b9150509250925092565b6000819050919050565b612cb681612ca3565b8114612cc157600080fd5b50565b600081359050612cd381612cad565b92915050565b600060208284031215612cef57612cee6129ae565b5b6000612cfd84828501612cc4565b91505092915050565b612d0f81612ca3565b82525050565b6000602082019050612d2a6000830184612d06565b92915050565b612d3981612b45565b82525050565b6000602082019050612d546000830184612d30565b92915050565b60008060408385031215612d7157612d706129ae565b5b6000612d7f85828601612cc4565b9250506020612d9085828601612b6e565b9150509250929050565b600060ff82169050919050565b612db081612d9a565b82525050565b6000602082019050612dcb6000830184612da7565b92915050565b600060208284031215612de757612de66129ae565b5b6000612df584828501612ba4565b91505092915050565b600080fd5b600080fd5b600080fd5b60008083601f840112612e2357612e22612dfe565b5b8235905067ffffffffffffffff811115612e4057612e3f612e03565b5b602083019150836020820283011115612e5c57612e5b612e08565b5b9250929050565b60008060208385031215612e7a57612e796129ae565b5b600083013567ffffffffffffffff811115612e9857612e976129b3565b5b612ea485828601612e0d565b92509250509250929050565b60007fff0000000000000000000000000000000000000000000000000000000000000082169050919050565b612ee581612eb0565b82525050565b600081519050919050565b600082825260208201905092915050565b6000819050602082019050919050565b612f2081612b83565b82525050565b6000612f328383612f17565b60208301905092915050565b6000602082019050919050565b6000612f5682612eeb565b612f608185612ef6565b9350612f6b83612f07565b8060005b83811015612f9c578151612f838882612f26565b9750612f8e83612f3e565b925050600181019050612f6f565b5085935050505092915050565b600060e082019050612fbe600083018a612edc565b8181036020830152612fd08189612aca565b90508181036040830152612fe48188612aca565b9050612ff36060830187612c26565b6130006080830186612d30565b61300d60a0830185612d06565b81810360c083015261301f8184612f4b565b905098975050505050505050565b61303681612d9a565b811461304157600080fd5b50565b6000813590506130538161302d565b92915050565b600080600080600080600060e0888a031215613078576130776129ae565b5b60006130868a828b01612b6e565b97505060206130978a828b01612b6e565b96505060406130a88a828b01612ba4565b95505060606130b98a828b01612ba4565b94505060806130ca8a828b01613044565b93505060a06130db8a828b01612cc4565b92505060c06130ec8a828b01612cc4565b91505092959891949750929550565b60008060408385031215613112576131116129ae565b5b600061312085828601612b6e565b925050602061313185828601612b6e565b9150509250929050565b7f4e487b7100000000000000000000000000000000000000000000000000000000600052602260045260246000fd5b6000600282049050600182168061318257607f821691505b6020821081036131955761319461313b565b5b50919050565b7f4172617261436f696e3a2041646472657373206e6f7420666f756e6420696e2060008201527f746865206578656d7074696f6e73000000000000000000000000000000000000602082015250565b60006131f7602e83612a7e565b91506132028261319b565b604082019050919050565b60006020820190508181036000830152613226816131ea565b9050919050565b7f4172617261436f696e3a205461782070657263656e74616765206d757374206260008201527f65206265747765656e203020616e642031303020626173697320706f696e747360208201527f20286d6178203125292e00000000000000000000000000000000000000000000604082015250565b60006132af604a83612a7e565b91506132ba8261322d565b606082019050919050565b600060208201905081810360008301526132de816132a2565b9050919050565b7f4172617261436f696e3a204e6577207461782070657263656e74616765206d7560008201527f737420626520646966666572656e742066726f6d207468652063757272656e7460208201527f2076616c75652e00000000000000000000000000000000000000000000000000604082015250565b6000613367604783612a7e565b9150613372826132e5565b606082019050919050565b600060208201905081810360008301526133968161335a565b9050919050565b600081905092915050565b7f4e65775461780000000000000000000000000000000000000000000000000000600082015250565b60006133de60068361339d565b91506133e9826133a8565b600682019050919050565b6000819050919050565b61340f61340a82612b83565b6133f4565b82525050565b6000613420826133d1565b915061342c82846133fe565b60208201915081905092915050565b60006040820190506134506000830185612c26565b61345d6020830184612c26565b9392505050565b7f4172617261436f696e3a204164647265737320616c726561647920657869737460008201527f7320696e20746865206578656d7074696f6e7300000000000000000000000000602082015250565b60006134c0603383612a7e565b91506134cb82613464565b604082019050919050565b600060208201905081810360008301526134ef816134b3565b9050919050565b7f4172617261436f696e3a2054726164696e6720616c726561647920656e61626c60008201527f6564000000000000000000000000000000000000000000000000000000000000602082015250565b6000613552602283612a7e565b915061355d826134f6565b604082019050919050565b6000602082019050818103600083015261358181613545565b9050919050565b7f4172617261436f696e3a204c697374206f6620616c6c6f77656420616464726560008201527f737365732063616e6e6f7420626520656d7074792e0000000000000000000000602082015250565b60006135e4603583612a7e565b91506135ef82613588565b604082019050919050565b60006020820190508181036000830152613613816135d7565b9050919050565b7f4e487b7100000000000000000000000000000000000000000000000000000000600052603260045260246000fd5b7f4e487b7100000000000000000000000000000000000000000000000000000000600052604160045260246000fd5b7f4172617261436f696e3a2074726164696e6720616c726561647920656e61626c60008201527f6564000000000000000000000000000000000000000000000000000000000000602082015250565b60006136d4602283612a7e565b91506136df82613678565b604082019050919050565b60006020820190508181036000830152613703816136c7565b9050919050565b7f456e61626c6554726164696e6700000000000000000000000000000000000000600082015250565b6000613740600d8361339d565b915061374b8261370a565b600d82019050919050565b600061376182613733565b9150819050919050565b600060c0820190506137806000830189612d06565b61378d6020830188612d30565b61379a6040830187612d30565b6137a76060830186612c26565b6137b46080830185612c26565b6137c160a0830184612c26565b979650505050505050565b60006040820190506137e16000830185612d30565b6137ee6020830184612d30565b9392505050565b7f54617857616c6c65740000000000000000000000000000000000000000000000600082015250565b600061382b60098361339d565b9150613836826137f5565b600982019050919050565b60008160601b9050919050565b600061385982613841565b9050919050565b600061386b8261384e565b9050919050565b61388361387e82612b45565b613860565b82525050565b60006138948261381e565b91506138a08284613872565b60148201915081905092915050565b60006060820190506138c46000830186612d30565b6138d16020830185612c26565b6138de6040830184612c26565b949350505050565b7f4172617261436f696e3a20596f75206861766520616c7265616479206170707260008201527f6f7665642074686973207472616e73616374696f6e2e00000000000000000000602082015250565b6000613942603683612a7e565b915061394d826138e6565b604082019050919050565b6000602082019050818103600083015261397181613935565b9050919050565b7f4e487b7100000000000000000000000000000000000000000000000000000000600052601160045260246000fd5b60006139b282612b83565b91506139bd83612b83565b92508282019050808211156139d5576139d4613978565b5b92915050565b60006040820190506139f06000830185612d30565b6139fd6020830184612d06565b9392505050565b6000613a0f82612b83565b9150613a1a83612b83565b9250828203905081811115613a3257613a31613978565b5b92915050565b7f4e487b7100000000000000000000000000000000000000000000000000000000600052603160045260246000fd5b7f4172617261436f696e3a2054726164652069732064697361626c656400000000600082015250565b6000613a9d601c83612a7e565b9150613aa882613a67565b602082019050919050565b60006020820190508181036000830152613acc81613a90565b9050919050565b600060a082019050613ae86000830188612d06565b613af56020830187612d06565b613b026040830186612d06565b613b0f6060830185612c26565b613b1c6080830184612d30565b9695505050505050565b6000608082019050613b3b6000830187612d06565b613b486020830186612da7565b613b556040830185612d06565b613b626060830184612d06565b95945050505050565b7f4e487b7100000000000000000000000000000000000000000000000000000000600052602160045260246000fd5b6000613ba582612b83565b9150613bb083612b83565b9250828202613bbe81612b83565b91508282048414831517613bd557613bd4613978565b5b5092915050565b7f4e487b7100000000000000000000000000000000000000000000000000000000600052601260045260246000fd5b6000613c1682612b83565b9150613c2183612b83565b925082613c3157613c30613bdc565b5b82820490509291505056fea26469706673582212208c443577574bdf96ba96c71e9ec504b3819cf3052fbbe04dd667128fe9738cdf64736f6c63430008180033",
  "linkReferences": {},
  "deployedLinkReferences": {}
}