{
  "_format": "hh-sol-artifact-1",
  "contractName": "AraraCoin",
  "sourceName": "contracts/AraraCoin.sol",
  "abi": [
    {
      "inputs": [
        {
          "internalType": "address",
          "name": "initialOwner",
          "type": "address"
        },
        {
          "internalType": "address",
          "name": "taxHandlerAddress",
          "type": "address"
        },
        {
          "internalType": "address",
          "name": "teamAndFoundersVesting",
          "type": "address"
        }
      ],
      "stateMutability": "nonpayable",
      "type": "constructor"
    },
    {
      "inputs": [],
      "name": "ECDSAInvalidSignature",
      "type": "error"
    },
    {
      "inputs": [
        {
          "internalType": "uint256",
          "name": "length",
          "type": "uint256"
        }
      ],
      "name": "ECDSAInvalidSignatureLength",
      "type": "error"
    },
    {
      "inputs": [
        {
          "internalType": "bytes32",
          "name": "s",
          "type": "bytes32"
        }
      ],
      "name": "ECDSAInvalidSignatureS",
      "type": "error"
    },
    {
      "inputs": [
        {
          "internalType": "address",
          "name": "spender",
          "type": "address"
        },
        {
          "internalType": "uint256",
          "name": "allowance",
          "type": "uint256"
        },
        {
          "internalType": "uint256",
          "name": "needed",
          "type": "uint256"
        }
      ],
      "name": "ERC20InsufficientAllowance",
      "type": "error"
    },
    {
      "inputs": [
        {
          "internalType": "address",
          "name": "sender",
          "type": "address"
        },
        {
          "internalType": "uint256",
          "name": "balance",
          "type": "uint256"
        },
        {
          "internalType": "uint256",
          "name": "needed",
          "type": "uint256"
        }
      ],
      "name": "ERC20InsufficientBalance",
      "type": "error"
    },
    {
      "inputs": [
        {
          "internalType": "address",
          "name": "approver",
          "type": "address"
        }
      ],
      "name": "ERC20InvalidApprover",
      "type": "error"
    },
    {
      "inputs": [
        {
          "internalType": "address",
          "name": "receiver",
          "type": "address"
        }
      ],
      "name": "ERC20InvalidReceiver",
      "type": "error"
    },
    {
      "inputs": [
        {
          "internalType": "address",
          "name": "sender",
          "type": "address"
        }
      ],
      "name": "ERC20InvalidSender",
      "type": "error"
    },
    {
      "inputs": [
        {
          "internalType": "address",
          "name": "spender",
          "type": "address"
        }
      ],
      "name": "ERC20InvalidSpender",
      "type": "error"
    },
    {
      "inputs": [
        {
          "internalType": "uint256",
          "name": "deadline",
          "type": "uint256"
        }
      ],
      "name": "ERC2612ExpiredSignature",
      "type": "error"
    },
    {
      "inputs": [
        {
          "internalType": "address",
          "name": "signer",
          "type": "address"
        },
        {
          "internalType": "address",
          "name": "owner",
          "type": "address"
        }
      ],
      "name": "ERC2612InvalidSigner",
      "type": "error"
    },
    {
      "inputs": [
        {
          "internalType": "address",
          "name": "account",
          "type": "address"
        },
        {
          "internalType": "uint256",
          "name": "currentNonce",
          "type": "uint256"
        }
      ],
      "name": "InvalidAccountNonce",
      "type": "error"
    },
    {
      "inputs": [],
      "name": "InvalidShortString",
      "type": "error"
    },
    {
      "inputs": [
        {
          "internalType": "address",
          "name": "owner",
          "type": "address"
        }
      ],
      "name": "OwnableInvalidOwner",
      "type": "error"
    },
    {
      "inputs": [
        {
          "internalType": "address",
          "name": "account",
          "type": "address"
        }
      ],
      "name": "OwnableUnauthorizedAccount",
      "type": "error"
    },
    {
      "inputs": [
        {
          "internalType": "string",
          "name": "str",
          "type": "string"
        }
      ],
      "name": "StringTooLong",
      "type": "error"
    },
    {
      "anonymous": false,
      "inputs": [
        {
          "indexed": true,
          "internalType": "address",
          "name": "owner",
          "type": "address"
        },
        {
          "indexed": true,
          "internalType": "address",
          "name": "spender",
          "type": "address"
        },
        {
          "indexed": false,
          "internalType": "uint256",
          "name": "value",
          "type": "uint256"
        }
      ],
      "name": "Approval",
      "type": "event"
    },
    {
      "anonymous": false,
      "inputs": [],
      "name": "EIP712DomainChanged",
      "type": "event"
    },
    {
      "anonymous": false,
      "inputs": [
        {
          "indexed": true,
          "internalType": "address",
          "name": "previousOwner",
          "type": "address"
        },
        {
          "indexed": true,
          "internalType": "address",
          "name": "newOwner",
          "type": "address"
        }
      ],
      "name": "OwnershipTransferred",
      "type": "event"
    },
    {
      "anonymous": false,
      "inputs": [
        {
          "indexed": false,
          "internalType": "address",
          "name": "oldAddress",
          "type": "address"
        },
        {
          "indexed": false,
          "internalType": "address",
          "name": "newAddress",
          "type": "address"
        }
      ],
      "name": "TaxHandlerChanged",
      "type": "event"
    },
    {
      "anonymous": false,
      "inputs": [],
      "name": "TradingEnabled",
      "type": "event"
    },
    {
      "anonymous": false,
      "inputs": [
        {
          "indexed": true,
          "internalType": "address",
          "name": "from",
          "type": "address"
        },
        {
          "indexed": true,
          "internalType": "address",
          "name": "to",
          "type": "address"
        },
        {
          "indexed": false,
          "internalType": "uint256",
          "name": "value",
          "type": "uint256"
        }
      ],
      "name": "Transfer",
      "type": "event"
    },
    {
      "inputs": [],
      "name": "DOMAIN_SEPARATOR",
      "outputs": [
        {
          "internalType": "bytes32",
          "name": "",
          "type": "bytes32"
        }
      ],
      "stateMutability": "view",
      "type": "function"
    },
    {
      "inputs": [
        {
          "internalType": "address[]",
          "name": "allowedAddresses",
          "type": "address[]"
        }
      ],
      "name": "addCanTrade",
      "outputs": [],
      "stateMutability": "nonpayable",
      "type": "function"
    },
    {
      "inputs": [
        {
          "internalType": "address",
          "name": "_addr",
          "type": "address"
        }
      ],
      "name": "addressToString",
      "outputs": [
        {
          "internalType": "string",
          "name": "",
          "type": "string"
        }
      ],
      "stateMutability": "pure",
      "type": "function"
    },
    {
      "inputs": [
        {
          "internalType": "address",
          "name": "owner",
          "type": "address"
        },
        {
          "internalType": "address",
          "name": "spender",
          "type": "address"
        }
      ],
      "name": "allowance",
      "outputs": [
        {
          "internalType": "uint256",
          "name": "",
          "type": "uint256"
        }
      ],
      "stateMutability": "view",
      "type": "function"
    },
    {
      "inputs": [
        {
          "internalType": "address",
          "name": "spender",
          "type": "address"
        },
        {
          "internalType": "uint256",
          "name": "value",
          "type": "uint256"
        }
      ],
      "name": "approve",
      "outputs": [
        {
          "internalType": "bool",
          "name": "",
          "type": "bool"
        }
      ],
      "stateMutability": "nonpayable",
      "type": "function"
    },
    {
      "inputs": [
        {
          "internalType": "address",
          "name": "account",
          "type": "address"
        }
      ],
      "name": "balanceOf",
      "outputs": [
        {
          "internalType": "uint256",
          "name": "",
          "type": "uint256"
        }
      ],
      "stateMutability": "view",
      "type": "function"
    },
    {
      "inputs": [
        {
          "internalType": "address",
          "name": "_addr",
          "type": "address"
        },
        {
          "internalType": "string",
          "name": "_str",
          "type": "string"
        }
      ],
      "name": "concatenateAddressWithString",
      "outputs": [
        {
          "internalType": "string",
          "name": "",
          "type": "string"
        }
      ],
      "stateMutability": "pure",
      "type": "function"
    },
    {
      "inputs": [],
      "name": "decimals",
      "outputs": [
        {
          "internalType": "uint8",
          "name": "",
          "type": "uint8"
        }
      ],
      "stateMutability": "view",
      "type": "function"
    },
    {
      "inputs": [],
      "name": "eip712Domain",
      "outputs": [
        {
          "internalType": "bytes1",
          "name": "fields",
          "type": "bytes1"
        },
        {
          "internalType": "string",
          "name": "name",
          "type": "string"
        },
        {
          "internalType": "string",
          "name": "version",
          "type": "string"
        },
        {
          "internalType": "uint256",
          "name": "chainId",
          "type": "uint256"
        },
        {
          "internalType": "address",
          "name": "verifyingContract",
          "type": "address"
        },
        {
          "internalType": "bytes32",
          "name": "salt",
          "type": "bytes32"
        },
        {
          "internalType": "uint256[]",
          "name": "extensions",
          "type": "uint256[]"
        }
      ],
      "stateMutability": "view",
      "type": "function"
    },
    {
      "inputs": [],
      "name": "enableTrading",
      "outputs": [],
      "stateMutability": "nonpayable",
      "type": "function"
    },
    {
      "inputs": [],
      "name": "initialLaunch",
      "outputs": [
        {
          "internalType": "address",
          "name": "",
          "type": "address"
        }
      ],
      "stateMutability": "view",
      "type": "function"
    },
    {
      "inputs": [],
      "name": "investors",
      "outputs": [
        {
          "internalType": "address",
          "name": "",
          "type": "address"
        }
      ],
      "stateMutability": "view",
      "type": "function"
    },
    {
      "inputs": [],
      "name": "name",
      "outputs": [
        {
          "internalType": "string",
          "name": "",
          "type": "string"
        }
      ],
      "stateMutability": "view",
      "type": "function"
    },
    {
      "inputs": [
        {
          "internalType": "address",
          "name": "owner",
          "type": "address"
        }
      ],
      "name": "nonces",
      "outputs": [
        {
          "internalType": "uint256",
          "name": "",
          "type": "uint256"
        }
      ],
      "stateMutability": "view",
      "type": "function"
    },
    {
      "inputs": [],
      "name": "owner",
      "outputs": [
        {
          "internalType": "address",
          "name": "",
          "type": "address"
        }
      ],
      "stateMutability": "view",
      "type": "function"
    },
    {
      "inputs": [
        {
          "internalType": "address",
          "name": "owner",
          "type": "address"
        },
        {
          "internalType": "address",
          "name": "spender",
          "type": "address"
        },
        {
          "internalType": "uint256",
          "name": "value",
          "type": "uint256"
        },
        {
          "internalType": "uint256",
          "name": "deadline",
          "type": "uint256"
        },
        {
          "internalType": "uint8",
          "name": "v",
          "type": "uint8"
        },
        {
          "internalType": "bytes32",
          "name": "r",
          "type": "bytes32"
        },
        {
          "internalType": "bytes32",
          "name": "s",
          "type": "bytes32"
        }
      ],
      "name": "permit",
      "outputs": [],
      "stateMutability": "nonpayable",
      "type": "function"
    },
    {
      "inputs": [],
      "name": "preSale",
      "outputs": [
        {
          "internalType": "address",
          "name": "",
          "type": "address"
        }
      ],
      "stateMutability": "view",
      "type": "function"
    },
    {
      "inputs": [],
      "name": "preservationProjects",
      "outputs": [
        {
          "internalType": "address",
          "name": "",
          "type": "address"
        }
      ],
      "stateMutability": "view",
      "type": "function"
    },
    {
      "inputs": [],
      "name": "renounceOwnership",
      "outputs": [],
      "stateMutability": "nonpayable",
      "type": "function"
    },
    {
      "inputs": [
        {
          "internalType": "address",
          "name": "taxHandlerAddress",
          "type": "address"
        }
      ],
      "name": "setTaxHandler",
      "outputs": [],
      "stateMutability": "nonpayable",
      "type": "function"
    },
    {
      "inputs": [],
      "name": "symbol",
      "outputs": [
        {
          "internalType": "string",
          "name": "",
          "type": "string"
        }
      ],
      "stateMutability": "view",
      "type": "function"
    },
    {
      "inputs": [],
      "name": "taxHandler",
      "outputs": [
        {
          "internalType": "contract ITaxHandler",
          "name": "",
          "type": "address"
        }
      ],
      "stateMutability": "view",
      "type": "function"
    },
    {
      "inputs": [],
      "name": "teamAndFounders",
      "outputs": [
        {
          "internalType": "address",
          "name": "",
          "type": "address"
        }
      ],
      "stateMutability": "view",
      "type": "function"
    },
    {
      "inputs": [],
      "name": "thirdPartyServices",
      "outputs": [
        {
          "internalType": "address",
          "name": "",
          "type": "address"
        }
      ],
      "stateMutability": "view",
      "type": "function"
    },
    {
      "inputs": [],
      "name": "totalSupply",
      "outputs": [
        {
          "internalType": "uint256",
          "name": "",
          "type": "uint256"
        }
      ],
      "stateMutability": "view",
      "type": "function"
    },
    {
      "inputs": [],
      "name": "tradingEnabled",
      "outputs": [
        {
          "internalType": "bool",
          "name": "",
          "type": "bool"
        }
      ],
      "stateMutability": "view",
      "type": "function"
    },
    {
      "inputs": [
        {
          "internalType": "address",
          "name": "to",
          "type": "address"
        },
        {
          "internalType": "uint256",
          "name": "value",
          "type": "uint256"
        }
      ],
      "name": "transfer",
      "outputs": [
        {
          "internalType": "bool",
          "name": "",
          "type": "bool"
        }
      ],
      "stateMutability": "nonpayable",
      "type": "function"
    },
    {
      "inputs": [
        {
          "internalType": "address",
          "name": "from",
          "type": "address"
        },
        {
          "internalType": "address",
          "name": "to",
          "type": "address"
        },
        {
          "internalType": "uint256",
          "name": "value",
          "type": "uint256"
        }
      ],
      "name": "transferFrom",
      "outputs": [
        {
          "internalType": "bool",
          "name": "",
          "type": "bool"
        }
      ],
      "stateMutability": "nonpayable",
      "type": "function"
    },
    {
      "inputs": [
        {
          "internalType": "address",
          "name": "newOwner",
          "type": "address"
        }
      ],
      "name": "transferOwnership",
      "outputs": [],
      "stateMutability": "nonpayable",
      "type": "function"
    }
  ],
  "bytecode": "0x6101606040527370997970c51812dc3a010c7d01b50e0d17dc79c8600960006101000a81548173ffffffffffffffffffffffffffffffffffffffff021916908373ffffffffffffffffffffffffffffffffffffffff160217905550733c44cdddb6a900fa2b585dd299e03d12fa4293bc600a60006101000a81548173ffffffffffffffffffffffffffffffffffffffff021916908373ffffffffffffffffffffffffffffffffffffffff1602179055507390f79bf6eb2c4f870365e785982e1f101e93b906600b60006101000a81548173ffffffffffffffffffffffffffffffffffffffff021916908373ffffffffffffffffffffffffffffffffffffffff1602179055507315d34aaf54267db7d7c367839aaf71a00a2c6a65600c60006101000a81548173ffffffffffffffffffffffffffffffffffffffff021916908373ffffffffffffffffffffffffffffffffffffffff160217905550739965507d1a55bcc2695c58ba16fb37d819b0a4dc600d60006101000a81548173ffffffffffffffffffffffffffffffffffffffff021916908373ffffffffffffffffffffffffffffffffffffffff16021790555073976ea74026e726554db657fa54763abd0c3a0aa9600e60006101000a81548173ffffffffffffffffffffffffffffffffffffffff021916908373ffffffffffffffffffffffffffffffffffffffff1602179055503480156200021057600080fd5b506040516200487638038062004876833981810160405281019062000236919062000fcf565b826040518060400160405280600981526020017f4172617261436f696e0000000000000000000000000000000000000000000000815250806040518060400160405280600181526020017f31000000000000000000000000000000000000000000000000000000000000008152506040518060400160405280600981526020017f4172617261436f696e00000000000000000000000000000000000000000000008152506040518060400160405280600381526020017f41524100000000000000000000000000000000000000000000000000000000008152508160039081620003219190620012a5565b508060049081620003339190620012a5565b5050506200034c6005836200071860201b90919060201c565b61012081815250506200036a6006826200071860201b90919060201c565b6101408181525050818051906020012060e08181525050808051906020012061010081815250504660a08181525050620003a96200077060201b60201c565b608081815250503073ffffffffffffffffffffffffffffffffffffffff1660c08173ffffffffffffffffffffffffffffffffffffffff1681525050505050600073ffffffffffffffffffffffffffffffffffffffff168173ffffffffffffffffffffffffffffffffffffffff16036200045c5760006040517f1e4fbdf70000000000000000000000000000000000000000000000000000000081526004016200045391906200139d565b60405180910390fd5b6200046d81620007cd60201b60201c565b5081600f60006101000a81548173ffffffffffffffffffffffffffffffffffffffff021916908373ffffffffffffffffffffffffffffffffffffffff160217905550620004c6600060106200089360201b90919060201c565b50620004dd8360106200089360201b90919060201c565b50620004fd336c01431e0fae6d7217caa0000000620008cb60201b60201c565b6200055b33600960009054906101000a900473ffffffffffffffffffffffffffffffffffffffff16606460056c01431e0fae6d7217caa0000000620005439190620013e9565b6200054f919062001463565b6200095860201b60201c565b620005b933600a60009054906101000a900473ffffffffffffffffffffffffffffffffffffffff166064600a6c01431e0fae6d7217caa0000000620005a19190620013e9565b620005ad919062001463565b6200095860201b60201c565b6200061733600b60009054906101000a900473ffffffffffffffffffffffffffffffffffffffff16606460146c01431e0fae6d7217caa0000000620005ff9190620013e9565b6200060b919062001463565b6200095860201b60201c565b6200067533600c60009054906101000a900473ffffffffffffffffffffffffffffffffffffffff16606460196c01431e0fae6d7217caa00000006200065d9190620013e9565b62000669919062001463565b6200095860201b60201c565b620006b13382606460146c01431e0fae6d7217caa0000000620006999190620013e9565b620006a5919062001463565b6200095860201b60201c565b6200070f33600e60009054906101000a900473ffffffffffffffffffffffffffffffffffffffff16606460146c01431e0fae6d7217caa0000000620006f79190620013e9565b62000703919062001463565b6200095860201b60201c565b5050506200185b565b60006020835110156200073e57620007368362000a5a60201b60201c565b90506200076a565b82620007508362000ac760201b60201c565b6000019081620007619190620012a5565b5060ff60001b90505b92915050565b60007f8b73c3c69bb8fe3d512ecc4cf759cc79239f7b179b0ffacaa9a75d522b39400f60e051610100514630604051602001620007b2959493929190620014c7565b60405160208183030381529060405280519060200120905090565b6000600860009054906101000a900473ffffffffffffffffffffffffffffffffffffffff16905081600860006101000a81548173ffffffffffffffffffffffffffffffffffffffff021916908373ffffffffffffffffffffffffffffffffffffffff1602179055508173ffffffffffffffffffffffffffffffffffffffff168173ffffffffffffffffffffffffffffffffffffffff167f8be0079c531659141344cd1fd0a4f28419497f9722a3daafe3b4186f6b6457e060405160405180910390a35050565b6000620008c3836000018373ffffffffffffffffffffffffffffffffffffffff1660001b62000ad160201b60201c565b905092915050565b600073ffffffffffffffffffffffffffffffffffffffff168273ffffffffffffffffffffffffffffffffffffffff1603620009405760006040517fec442f050000000000000000000000000000000000000000000000000000000081526004016200093791906200139d565b60405180910390fd5b620009546000838362000b4b60201b60201c565b5050565b600073ffffffffffffffffffffffffffffffffffffffff168373ffffffffffffffffffffffffffffffffffffffff1603620009cd5760006040517f96c6fd1e000000000000000000000000000000000000000000000000000000008152600401620009c491906200139d565b60405180910390fd5b600073ffffffffffffffffffffffffffffffffffffffff168273ffffffffffffffffffffffffffffffffffffffff160362000a425760006040517fec442f0500000000000000000000000000000000000000000000000000000000815260040162000a3991906200139d565b60405180910390fd5b62000a5583838362000b4b60201b60201c565b505050565b600080829050601f8151111562000aaa57826040517f305a27a900000000000000000000000000000000000000000000000000000000815260040162000aa19190620015b3565b60405180910390fd5b80518162000ab89062001609565b60001c1760001b915050919050565b6000819050919050565b600062000ae5838362000cb060201b60201c565b62000b4057826000018290806001815401808255809150506001900390600052602060002001600090919091909150558260000180549050836001016000848152602001908152602001600020819055506001905062000b45565b600090505b92915050565b600f60149054906101000a900460ff1662000bb95762000b7683601062000cd360201b90919060201c565b62000bb8576040517f08c379a000000000000000000000000000000000000000000000000000000000815260040162000baf90620016c9565b60405180910390fd5b5b6000600f60009054906101000a900473ffffffffffffffffffffffffffffffffffffffff1673ffffffffffffffffffffffffffffffffffffffff1663d7ad21ac8585856040518463ffffffff1660e01b815260040162000c1c93929190620016eb565b602060405180830381865afa15801562000c3a573d6000803e3d6000fd5b505050506040513d601f19601f8201168201806040525081019062000c60919062001759565b90506000818362000c7291906200178b565b905062000c968562000c8962000d0b60201b60201c565b8462000d3560201b60201c565b62000ca985858362000d3560201b60201c565b5050505050565b600080836001016000848152602001908152602001600020541415905092915050565b600062000d03836000018373ffffffffffffffffffffffffffffffffffffffff1660001b62000cb060201b60201c565b905092915050565b6000600860009054906101000a900473ffffffffffffffffffffffffffffffffffffffff16905090565b600073ffffffffffffffffffffffffffffffffffffffff168373ffffffffffffffffffffffffffffffffffffffff160362000d8b57806002600082825462000d7e9190620017c6565b9250508190555062000e61565b60008060008573ffffffffffffffffffffffffffffffffffffffff1673ffffffffffffffffffffffffffffffffffffffff1681526020019081526020016000205490508181101562000e1a578381836040517fe450d38c00000000000000000000000000000000000000000000000000000000815260040162000e119392919062001801565b60405180910390fd5b8181036000808673ffffffffffffffffffffffffffffffffffffffff1673ffffffffffffffffffffffffffffffffffffffff16815260200190815260200160002081905550505b600073ffffffffffffffffffffffffffffffffffffffff168273ffffffffffffffffffffffffffffffffffffffff160362000eac578060026000828254039250508190555062000ef9565b806000808473ffffffffffffffffffffffffffffffffffffffff1673ffffffffffffffffffffffffffffffffffffffff168152602001908152602001600020600082825401925050819055505b8173ffffffffffffffffffffffffffffffffffffffff168373ffffffffffffffffffffffffffffffffffffffff167fddf252ad1be2c89b69c2b068fc378daa952ba7f163c4a11628f55a4df523b3ef8360405162000f5891906200183e565b60405180910390a3505050565b600080fd5b600073ffffffffffffffffffffffffffffffffffffffff82169050919050565b600062000f978262000f6a565b9050919050565b62000fa98162000f8a565b811462000fb557600080fd5b50565b60008151905062000fc98162000f9e565b92915050565b60008060006060848603121562000feb5762000fea62000f65565b5b600062000ffb8682870162000fb8565b93505060206200100e8682870162000fb8565b9250506040620010218682870162000fb8565b9150509250925092565b600081519050919050565b7f4e487b7100000000000000000000000000000000000000000000000000000000600052604160045260246000fd5b7f4e487b7100000000000000000000000000000000000000000000000000000000600052602260045260246000fd5b60006002820490506001821680620010ad57607f821691505b602082108103620010c357620010c262001065565b5b50919050565b60008190508160005260206000209050919050565b60006020601f8301049050919050565b600082821b905092915050565b6000600883026200112d7fffffffffffffffffffffffffffffffffffffffffffffffffffffffffffffffff82620010ee565b620011398683620010ee565b95508019841693508086168417925050509392505050565b6000819050919050565b6000819050919050565b600062001186620011806200117a8462001151565b6200115b565b62001151565b9050919050565b6000819050919050565b620011a28362001165565b620011ba620011b1826200118d565b848454620010fb565b825550505050565b600090565b620011d1620011c2565b620011de81848462001197565b505050565b5b818110156200120657620011fa600082620011c7565b600181019050620011e4565b5050565b601f82111562001255576200121f81620010c9565b6200122a84620010de565b810160208510156200123a578190505b620012526200124985620010de565b830182620011e3565b50505b505050565b600082821c905092915050565b60006200127a600019846008026200125a565b1980831691505092915050565b600062001295838362001267565b9150826002028217905092915050565b620012b0826200102b565b67ffffffffffffffff811115620012cc57620012cb62001036565b5b620012d8825462001094565b620012e58282856200120a565b600060209050601f8311600181146200131d576000841562001308578287015190505b62001314858262001287565b86555062001384565b601f1984166200132d86620010c9565b60005b82811015620013575784890151825560018201915060208501945060208101905062001330565b8683101562001377578489015162001373601f89168262001267565b8355505b6001600288020188555050505b505050505050565b620013978162000f8a565b82525050565b6000602082019050620013b460008301846200138c565b92915050565b7f4e487b7100000000000000000000000000000000000000000000000000000000600052601160045260246000fd5b6000620013f68262001151565b9150620014038362001151565b9250828202620014138162001151565b915082820484148315176200142d576200142c620013ba565b5b5092915050565b7f4e487b7100000000000000000000000000000000000000000000000000000000600052601260045260246000fd5b6000620014708262001151565b91506200147d8362001151565b92508262001490576200148f62001434565b5b828204905092915050565b6000819050919050565b620014b0816200149b565b82525050565b620014c18162001151565b82525050565b600060a082019050620014de6000830188620014a5565b620014ed6020830187620014a5565b620014fc6040830186620014a5565b6200150b6060830185620014b6565b6200151a60808301846200138c565b9695505050505050565b600082825260208201905092915050565b60005b838110156200155557808201518184015260208101905062001538565b60008484015250505050565b6000601f19601f8301169050919050565b60006200157f826200102b565b6200158b818562001524565b93506200159d81856020860162001535565b620015a88162001561565b840191505092915050565b60006020820190508181036000830152620015cf818462001572565b905092915050565b600081519050919050565b6000819050602082019050919050565b60006200160082516200149b565b80915050919050565b60006200161682620015d7565b826200162284620015e2565b90506200162f81620015f2565b9250602082101562001672576200166d7fffffffffffffffffffffffffffffffffffffffffffffffffffffffffffffffff83602003600802620010ee565b831692505b5050919050565b7f4172617261436f696e2074726164652069732064697361626c65640000000000600082015250565b6000620016b1601b8362001524565b9150620016be8262001679565b602082019050919050565b60006020820190508181036000830152620016e481620016a2565b9050919050565b60006060820190506200170260008301866200138c565b6200171160208301856200138c565b620017206040830184620014b6565b949350505050565b620017338162001151565b81146200173f57600080fd5b50565b600081519050620017538162001728565b92915050565b60006020828403121562001772576200177162000f65565b5b6000620017828482850162001742565b91505092915050565b6000620017988262001151565b9150620017a58362001151565b9250828203905081811115620017c057620017bf620013ba565b5b92915050565b6000620017d38262001151565b9150620017e08362001151565b9250828201905080821115620017fb57620017fa620013ba565b5b92915050565b60006060820190506200181860008301866200138c565b620018276020830185620014b6565b620018366040830184620014b6565b949350505050565b6000602082019050620018556000830184620014b6565b92915050565b60805160a05160c05160e051610100516101205161014051612fc0620018b660003960006115c80152600061158d01526000611a2801526000611a070152600061133b01526000611391015260006113ba0152612fc06000f3fe608060405234801561001057600080fd5b50600436106101cf5760003560e01c80637edd9e5e11610104578063a9059cbb116100a2578063d505accf11610071578063d505accf1461051a578063dd62ed3e14610536578063f2fde38b14610566578063fca6172f14610582576101cf565b8063a9059cbb14610492578063bbaa49da146104c2578063c519099d146104e0578063ca40f1c4146104fe576101cf565b80638ac27f5f116100de5780638ac27f5f146104085780638da5cb5b1461042657806395d89b41146104445780639b75679c14610462576101cf565b80637edd9e5e146103bc57806384b0196e146103da5780638a8c523c146103fe576101cf565b8063488d4a51116101715780635e57966d1161014b5780635e57966d1461032257806370a0823114610352578063715018a6146103825780637ecebe001461038c576101cf565b8063488d4a51146102ca5780634ada218b146102e65780635a7adf7f14610304576101cf565b806318160ddd116101ad57806318160ddd1461024057806323b872dd1461025e578063313ce5671461028e5780633644e515146102ac576101cf565b806306fdde03146101d4578063095ea7b3146101f257806312280ba814610222575b600080fd5b6101dc6105a0565b6040516101e991906121fd565b60405180910390f35b61020c600480360381019061020791906122c7565b610632565b6040516102199190612322565b60405180910390f35b61022a610655565b604051610237919061239c565b60405180910390f35b61024861067b565b60405161025591906123c6565b60405180910390f35b610278600480360381019061027391906123e1565b610685565b6040516102859190612322565b60405180910390f35b6102966106b4565b6040516102a39190612450565b60405180910390f35b6102b46106bd565b6040516102c19190612484565b60405180910390f35b6102e460048036038101906102df919061249f565b6106cc565b005b6102ee610778565b6040516102fb9190612322565b60405180910390f35b61030c61078b565b60405161031991906124db565b60405180910390f35b61033c6004803603810190610337919061249f565b6107b1565b60405161034991906121fd565b60405180910390f35b61036c6004803603810190610367919061249f565b610ab6565b60405161037991906123c6565b60405180910390f35b61038a610afe565b005b6103a660048036038101906103a1919061249f565b610b12565b6040516103b391906123c6565b60405180910390f35b6103c4610b24565b6040516103d191906124db565b60405180910390f35b6103e2610b4a565b6040516103f597969594939291906125ef565b60405180910390f35b610406610bf4565b005b610410610c95565b60405161041d91906124db565b60405180910390f35b61042e610cbb565b60405161043b91906124db565b60405180910390f35b61044c610ce5565b60405161045991906121fd565b60405180910390f35b61047c600480360381019061047791906127a8565b610d77565b60405161048991906121fd565b60405180910390f35b6104ac60048036038101906104a791906122c7565b610db1565b6040516104b99190612322565b60405180910390f35b6104ca610dd4565b6040516104d791906124db565b60405180910390f35b6104e8610dfa565b6040516104f591906124db565b60405180910390f35b61051860048036038101906105139190612864565b610e20565b005b610534600480360381019061052f9190612909565b610f1a565b005b610550600480360381019061054b91906129ab565b611062565b60405161055d91906123c6565b60405180910390f35b610580600480360381019061057b919061249f565b6110e9565b005b61058a61116f565b60405161059791906124db565b60405180910390f35b6060600380546105af90612a1a565b80601f01602080910402602001604051908101604052809291908181526020018280546105db90612a1a565b80156106285780601f106105fd57610100808354040283529160200191610628565b820191906000526020600020905b81548152906001019060200180831161060b57829003601f168201915b5050505050905090565b60008061063d611195565b905061064a81858561119d565b600191505092915050565b600f60009054906101000a900473ffffffffffffffffffffffffffffffffffffffff1681565b6000600254905090565b600080610690611195565b905061069d8582856111af565b6106a8858585611243565b60019150509392505050565b60006012905090565b60006106c7611337565b905090565b6106d46113ee565b6000600f60009054906101000a900473ffffffffffffffffffffffffffffffffffffffff16905081600f60006101000a81548173ffffffffffffffffffffffffffffffffffffffff021916908373ffffffffffffffffffffffffffffffffffffffff1602179055507ed910c9481701ba32afe0c247572aaece27072f230c8ec769bf245fc0b38de6818360405161076c929190612a4b565b60405180910390a15050565b600f60149054906101000a900460ff1681565b600a60009054906101000a900473ffffffffffffffffffffffffffffffffffffffff1681565b606060008273ffffffffffffffffffffffffffffffffffffffff1660001b905060006040518060400160405280601081526020017f303132333435363738396162636465660000000000000000000000000000000081525090506000602a67ffffffffffffffff8111156108285761082761267d565b5b6040519080825280601f01601f19166020018201604052801561085a5781602001600182028036833780820191505090505b5090507f30000000000000000000000000000000000000000000000000000000000000008160008151811061089257610891612a74565b5b60200101907effffffffffffffffffffffffffffffffffffffffffffffffffffffffffffff1916908160001a9053507f7800000000000000000000000000000000000000000000000000000000000000816001815181106108f6576108f5612a74565b5b60200101907effffffffffffffffffffffffffffffffffffffffffffffffffffffffffffff1916908160001a90535060005b6014811015610aaa5782600485600c846109429190612ad2565b6020811061095357610952612a74565b5b1a60f81b7effffffffffffffffffffffffffffffffffffffffffffffffffffffffffffff1916901c60f81c60ff168151811061099257610991612a74565b5b602001015160f81c60f81b826002836109ab9190612b06565b60026109b79190612ad2565b815181106109c8576109c7612a74565b5b60200101907effffffffffffffffffffffffffffffffffffffffffffffffffffffffffffff1916908160001a90535082600f60f81b85600c84610a0b9190612ad2565b60208110610a1c57610a1b612a74565b5b1a60f81b1660f81c60ff1681518110610a3857610a37612a74565b5b602001015160f81c60f81b82600283610a519190612b06565b6003610a5d9190612ad2565b81518110610a6e57610a6d612a74565b5b60200101907effffffffffffffffffffffffffffffffffffffffffffffffffffffffffffff1916908160001a9053508080600101915050610928565b50809350505050919050565b60008060008373ffffffffffffffffffffffffffffffffffffffff1673ffffffffffffffffffffffffffffffffffffffff168152602001908152602001600020549050919050565b610b066113ee565b610b106000611475565b565b6000610b1d8261153b565b9050919050565b600e60009054906101000a900473ffffffffffffffffffffffffffffffffffffffff1681565b600060608060008060006060610b5e611584565b610b666115bf565b46306000801b600067ffffffffffffffff811115610b8757610b8661267d565b5b604051908082528060200260200182016040528015610bb55781602001602082028036833780820191505090505b507f0f00000000000000000000000000000000000000000000000000000000000000959493929190965096509650965096509650965090919293949596565b610bfc6113ee565b600f60149054906101000a900460ff1615610c4c576040517f08c379a0000000000000000000000000000000000000000000000000000000008152600401610c4390612bba565b60405180910390fd5b6001600f60146101000a81548160ff0219169083151502179055507f799663458a5ef2936f7fa0c99b3336c69c25890f82974f04e811e5bb359186c760405160405180910390a1565b600c60009054906101000a900473ffffffffffffffffffffffffffffffffffffffff1681565b6000600860009054906101000a900473ffffffffffffffffffffffffffffffffffffffff16905090565b606060048054610cf490612a1a565b80601f0160208091040260200160405190810160405280929190818152602001828054610d2090612a1a565b8015610d6d5780601f10610d4257610100808354040283529160200191610d6d565b820191906000526020600020905b815481529060010190602001808311610d5057829003601f168201915b5050505050905090565b60606000610d84846107b1565b90508083604051602001610d99929190612c16565b60405160208183030381529060405291505092915050565b600080610dbc611195565b9050610dc9818585611243565b600191505092915050565b600b60009054906101000a900473ffffffffffffffffffffffffffffffffffffffff1681565b600d60009054906101000a900473ffffffffffffffffffffffffffffffffffffffff1681565b610e286113ee565b600f60149054906101000a900460ff1615610e78576040517f08c379a0000000000000000000000000000000000000000000000000000000008152600401610e6f90612c86565b60405180910390fd5b60008282905003610ebe576040517f08c379a0000000000000000000000000000000000000000000000000000000008152600401610eb590612cf2565b60405180910390fd5b60005b82829050811015610f1557610f07838383818110610ee257610ee1612a74565b5b9050602002016020810190610ef7919061249f565b60106115fa90919063ffffffff16565b508080600101915050610ec1565b505050565b83421115610f5f57836040517f62791302000000000000000000000000000000000000000000000000000000008152600401610f5691906123c6565b60405180910390fd5b60007f6e71edae12b1b97f4d1f60370fef10105fa2faae0126114a169c64845d6126c9888888610f8e8c61162a565b89604051602001610fa496959493929190612d12565b6040516020818303038152906040528051906020012090506000610fc782611681565b90506000610fd78287878761169b565b90508973ffffffffffffffffffffffffffffffffffffffff168173ffffffffffffffffffffffffffffffffffffffff161461104b57808a6040517f4b800e46000000000000000000000000000000000000000000000000000000008152600401611042929190612a4b565b60405180910390fd5b6110568a8a8a61119d565b50505050505050505050565b6000600160008473ffffffffffffffffffffffffffffffffffffffff1673ffffffffffffffffffffffffffffffffffffffff16815260200190815260200160002060008373ffffffffffffffffffffffffffffffffffffffff1673ffffffffffffffffffffffffffffffffffffffff16815260200190815260200160002054905092915050565b6110f16113ee565b600073ffffffffffffffffffffffffffffffffffffffff168173ffffffffffffffffffffffffffffffffffffffff16036111635760006040517f1e4fbdf700000000000000000000000000000000000000000000000000000000815260040161115a91906124db565b60405180910390fd5b61116c81611475565b50565b600960009054906101000a900473ffffffffffffffffffffffffffffffffffffffff1681565b600033905090565b6111aa83838360016116cb565b505050565b60006111bb8484611062565b90507fffffffffffffffffffffffffffffffffffffffffffffffffffffffffffffffff811461123d578181101561122d578281836040517ffb8f41b200000000000000000000000000000000000000000000000000000000815260040161122493929190612d73565b60405180910390fd5b61123c848484840360006116cb565b5b50505050565b600073ffffffffffffffffffffffffffffffffffffffff168373ffffffffffffffffffffffffffffffffffffffff16036112b55760006040517f96c6fd1e0000000000000000000000000000000000000000000000000000000081526004016112ac91906124db565b60405180910390fd5b600073ffffffffffffffffffffffffffffffffffffffff168273ffffffffffffffffffffffffffffffffffffffff16036113275760006040517fec442f0500000000000000000000000000000000000000000000000000000000815260040161131e91906124db565b60405180910390fd5b6113328383836118a2565b505050565b60007f000000000000000000000000000000000000000000000000000000000000000073ffffffffffffffffffffffffffffffffffffffff163073ffffffffffffffffffffffffffffffffffffffff161480156113b357507f000000000000000000000000000000000000000000000000000000000000000046145b156113e0577f000000000000000000000000000000000000000000000000000000000000000090506113eb565b6113e86119e2565b90505b90565b6113f6611195565b73ffffffffffffffffffffffffffffffffffffffff16611414610cbb565b73ffffffffffffffffffffffffffffffffffffffff161461147357611437611195565b6040517f118cdaa700000000000000000000000000000000000000000000000000000000815260040161146a91906124db565b60405180910390fd5b565b6000600860009054906101000a900473ffffffffffffffffffffffffffffffffffffffff16905081600860006101000a81548173ffffffffffffffffffffffffffffffffffffffff021916908373ffffffffffffffffffffffffffffffffffffffff1602179055508173ffffffffffffffffffffffffffffffffffffffff168173ffffffffffffffffffffffffffffffffffffffff167f8be0079c531659141344cd1fd0a4f28419497f9722a3daafe3b4186f6b6457e060405160405180910390a35050565b6000600760008373ffffffffffffffffffffffffffffffffffffffff1673ffffffffffffffffffffffffffffffffffffffff168152602001908152602001600020549050919050565b60606115ba60057f0000000000000000000000000000000000000000000000000000000000000000611a7890919063ffffffff16565b905090565b60606115f560067f0000000000000000000000000000000000000000000000000000000000000000611a7890919063ffffffff16565b905090565b6000611622836000018373ffffffffffffffffffffffffffffffffffffffff1660001b611b28565b905092915050565b6000600760008373ffffffffffffffffffffffffffffffffffffffff1673ffffffffffffffffffffffffffffffffffffffff1681526020019081526020016000206000815480929190600101919050559050919050565b600061169461168e611337565b83611b98565b9050919050565b6000806000806116ad88888888611bd9565b9250925092506116bd8282611ccd565b829350505050949350505050565b600073ffffffffffffffffffffffffffffffffffffffff168473ffffffffffffffffffffffffffffffffffffffff160361173d5760006040517fe602df0500000000000000000000000000000000000000000000000000000000815260040161173491906124db565b60405180910390fd5b600073ffffffffffffffffffffffffffffffffffffffff168373ffffffffffffffffffffffffffffffffffffffff16036117af5760006040517f94280d620000000000000000000000000000000000000000000000000000000081526004016117a691906124db565b60405180910390fd5b81600160008673ffffffffffffffffffffffffffffffffffffffff1673ffffffffffffffffffffffffffffffffffffffff16815260200190815260200160002060008573ffffffffffffffffffffffffffffffffffffffff1673ffffffffffffffffffffffffffffffffffffffff16815260200190815260200160002081905550801561189c578273ffffffffffffffffffffffffffffffffffffffff168473ffffffffffffffffffffffffffffffffffffffff167f8c5be1e5ebec7d5bd14f71427d1e84f3dd0314c0f7b2291e5b200ac8c7c3b9258460405161189391906123c6565b60405180910390a35b50505050565b600f60149054906101000a900460ff1661190a576118ca836010611e3190919063ffffffff16565b611909576040517f08c379a000000000000000000000000000000000000000000000000000000000815260040161190090612df6565b60405180910390fd5b5b6000600f60009054906101000a900473ffffffffffffffffffffffffffffffffffffffff1673ffffffffffffffffffffffffffffffffffffffff1663d7ad21ac8585856040518463ffffffff1660e01b815260040161196b93929190612e16565b602060405180830381865afa158015611988573d6000803e3d6000fd5b505050506040513d601f19601f820116820180604052508101906119ac9190612e62565b9050600081836119bc9190612e8f565b90506119d0856119ca610cbb565b84611e61565b6119db858583611e61565b5050505050565b60007f8b73c3c69bb8fe3d512ecc4cf759cc79239f7b179b0ffacaa9a75d522b39400f7f00000000000000000000000000000000000000000000000000000000000000007f00000000000000000000000000000000000000000000000000000000000000004630604051602001611a5d959493929190612ec3565b60405160208183030381529060405280519060200120905090565b606060ff60001b8314611a9557611a8e83612086565b9050611b22565b818054611aa190612a1a565b80601f0160208091040260200160405190810160405280929190818152602001828054611acd90612a1a565b8015611b1a5780601f10611aef57610100808354040283529160200191611b1a565b820191906000526020600020905b815481529060010190602001808311611afd57829003601f168201915b505050505090505b92915050565b6000611b3483836120fa565b611b8d578260000182908060018154018082558091505060019003906000526020600020016000909190919091505582600001805490508360010160008481526020019081526020016000208190555060019050611b92565b600090505b92915050565b60006040517f190100000000000000000000000000000000000000000000000000000000000081528360028201528260228201526042812091505092915050565b60008060007f7fffffffffffffffffffffffffffffff5d576e7357a4501ddfe92f46681b20a08460001c1115611c19576000600385925092509250611cc3565b600060018888888860405160008152602001604052604051611c3e9493929190612f16565b6020604051602081039080840390855afa158015611c60573d6000803e3d6000fd5b505050602060405103519050600073ffffffffffffffffffffffffffffffffffffffff168173ffffffffffffffffffffffffffffffffffffffff1603611cb457600060016000801b93509350935050611cc3565b8060008060001b935093509350505b9450945094915050565b60006003811115611ce157611ce0612f5b565b5b826003811115611cf457611cf3612f5b565b5b0315611e2d5760016003811115611d0e57611d0d612f5b565b5b826003811115611d2157611d20612f5b565b5b03611d58576040517ff645eedf00000000000000000000000000000000000000000000000000000000815260040160405180910390fd5b60026003811115611d6c57611d6b612f5b565b5b826003811115611d7f57611d7e612f5b565b5b03611dc4578060001c6040517ffce698f7000000000000000000000000000000000000000000000000000000008152600401611dbb91906123c6565b60405180910390fd5b600380811115611dd757611dd6612f5b565b5b826003811115611dea57611de9612f5b565b5b03611e2c57806040517fd78bce0c000000000000000000000000000000000000000000000000000000008152600401611e239190612484565b60405180910390fd5b5b5050565b6000611e59836000018373ffffffffffffffffffffffffffffffffffffffff1660001b6120fa565b905092915050565b600073ffffffffffffffffffffffffffffffffffffffff168373ffffffffffffffffffffffffffffffffffffffff1603611eb3578060026000828254611ea79190612ad2565b92505081905550611f86565b60008060008573ffffffffffffffffffffffffffffffffffffffff1673ffffffffffffffffffffffffffffffffffffffff16815260200190815260200160002054905081811015611f3f578381836040517fe450d38c000000000000000000000000000000000000000000000000000000008152600401611f3693929190612d73565b60405180910390fd5b8181036000808673ffffffffffffffffffffffffffffffffffffffff1673ffffffffffffffffffffffffffffffffffffffff16815260200190815260200160002081905550505b600073ffffffffffffffffffffffffffffffffffffffff168273ffffffffffffffffffffffffffffffffffffffff1603611fcf578060026000828254039250508190555061201c565b806000808473ffffffffffffffffffffffffffffffffffffffff1673ffffffffffffffffffffffffffffffffffffffff168152602001908152602001600020600082825401925050819055505b8173ffffffffffffffffffffffffffffffffffffffff168373ffffffffffffffffffffffffffffffffffffffff167fddf252ad1be2c89b69c2b068fc378daa952ba7f163c4a11628f55a4df523b3ef8360405161207991906123c6565b60405180910390a3505050565b606060006120938361211d565b90506000602067ffffffffffffffff8111156120b2576120b161267d565b5b6040519080825280601f01601f1916602001820160405280156120e45781602001600182028036833780820191505090505b5090508181528360208201528092505050919050565b600080836001016000848152602001908152602001600020541415905092915050565b60008060ff8360001c169050601f811115612164576040517fb3512b0c00000000000000000000000000000000000000000000000000000000815260040160405180910390fd5b80915050919050565b600081519050919050565b600082825260208201905092915050565b60005b838110156121a757808201518184015260208101905061218c565b60008484015250505050565b6000601f19601f8301169050919050565b60006121cf8261216d565b6121d98185612178565b93506121e9818560208601612189565b6121f2816121b3565b840191505092915050565b6000602082019050818103600083015261221781846121c4565b905092915050565b6000604051905090565b600080fd5b600080fd5b600073ffffffffffffffffffffffffffffffffffffffff82169050919050565b600061225e82612233565b9050919050565b61226e81612253565b811461227957600080fd5b50565b60008135905061228b81612265565b92915050565b6000819050919050565b6122a481612291565b81146122af57600080fd5b50565b6000813590506122c18161229b565b92915050565b600080604083850312156122de576122dd612229565b5b60006122ec8582860161227c565b92505060206122fd858286016122b2565b9150509250929050565b60008115159050919050565b61231c81612307565b82525050565b60006020820190506123376000830184612313565b92915050565b6000819050919050565b600061236261235d61235884612233565b61233d565b612233565b9050919050565b600061237482612347565b9050919050565b600061238682612369565b9050919050565b6123968161237b565b82525050565b60006020820190506123b1600083018461238d565b92915050565b6123c081612291565b82525050565b60006020820190506123db60008301846123b7565b92915050565b6000806000606084860312156123fa576123f9612229565b5b60006124088682870161227c565b93505060206124198682870161227c565b925050604061242a868287016122b2565b9150509250925092565b600060ff82169050919050565b61244a81612434565b82525050565b60006020820190506124656000830184612441565b92915050565b6000819050919050565b61247e8161246b565b82525050565b60006020820190506124996000830184612475565b92915050565b6000602082840312156124b5576124b4612229565b5b60006124c38482850161227c565b91505092915050565b6124d581612253565b82525050565b60006020820190506124f060008301846124cc565b92915050565b60007fff0000000000000000000000000000000000000000000000000000000000000082169050919050565b61252b816124f6565b82525050565b600081519050919050565b600082825260208201905092915050565b6000819050602082019050919050565b61256681612291565b82525050565b6000612578838361255d565b60208301905092915050565b6000602082019050919050565b600061259c82612531565b6125a6818561253c565b93506125b18361254d565b8060005b838110156125e25781516125c9888261256c565b97506125d483612584565b9250506001810190506125b5565b5085935050505092915050565b600060e082019050612604600083018a612522565b818103602083015261261681896121c4565b9050818103604083015261262a81886121c4565b905061263960608301876123b7565b61264660808301866124cc565b61265360a0830185612475565b81810360c08301526126658184612591565b905098975050505050505050565b600080fd5b600080fd5b7f4e487b7100000000000000000000000000000000000000000000000000000000600052604160045260246000fd5b6126b5826121b3565b810181811067ffffffffffffffff821117156126d4576126d361267d565b5b80604052505050565b60006126e761221f565b90506126f382826126ac565b919050565b600067ffffffffffffffff8211156127135761271261267d565b5b61271c826121b3565b9050602081019050919050565b82818337600083830152505050565b600061274b612746846126f8565b6126dd565b90508281526020810184848401111561276757612766612678565b5b612772848285612729565b509392505050565b600082601f83011261278f5761278e612673565b5b813561279f848260208601612738565b91505092915050565b600080604083850312156127bf576127be612229565b5b60006127cd8582860161227c565b925050602083013567ffffffffffffffff8111156127ee576127ed61222e565b5b6127fa8582860161277a565b9150509250929050565b600080fd5b600080fd5b60008083601f84011261282457612823612673565b5b8235905067ffffffffffffffff81111561284157612840612804565b5b60208301915083602082028301111561285d5761285c612809565b5b9250929050565b6000806020838503121561287b5761287a612229565b5b600083013567ffffffffffffffff8111156128995761289861222e565b5b6128a58582860161280e565b92509250509250929050565b6128ba81612434565b81146128c557600080fd5b50565b6000813590506128d7816128b1565b92915050565b6128e68161246b565b81146128f157600080fd5b50565b600081359050612903816128dd565b92915050565b600080600080600080600060e0888a03121561292857612927612229565b5b60006129368a828b0161227c565b97505060206129478a828b0161227c565b96505060406129588a828b016122b2565b95505060606129698a828b016122b2565b945050608061297a8a828b016128c8565b93505060a061298b8a828b016128f4565b92505060c061299c8a828b016128f4565b91505092959891949750929550565b600080604083850312156129c2576129c1612229565b5b60006129d08582860161227c565b92505060206129e18582860161227c565b9150509250929050565b7f4e487b7100000000000000000000000000000000000000000000000000000000600052602260045260246000fd5b60006002820490506001821680612a3257607f821691505b602082108103612a4557612a446129eb565b5b50919050565b6000604082019050612a6060008301856124cc565b612a6d60208301846124cc565b9392505050565b7f4e487b7100000000000000000000000000000000000000000000000000000000600052603260045260246000fd5b7f4e487b7100000000000000000000000000000000000000000000000000000000600052601160045260246000fd5b6000612add82612291565b9150612ae883612291565b9250828201905080821115612b0057612aff612aa3565b5b92915050565b6000612b1182612291565b9150612b1c83612291565b9250828202612b2a81612291565b91508282048414831517612b4157612b40612aa3565b5b5092915050565b7f4172617261436f696e2074726164696e6720616c726561647920656e61626c6560008201527f6400000000000000000000000000000000000000000000000000000000000000602082015250565b6000612ba4602183612178565b9150612baf82612b48565b604082019050919050565b60006020820190508181036000830152612bd381612b97565b9050919050565b600081905092915050565b6000612bf08261216d565b612bfa8185612bda565b9350612c0a818560208601612189565b80840191505092915050565b6000612c228285612be5565b9150612c2e8284612be5565b91508190509392505050565b7f5447433a2074726164696e6720616c726561647920656e61626c656400000000600082015250565b6000612c70601c83612178565b9150612c7b82612c3a565b602082019050919050565b60006020820190508181036000830152612c9f81612c63565b9050919050565b7f5447433a20696e76616c696420706172616d6574657273000000000000000000600082015250565b6000612cdc601783612178565b9150612ce782612ca6565b602082019050919050565b60006020820190508181036000830152612d0b81612ccf565b9050919050565b600060c082019050612d276000830189612475565b612d3460208301886124cc565b612d4160408301876124cc565b612d4e60608301866123b7565b612d5b60808301856123b7565b612d6860a08301846123b7565b979650505050505050565b6000606082019050612d8860008301866124cc565b612d9560208301856123b7565b612da260408301846123b7565b949350505050565b7f4172617261436f696e2074726164652069732064697361626c65640000000000600082015250565b6000612de0601b83612178565b9150612deb82612daa565b602082019050919050565b60006020820190508181036000830152612e0f81612dd3565b9050919050565b6000606082019050612e2b60008301866124cc565b612e3860208301856124cc565b612e4560408301846123b7565b949350505050565b600081519050612e5c8161229b565b92915050565b600060208284031215612e7857612e77612229565b5b6000612e8684828501612e4d565b91505092915050565b6000612e9a82612291565b9150612ea583612291565b9250828203905081811115612ebd57612ebc612aa3565b5b92915050565b600060a082019050612ed86000830188612475565b612ee56020830187612475565b612ef26040830186612475565b612eff60608301856123b7565b612f0c60808301846124cc565b9695505050505050565b6000608082019050612f2b6000830187612475565b612f386020830186612441565b612f456040830185612475565b612f526060830184612475565b95945050505050565b7f4e487b7100000000000000000000000000000000000000000000000000000000600052602160045260246000fdfea2646970667358221220f0447f802829722dbef9135fd1e94802611cd237b1de48a4cab8072e4b402dc264736f6c63430008180033",
  "linkReferences": {},
  "deployedLinkReferences": {}
}